:020000040800F2
:100000002055012085020008913B0008212B0008A3
:10001000CD3A0008411B0008E593000800000000ED
:100020000000000000000000000000008F7C0008BD
:100030002521000800000000653C0008AD7D000897
:100040009F0200089F0200089F0200089F0200080C
:100050009F0200089F0200089F0200089F020008FC
:100060009F0200089F0200089F0200089F020008EC
:100070009F0200089F020008D91D0008051E000805
:100080009F0200089F0200089F0200089F020008CC
:100090009F0200089F0200089F0200089F020008BC
:1000A0009F0200089F0200089F0200089F020008AC
:1000B0009F0200089F0200089F0200089F0200089C
:1000C0009F0200089F0200089F0200089F0200088C
:1000D0009F020008D18C0008498D0008F58D0008AA
:1000E0009F0200089F0200089F0200089F0200086C
:1000F0009F0200089F0200089F0200089F0200085C
:100100009F020008D96300089F0200089F020008B0
:100110009F0200089F0200081D7E0008257E00083F
:100120009F0200089F0200089F0200089F0200082B
:100130009F0200089F0200089F0200089F0200081B
:100140009F0200089F0200089F0200089F0200080B
:100150009F0200089F0200089F0200089F020008FB
:100160009F0200089F0200089F0200089F020008EB
:100170009F0200089F0200089F0200089F020008DB
:100180009F0200089F02000800F002F800F067F8E4
:100190000AA090E8000C82448344AAF10107DA45E2
:1001A00001D100F05CF8AFF2090EBAE80F0013F0CD
:1001B000010F18BFFB1A43F001031847B82A0400C7
:1001C000D82A04000A444FF0000C10F8013B13F049
:1001D000070408BF10F8014B1D1108BF10F8015BA0
:1001E000641E05D010F8016B641E01F8016BF9D193
:1001F00013F0080F1EBF10F8014BAD1C0C1B09D1EA
:100200006D1E58BF01F801CBFAD505E014F8016B5B
:1002100001F8016B6D1EF9D59142D6D370470000ED
:100220000023002400250026103A28BF78C1FBD8FF
:10023000520728BF30C148BF0B607047642900F0E7
:100240000985752900F00685732901F018800020C2
:1002500070471FB513F0ECF91FBD10B510BD01F0CC
:1002600066F81146FFF7F5FF0EF0A2FA01F084F8E8
:1002700003B4FFF7F2FF03BC09F0E2FA72B670476D
:1002800062B670470948804709480047FEE7FEE725
:10029000FEE7FEE7FEE7FEE7FEE7FEE7FEE7FEE736
:1002A00004480549054A064B70470000B57D000823
:1002B00089010008204F01202055012020510120F4
:1002C0002051012081FB0020704770472DE9F04F3D
:1002D00082B001904FF000744FF000784FF00005AD
:1002E0004FF0000952F804CB52F804EB0868CB6DCC
:1002F000C0FB0C45D1F88000CEF1000EC3FB0E45CB
:10030000D1F8DC30C0FB0C89C3FB0E8952F804CB5A
:1003100052F804EB48688B6DC0FB0C45D1F88400A3
:10032000CEF1000EC3FB0E45D1F8D830C0FB0C89CE
:10033000C3FB0E8952F804CB52F804EB88684B6D6E
:10034000C0FB0C45D1F88800CEF1000EC3FB0E4572
:10035000D1F8D430C0FB0C89C3FB0E8952F804CB12
:1003600052F804EBC8680B6DC0FB0C45D1F88C004B
:10037000CEF1000EC3FB0E45D1F8D030C0FB0C8986
:10038000C3FB0E8952F804CB52F804EB0869CB6C1E
:10039000C0FB0C45D1F89000CEF1000EC3FB0E451A
:1003A000D1F8CC30C0FB0C89C3FB0E8952F804CBCA
:1003B00052F804EB48698B6CC0FB0C45D1F89400F3
:1003C000CEF1000EC3FB0E45D1F8C830C0FB0C893E
:1003D000C3FB0E8952F804CB52F804EB88694B6CCE
:1003E000C0FB0C45D1F89800CEF1000EC3FB0E45C2
:1003F000D1F8C430C0FB0C89C3FB0E8952F804CB82
:1004000052F804EBC8690B6CC0FB0C45D1F89C009A
:10041000CEF1000EC3FB0E45D1F8C030C0FB0C89F5
:10042000C3FB0E8901984FF4FE4E4EF0FF0E4FEACB
:10043000946444EA85144FEAE47CBCEBE43F18BFC3
:100440008CEA0E044FEA986848EA89184FEAE87C7B
:10045000BCEBE83F18BF8CEA0E080480A0F80280CD
:1004600002F5707201F580514FF000744FF0007882
:100470004FF000054FF0000952F804CB0868D1F89E
:100480008030C0FB0C45C3FB0C8952F804CB486894
:10049000D1F88430C0FB0C45C3FB0C8952F804CB67
:1004A0008868D1F88830C0FB0C45C3FB0C8952F832
:1004B00004CBC868D1F88C30C0FB0C45C3FB0C8959
:1004C00052F804CB0869D1F89030C0FB0C45C3FB4F
:1004D0000C8952F804CB4869D1F89430C0FB0C4524
:1004E000C3FB0C8952F804CB8869D1F89830C0FB63
:1004F0000C45C3FB0C8952F804CBC869D1F89C3079
:10050000C0FB0C45C3FB0C8901984FF4FE4E4EF026
:10051000FF0E4FEA946444EA85144FEAE47CBCEB96
:10052000E43F18BF8CEA0E044FEA986848EA89183D
:100530004FEAE87CBCEBE83F18BF8CEA0E08A0F855
:100540004040A0F84280A2F57872A1F570614FF0AA
:100550000F0C00F10400CDF800C001904FF00074C2
:100560004FF000784FF000764FF0007A4FF0000522
:100570004FF000094FF000074FF0000B52F804CB8A
:1005800052F804EB0868CB6DC0FB0C45C0FB0E674E
:10059000CEF1000EC3FB0C67C3FB0E45D1F8DC3077
:1005A000D1F88000C3FB0E89C3FB0CABCEF1000E6B
:1005B000C0FB0C89C0FB0EAB52F804CB52F804EB25
:1005C00048688B6DC0FB0C45C0FB0E67CEF1000E7A
:1005D000C3FB0C67C3FB0E45D1F8D830D1F88400BB
:1005E000C3FB0E89C3FB0CABCEF1000EC0FB0C8924
:1005F000C0FB0EAB52F804CB52F804EB88684B6D8D
:10060000C0FB0C45C0FB0E67CEF1000EC3FB0C67B0
:10061000C3FB0E45D1F8D430D1F88800C3FB0E8956
:10062000C3FB0CABCEF1000EC0FB0C89C0FB0EABC4
:1006300052F804CB52F804EBC8680B6DC0FB0C45B4
:10064000C0FB0E67CEF1000EC3FB0C67C3FB0E456B
:10065000D1F8D030D1F88C00C3FB0E89C3FB0CABB2
:10066000CEF1000EC0FB0C89C0FB0EAB52F804CBE0
:1006700052F804EB0869CB6CC0FB0C45C0FB0E675D
:10068000CEF1000EC3FB0C67C3FB0E45D1F8CC3096
:10069000D1F89000C3FB0E89C3FB0CABCEF1000E6A
:1006A000C0FB0C89C0FB0EAB52F804CB52F804EB34
:1006B00048698B6CC0FB0C45C0FB0E67CEF1000E89
:1006C000C3FB0C67C3FB0E45D1F8C830D1F89400CA
:1006D000C3FB0E89C3FB0CABCEF1000EC0FB0C8933
:1006E000C0FB0EAB52F804CB52F804EB88694B6C9C
:1006F000C0FB0C45C0FB0E67CEF1000EC3FB0C67C0
:10070000C3FB0E45D1F8C430D1F89800C3FB0E8965
:10071000C3FB0CABCEF1000EC0FB0C89C0FB0EABD3
:1007200052F804CB52F804EBC8690B6CC0FB0C45C3
:10073000C0FB0E67CEF1000EC3FB0C67C3FB0E457A
:10074000D1F8C030D1F89C00C3FB0E89C3FB0CABC1
:10075000CEF1000EC0FB0C89C0FB0EAB01F5807121
:1007600001984FF4FE4E4EF0FF0E4FEA946444EAB7
:1007700085144FEAE47CBCEBE43F18BF8CEA0E041E
:100780004FEA986848EA89184FEAE87CBCEBE83FF2
:1007900018BF8CEA0E084FEA966646EA87164FEABB
:1007A000E67CBCEBE63F18BF8CEA0E064FEA9A6A7D
:1007B0004AEA8B1A4FEAEA7CBCEBEA3F18BF8CEAA4
:1007C0000E0ADDF800C000EBCC0E2EF8026B2EF8FE
:1007D00002AB20F8024B20F8028BBCF1010C7FF435
:1007E000BAAE02B0BDE8F08F2DE9F04F82B00190B3
:1007F0004FF000744FF0000552F804CB52F804EBB0
:100800000868CB6DCEF1000EC0FB0C45C3FB0E4556
:1008100052F804CB52F804EB48688B6DCEF1000E11
:10082000C0FB0C45C3FB0E4552F804CB52F804EB59
:1008300088684B6DCEF1000EC0FB0C45C3FB0E4526
:1008400052F804CB52F804EBC8680B6DCEF1000EE1
:10085000C0FB0C45C3FB0E4552F804CB52F804EB29
:100860000869CB6CCEF1000EC0FB0C45C3FB0E45F6
:1008700052F804CB52F804EB48698B6CCEF1000EB1
:10088000C0FB0C45C3FB0E4552F804CB52F804EBF9
:1008900088694B6CCEF1000EC0FB0C45C3FB0E45C6
:1008A00052F804CB52F804EBC8690B6CCEF1000E81
:1008B000C0FB0C45C3FB0E4501984FF4FE4E4EF0B5
:1008C000FF0E4FEA946444EA85144FEAE47CBCEBE3
:1008D000E43F18BF8CEA0E04048002F5707201F543
:1008E00080514FF000744FF0000552F804CB0868B7
:1008F000C0FB0C4552F804CB4868C0FB0C4552F8CD
:1009000004CB8868C0FB0C4552F804CBC868C0FB18
:100910000C4552F804CB0869C0FB0C4552F804CBD7
:100920004869C0FB0C4552F804CB8869C0FB0C45F4
:1009300052F804CBC869C0FB0C4501984FF4FE4E39
:100940004EF0FF0E4FEA946444EA85144FEAE47CCB
:10095000BCEBE43F18BF8CEA0E040484A2F5787265
:10096000A1F570614FF00F0C00F10200CDF800C04E
:1009700001904FF000744FF000764FF000054FF0FB
:10098000000752F804CB52F804EB0868CB6DC0FBAB
:100990000C45C0FB0E67CEF1000EC3FB0E45C3FB3A
:1009A0000C6752F804CB52F804EB48688B6DC0FB1F
:1009B0000C45C0FB0E67CEF1000EC3FB0E45C3FB1A
:1009C0000C6752F804CB52F804EB88684B6DC0FBFF
:1009D0000C45C0FB0E67CEF1000EC3FB0E45C3FBFA
:1009E0000C6752F804CB52F804EBC8680B6DC0FBDF
:1009F0000C45C0FB0E67CEF1000EC3FB0E45C3FBDA
:100A00000C6752F804CB52F804EB0869CB6CC0FBBE
:100A10000C45C0FB0E67CEF1000EC3FB0E45C3FBB9
:100A20000C6752F804CB52F804EB48698B6CC0FB9E
:100A30000C45C0FB0E67CEF1000EC3FB0E45C3FB99
:100A40000C6752F804CB52F804EB88694B6CC0FB7E
:100A50000C45C0FB0E67CEF1000EC3FB0E45C3FB79
:100A60000C6752F804CB52F804EBC8690B6CC0FB5E
:100A70000C45C0FB0E67CEF1000EC3FB0E45C3FB59
:100A80000C6701F5807101984FF4FE4E4EF0FF0E99
:100A90004FEA946444EA85144FEAE47CBCEBE43FFB
:100AA00018BF8CEA0E044FEA966646EA87164FEAAC
:100AB000E67CBCEBE63F18BF8CEA0E06DDF800C012
:100AC00000EB8C0E2EF8026B20F8024BBCF1010CEF
:100AD0007FF44CAF02B0BDE8F08F704710B54C10FA
:100AE00084EA530404D54042C1F1000138BF491ED5
:100AF0001B4204D55242C3F1000338BF5B1E00F015
:100B0000B7FA14F0804F04D04042C1F1000138BF61
:100B1000491E14F0004F04D05242C3F1000338BF05
:100B20005B1E10BD0FB4044910B503AA029800F073
:100B3000ABFB10BC5DF814FBD00100200FB41CB55A
:100B4000074B06AA7B4469460090059800F065FBB8
:100B50000020694600F074FB1CBC5DF814FB00002B
:100B6000F90600000FB41CB50C0007AA009001D0D4
:100B70002044401E074B7B4469460190069800F0D4
:100B80004CFB002C03D06946002000F059FB1CBC34
:100B90005DF814FBD10600002DE9F0410E46044635
:100BA000002020622046E168884730B3252805D020
:100BB000D4E901219047206A401CF2E7E168204611
:100BC00000278847050018D0A5F14100192802D850
:100BD00020354FF400673246294620462760FFF74C
:100BE0002DFB40B1012804D0F61D26F0070608367B
:100BF000D8E7361DD6E72846DAE7206ABDE8F08157
:100C000070B50C460546012A05D02878800600D527
:100C1000EA69002302E0012305E05B1C934202D253
:100C2000E05C0028F9D1A869E618C01AA861286A12
:100C3000184428622846AFF3008004E0D5E901217A
:100C400014F8010B9047B442F8D32846AFF3008064
:100C500070BD00002DE9F04106460024106875299A
:100C6000314616A510D0AFF30080002802DA4042CA
:100C700013A507E031688A0701D512A502E04907EC
:100C800004D511A5012401E0AFF3008000210A2260
:100C900006F1240709E0B0FBF2FCB0FBF2F302FB23
:100CA0001C00303078541846491C0028F3D12346E4
:100CB0002A463046BDE8F04100F051BA000000007D
:100CC0002D0000002B0000002000000030B505467C
:100CD0000B462A4613F8014B12F8010B08B1A0424B
:100CE000F8D01CB1002802D06D1CF1E7284630BDB9
:100CF00040EA0103024630B59B0710D14FF00134A2
:100D000000E008C208C91D1B9D4315EAC41FF8D0A6
:100D100013F0FF0102F8011B0DD01B0AF8E711F8D0
:100D2000013B002B02F8013B05D011F8013B002BE1
:100D300002F8013BF3D130BD10B5431C02E010F8BE
:100D4000011B71B18107FAD14FF0013202C88C1A30
:100D50008C4314EAC211F9D0C01A0A0603D0C01E8F
:100D600010BDC01A10BD0A0401D0801E10BD0902BA
:100D7000FCD0401E10BD421E12F8013F002BFBD1DB
:100D800011F8013B002B02F8013BF9D17047032A0F
:100D900040F2308010F0030C00F0158011F8013B98
:100DA000BCF1020F624498BF11F801CB00F8013B7F
:100DB00038BF11F8013BA2F1040298BF00F801CB43
:100DC00038BF00F8013B11F0030300F06780083AD8
:100DD000C0F0088051F8043B083A51F804CBA0E871
:100DE0000810F5E7121D5CBF51F8043B40F8043BC6
:100DF000AFF30080D20724BF11F8013B11F801CBFB
:100E000048BF11F8012B24BF00F8013B00F801CBCB
:100E100048BF00F8012B7047431A28BF9A427FF65B
:100E2000B6AF032A1044114440F2268010F0030F9D
:100E30001EBF11F8013D521E00F8013D10F0030FD6
:100E40007FF4F6AF11F0030300F04382083AC0F0DC
:100E50000B8051F8043D083A51F804CD40F8043DA8
:100E600040F804CDFFF7F3BF121D5CBF51F8043DFD
:100E700040F8043DAFF30080D20724BF11F8013DD4
:100E800011F801CD48BF11F8012C24BF00F8013D35
:100E900000F801CD48BF00F8012C704710B5203A8A
:100EA000C0F00B80B1E81850203AA0E81850B1E823
:100EB0001850A0E81850BFF4F5AF5FEA027C24BFD9
:100EC000B1E81850A0E8185044BF18C918C0BDE8D0
:100ED00010405FEA827C24BF51F8043B40F8043B99
:100EE00008BF7047D20728BF31F8023B48BF11F84E
:100EF000012B28BF20F8023B48BF00F8012B7047A8
:100F00004FF000020429C0F0128010F0030C00F032
:100F10001B80CCF1040CBCF1020F18BF00F8012BB0
:100F2000A8BF20F8022BA1EB0C0100F00DB85FEA7E
:100F3000C17C24BF00F8012B00F8012B48BF00F84A
:100F4000012B70474FF0000200B5134694469646B9
:100F5000203922BFA0E80C50A0E80C50B1F12001CC
:100F6000BFF4F7AF090728BFA0E80C5048BF0CC07A
:100F70005DF804EB890028BF40F8042B08BF7047D8
:100F800048BF20F8022B11F0804F18BF00F8012B4A
:100F9000704710B5044610F0030F08BF11F0030F9F
:100FA00040F015804FF0013E121FC0F20E8051F844
:100FB000043BA3EB0E0C2CEA030C1CEACE1C08BF6E
:100FC00040F8043BF0D0A1F1040102F10402521EEA
:100FD00008DB11F8013B002B00F8013BF7D111466B
:100FE000FFF78EFF204610BD4FF0013C50F8042B58
:100FF00051F8043B9A4221D1A2EB0C03934313EA2C
:10100000CC1317D150F8042B51F8043B9A4215D158
:10101000A2EB0C03934313EACC130BD150F8042B2F
:1010200051F8043B9A4209D1A2EB0C03934313EA13
:10103000CC13DBD04FF00000704700BFD01A01BACC
:10104000B1FA81F101F0180122FA01F0CB40C1F1AF
:101050002001DBB2C0B2C01A2CFA01F3D11A9143BD
:1010600011EAC311E6D17047704770477047704767
:1010700053EA020C00F069802DE9F04B4FF00006B6
:10108000002B1FBFB3FA83F503FA05F424FA05F623
:101090005E4012BF1643B2FA82F502FA05F4C5F1BA
:1010A00020051EBF22FA05FC44EA0C04203556EA4E
:1010B000044C4FEA144418BF641C4FF000084FF072
:1010C0000009904271EB030C39D3002919BFB1FA22
:1010D00081F701FA07F6B0FA80F700FA07F6C7F1D0
:1010E00020071EBF20FA07FC46EA0C062037B6FB95
:1010F000F4FCA7EB0507103F07F01F0BCBF1200610
:101100000CFA0BFB2CFA06F644BFB3460026202F40
:10111000A4BF5E464FF0000B5BEA060C08BF4FF021
:10112000010B19EB0B09ABFB027C48EB0608C01B5B
:1011300006FB02CC0BFB03CC71EB0C01C1E70B46A9
:10114000024641464846BDE8F08B13B54FF000001B
:101150004FF00001AFF30080BDE81C4070472DE95F
:10116000F0470D4699469246044600F1240801686E
:10117000880604D5E06921F01001216000E001201B
:10118000A84201DD471B00E00027A1697A1902EBA4
:101190000900081AA0612078C00602D42046AFF3E7
:1011A0000080002608E0D4E901211AF806009047E3
:1011B000206A401C761C20624E45F4DB2078C00675
:1011C0000AD52046AFF3008006E0D4E901213020A3
:1011D0009047206A401C2062381EA7F10107F4DC0A
:1011E00007E0D4E9012118F805009047206A401C67
:1011F0002062281EA5F10105F3DC2046AFF3008034
:101200002078000602D50220BDE8F0870120FBE728
:1012100001694A1C02610878704700B58FB0CDE9BA
:1012200001310021059105497944CDE903101146AA
:101230006846FFF7B1FC0FB000BD0000E5FFFFFFFF
:101240000A6802F8010B0A607047D1E900239A424C
:1012500002D2531C0B601070704710B5436913B174
:10126000AFF3008001E0FFF7CBFC012010BD127846
:1012700000F124010A7000224A700122EDE7116892
:101280004FF0FF32E9E70000074B70B50D467B4495
:10129000FFF7C3FF0446284600F045F810B14FF0B1
:1012A000FF3070BD204670BDB3CA0000431A28BF8E
:1012B0009A427FF6F3AD104410F0030F11441EBFA5
:1012C00011F8013D521E00F8013D10F0030F7FF4AC
:1012D000F6AF103AC0F00A8010B531E91850103A54
:1012E00020E91850BFF4F9AFBDE81040530724BF00
:1012F00031E9081020E9081044BF51F8043D40F8D6
:10130000043D12F0030F08BF7047D20728BF31F821
:10131000023D48BF11F8012C28BF20F8023D48BF0C
:1013200000F8012C7047007B00F080007047754684
:1013300000F02CF8AE4605006946534620F0070041
:10134000854618B020B5FEF7ABFFBDE820404FF052
:1013500000064FF000074FF000084FF0000B21F09F
:101360000701AC46ACE8C009ACE8C009ACE8C0096C
:10137000ACE8C0098D46704710B50446AFF3008055
:101380002046BDE81040FEF773BF000000487047DC
:10139000BC4E01202DE9F05F04460E4601E1834D6D
:1013A000D4F844B0D4F84880D5F80090594648465F
:1013B000D5F804A0FEF786FF074641465046FEF7E3
:1013C00081FF381A4000606441464846FEF77AFFC4
:1013D000074659465046FEF775FF38444000A06462
:1013E000D4F840B0D5F80890D4F84C805946484617
:1013F000D5F80CA0FEF766FF074641465046FEF7BB
:1014000061FF381A4000206441464846FEF75AFF03
:10141000074659465046FEF755FF38444000E06401
:10142000D4F83CB0D5F81090D4F8508059464846CE
:10143000D5F814A0FEF746FF074641465046FEF792
:1014400041FF381A4000E06341464846FEF73AFF44
:10145000074659465046FEF735FF384440002065A0
:10146000D4F838B0D5F81890D4F854805946484686
:10147000D5F81CA0FEF726FF074641465046FEF76A
:1014800021FF381A4000A06341464846FEF71AFF84
:10149000074659465046FEF715FF38444000606540
:1014A000D4F834B0D5F82090D4F85880594648463E
:1014B000D5F824A0FEF706FF074641465046FEF742
:1014C00001FF381A4000606341464846FEF7FAFEC5
:1014D000074659465046FEF7F5FE38444000A065E1
:1014E000D4F830B0D5F82890D4F85C8059464846F6
:1014F000D5F82CA0FEF7E6FE074641465046FEF71B
:10150000E1FE381A4000206341464846FEF7DAFE05
:10151000074659465046FEF7D5FE38444000E06580
:10152000D4F82CB0D5F830A0D4F860805946504695
:10153000D5F83490FEF7C6FE074641464846FEF70A
:10154000C1FE381A4000E06241465046FEF7BAFE3E
:10155000074659464846FEF7B5FE38444000206627
:10156000D4F828A0D5F83880D4F86490ED6B5146B3
:101570004046FEF7A7FE074649462846FEF7A2FE6C
:10158000381A4000A06249464046FEF79BFE0746D7
:1015900051462846FEF796FE3844400060664834BF
:1015A000761E002E3FF7FBAEBDE8F09FCC1404087A
:1015B000F8B504460D46164600208DF80000104888
:1015C00000780F2190FBF1F201FB120038B90C48B2
:1015D000007890FBF1F0C0B28DF8010008E00848F7
:1015E00000780F2190FBF1F0401CC0B28DF8010093
:1015F00002236A462946204604F03DFC0020F8BD3F
:10160000100600202DE9F04F99B081468A46174612
:10161000BB469BF80000C0EB0010C5B291480078B3
:10162000854204DB01208DF80800804610E18D48DA
:101630000078401B0F2801DD0F2603E08948007861
:10164000401BC6B206EB4600022101EB40088DF8B4
:1016500009600024F5E0281900EB800101EBC000CF
:101660008149096811F82000012829D1281900EBC7
:10167000800101EBC0007C49096811F8201004EBDF
:1016800044020DF10A0000F81210281900EB800145
:1016900001EBC0007449096801EB8000417804EB5C
:1016A00044020DF10A0000EB42004170002104EBFE
:1016B00044020DF10A0000EB4200C0F80210BFE046
:1016C0006A480068E0BB281900EB800101EBC0000C
:1016D0006549096811F8201004EB44020DF10A0075
:1016E00000F81210281900EB800101EBC0005E49E0
:1016F000096801EB8000417804EB44020DF10A0017
:1017000000EB4200417004EB44010DF10A0000EBD4
:101710004100407804EB440100900DF10A0010F8FC
:101720001130534A1146534807F05CFA002104EB8C
:1017300044020DF10A0000EB4200C0F802107FE005
:10174000FFE72A1902EB820303EBC202464B1B6838
:1017500003EB820251782A1902EB820303EBC202E7
:10176000414B1B6813F8220001AA404B1B689847A5
:1017700048BB281900EB800101EBC0003A49096819
:1017800011F8201004EB44020DF10A0000F81210C9
:10179000281900EB800101EBC0003349096801EB17
:1017A0008000417804EB44020DF10A0000EB420096
:1017B000417004EB44010DF10A0000EB4100019976
:1017C000C0F802103BE0281900EB800101EBC000DB
:1017D0002549096811F8201004EB44020DF10A00B4
:1017E00000F81210281900EB800101EBC0001E491F
:1017F000096801EB8000417804EB44020DF10A0016
:1018000000EB4200417004EB44010DF10A0000EBD3
:101810004100407804EB440100900DF10A0010F8FB
:101820001130134A1146134807F0DCF9002104EB8C
:1018300044020DF10A0000EB4200C0F8021000BFA4
:10184000641CB442FFF607AF00208DF8080000BF0B
:10185000434602AA5146484604F00DFB002019B049
:10186000BDE8F08F100600200C06002014060020B2
:10187000E02404084C2A0408F8B504460D46164630
:1018800000208DF800000948006820B10848007861
:101890008DF8010002E000208DF8010002236A4665
:1018A0002946204604F0E7FA0020F8BD0C06002087
:1018B000100600202DE9F047B2B080468946174651
:1018C000BA469AF8004048480078844202DA47480D
:1018D000006820B901208DF80400012579E0232556
:1018E00004EB840000EBC4004049096811F82000B3
:1018F0008DF8050004EB840000EBC4003B49096847
:1019000001EB800041788DF8061020210DF10700D1
:10191000FFF7F6FA04EB840000EBC400334A1268C8
:1019200002EB80001F2241680DF10700FFF731FB39
:101930009DF8050004282ED1A0210AA8FFF7E0FA9F
:1019400004EB840000EBC4002849096801EB800027
:10195000017A8DF82710002611E004EB840202EBD7
:10196000C402224B1B6803EB82020C3252F8261091
:101970000AAA02EB06100F22FFF70BFB761C9DF85C
:101980002700B042E9DC9DF82700012101EB00109F
:10199000284485B219E09DF80500052815D12021BD
:1019A0000DF12700FFF7ACFA04EB840000EBC40054
:1019B0000E4A126802EB80001F2281680DF1270099
:1019C000FFF7E7FA05F1200085B200208DF804004A
:1019D00000BF2B4601AA4946404604F04CFA0020BD
:1019E00032B0BDE8F0870000100600200C06002091
:1019F0002DE9FC4106460F4615462C461148006865
:101A0000A0B161782078A21C0E4B1B68984750B19A
:101A10006078009023780C4A11460C4807F0E2F8F1
:101A20000120019004E00020019001E001200190DC
:101A3000012301AA3946304604F01DFA0020BDE812
:101A4000FC81000018060020FF240408A42A0408D2
:101A500070B506460C4615460448006820B1218939
:101A60002846024A12689047002070BD08060020F0
:101A700070B5294800684FF47A72B0FBF2F1481E45
:101A8000B0F1807F01D301201BE0481E4FF0E0221F
:101A9000506150170F22002804DB13071D0E1F4B47
:101AA0001D5406E013071E0E1D4B00F00F052D1FE1
:101AB0005E5500BF00204FF0E022906107201061CA
:101AC000002008B100BFFEE702F063F808F0A8FFAD
:101AD00009F016F901F038FE4FF4E131022006F06A
:101AE00041FF4FF46141032006F03CFF0EF0F8FD8A
:101AF0000AF066FF0B49012208680BA10BF01AFAE5
:101B0000044614B9012009490870214608A0FFF7CE
:101B100009F807F0C9FC70BD9800002000E400E05F
:101B200018ED00E0DC010020303A0000C401002084
:101B3000665F6D6F756E743A2025640A00000000C0
:101B400000BFFEE708B1002103E0202070474000FD
:101B5000491C0028FBDA0846704708B1002103E061
:101B6000202070474000491C0028FBDA08467047D7
:101B70000022134601E08354521C8A42FBDB70476B
:101B800070B500254FF4803404E0802004F010FC90
:101B900000B103E0201EA4F10104F6D100BF0CB98E
:101BA000032070BD40F2FF5004F0D8FB2846F8E750
:101BB00070B5044605E01648056805F0450000B11B
:101BC00000E0F8E700BF042004F0F2FB20B104209D
:101BD00004F0C4FB032070BD012004F0E9FB20B138
:101BE000012004F0BBFB0120F5E709482438006818
:101BF000A04201D01020EEE740F2FF5004F0AEFB0F
:101C000003482038006808210840C0B2E3E700001C
:101C1000342C014070B500264FF4803505E01148A2
:101C2000046804F0450000B103E0281EA5F1010599
:101C3000F5D100BF15B104F0040028B1032604203B
:101C400004F08CFB304670BD012004F0B1FB18B1EC
:101C50000126012004F082FB40F2FF5004F07EFBDD
:101C60003046F0E7342C014010B505E00B4804681D
:101C700004F0450000B100E0F8E700BF042004F0E4
:101C800097FB20B1042004F069FB032010BD40F253
:101C9000FF5004F063FB0020F8E70000342C014003
:101CA0002DE9F04105460E464FF0000805E02048BA
:101CB000076807F0450000B100E0F8E700BF042026
:101CC00004F076FB28B1042004F048FB0320BDE8B3
:101CD000F081012004F06CFB20B1012004F03EFBF8
:101CE0000120F4E7124824380068A84201D01020EF
:101CF000EDE740F2FF5004F031FB0D482038046856
:101D000004F4604018B9200C30804046DFE704F44A
:101D1000005008B11320DAE704F4804008B1102025
:101D2000D5E704F4004008B10F20D0E74046CEE7E5
:101D3000342C014070B500264FF4803505E00F4883
:101D4000046804F0450000B103E0281EA5F1010578
:101D5000F5D100BF15B104F0040028B1032604201A
:101D600004F0FCFA304670BD04F0400018B10026C3
:101D7000402004F0F3FA3046F5E70000342C01402F
:101D800040F27F4100EB810330F8112020F8212040
:101D900030F811205A80491EF4D5704770B50022E2
:101DA0005FF01F0404EB821101F120030CE000BF7F
:101DB00030F8115020F8135030F8115000EB430662
:101DC000491E26F8025C9B1EB1EB821FF0DA521C02
:101DD000242AE7DB70BD000010B50749074800F072
:101DE00025F9012806D10449044800F021F80448E7
:101DF0000068804710BD0000008000185860024055
:101E00004401002010B50749074800F00FF90128E8
:101E100006D10449044800F00BF8044800688047E4
:101E200010BD0000208000207060024040010020B2
:101E30000246094B9A4201D2084801E00648103890
:101E400001F000531BB1064B0B40C36002E0044B92
:101E50000B40836070470000106402400060024045
:101E60007D0F7D0F21B1026842F00102026003E0A4
:101E7000026822F00102026070470000016821F050
:101E8000010101600021016041608160C160016168
:101E9000212141614A49884204D13D21484A103AF2
:101EA00091608CE046491831884205D14FF4746145
:101EB000434A103A916082E041493031884205D16D
:101EC0004FF474113E4A103A916078E03C49483131
:101ED000884205D14FF07461394A103A91606EE042
:101EE00037496031884204D13649354A103AD160C9
:101EF00065E033497831884204D13349304A103A99
:101F0000D1605CE02E499031884204D12F492C4A9F
:101F1000103AD16053E02A49A831884205D14FF0E8
:101F20003D51274A103AD16049E02949884204D1FD
:101F30003D21274A083A116041E02549183188427D
:101F400005D14FF47461224A083A116037E0204904
:101F50003031884205D14FF474111D4A083A11609E
:101F60002DE01B494831884205D14FF07461184A71
:101F7000083A116023E016496031884204D11149C2
:101F8000134A121F11601AE011497831884204D1B6
:101F90000D490F4A121F116011E00D49903188421E
:101FA00004D10A490A4A121F116008E00849A83101
:101FB000884204D14FF03D51054A121F116070470D
:101FC000106002403D000020400F002000003D2036
:101FD0001064024021B1026842F48022026003E0F2
:101FE000026822F480220260704722B1036843F441
:101FF0000023036003E0036823F40023036001610E
:10200000704721B1026842F02002026003E00268DA
:1020100022F0200202607047014600200A6802F0A8
:1020200001020AB1012000E00020704770B50246AD
:10203000002000240025124EB24201D2114B01E0D3
:102040000F4B103B104E0E4036B11E2606EAD1242F
:10205000166806EA040502E0566906F0800501F0FC
:1020600000560EB15C6800E01C68084E344004EA7B
:10207000010616B10DB1012000E0002070BD000086
:1020800010640240006002403C0F3C0F7D0F7D0F4A
:1020900010B501F080034BB122B1436943F08003D6
:1020A000436103E0436923F08003436180290BD03F
:1020B0002AB1036801F01E042343036004E00368AF
:1020C00001F01E04A343036010BD000010B5002200
:1020D0000268134B1A40CC680B6823434C692343B6
:1020E0008C692343CC6923430C6A23434C6A234302
:1020F0008C6A23434C6B23438C6B23431A4302604B
:10210000426922F00702D1E90B3423431A434261AA
:102110000B6943604B6883608B68C36010BD00002F
:102120003F801CF0704700002DE9FE4F0029DDE9DB
:102130000C572FDD4FF0FF3A002B1FDBBF4C0293F3
:1021400054F82260BE4C04EB460BBE4C54F832608F
:1021500004EBC2020096167900227C4214F00704B8
:1021600004D015F8012BC4F12007BA401B1B36B16F
:10217000012E12D0032E72D0022E70D05BE100220D
:10218000134605E040F8223000EB8204921C6360A5
:102190008A42F7DB0020BDE8FE8F9BF800600BF160
:1021A000020906F00F0E4FF0000C102B0EDB15F895
:1021B000016BC4F11807BE40164315F8012BC4F19A
:1021C0001007BA403243103B10343FE0E618002EAF
:1021D000D4DD002B06DD15F8017BC4F1180C07FADD
:1021E0000CF73A43082B05DD15F8013BC4F1100448
:1021F000A3401A433446771E4FF000463E41002369
:1022000032404FF00B0C0B3420E000BFCEF1200623
:1022100022FA06F739F817703E0BA41BB240C7F339
:1022200003162EB102F00048520048EA0606641E6A
:10223000C7F303272FB102F00048520048EA07070E
:10224000641E644576DBE0E80267891E002903DD31
:102250000B2CAADBDAE702E0A4EB0C00E7E04FF07E
:10226000000C5F46CDF804C0102B12DB15F801CB33
:10227000C4F118080CFA08FC4CEA020C15F8012B02
:10228000C4F1100802FA08F2103B42EA0C021034C2
:10229000C4E004EB0309B9F1000F4BDD002B0FDDA7
:1022A00015F801CBC4F118080CFA08FC4CEA02023C
:1022B000082B05DD15F8013BC4F11004A3401A43B7
:1022C000A9F101084FF0004C4CFA08FC0CEA02029C
:1022D0004FF00B0C002309F10B04CDF804C09DE076
:1022E00097F800C00CF00F09C9F1200C22FA0CFC81
:1022F00007EB4C0CBCF802805FEA183C0BD002FAEA
:102300000CF2C8F3031EA4EB0C04C8F30329BEF1BE
:102310000F0F07D03AE0A4EB090402FA09F207EB29
:1023200048077BE0032E34D1B9F1000F03D04FF002
:10233000010C02E078E04FF0000C009F674404EBD2
:10234000030C7F1CBC4576DB0AE000BF15F801CB0F
:10235000C4F118080CFA08FC083B4CEA02020834E5
:10236000BC42F3DB002B08DA1C44A4F1010C4FF053
:102370000047002347FA0CF73A40009FC7F12007B7
:1023800022FA07F7BE44009FE41BBA40BEF1000FDB
:1023900005D002F00047520047EA0E0E641EB9F164
:1023A0000F0F29D1032E2AD1009F04EB030C7F1CB1
:1023B000BC4540DB0AE000BF15F801CBC4F11808AA
:1023C0000CFA08FC083B4CEA02020834BC42F3DB7E
:1023D000002B08DA1C44A4F1010C4FF00047002345
:1023E00047FA0CF73A40009FC7F1200722FA07F797
:1023F000B944009FE41BBA40B9F1000F05D002F0C8
:102400000047520047EA0909641E019FBC4212DBE3
:1024100040F804EB5F4640F8049B891E002904DD68
:102420000B2CFFF621AF5BE705E00198201A02991B
:102430001844081AAFE65046ADE6000098090408B3
:1024400074E80308180A04082DE9F84F8146DDE90D
:102450000A54002B02DC0020BDE8F88F4848494EA2
:1024600050F8220000EB060E474850F8220000907A
:102470000022604210F0070404D015F8012BC4F1CB
:10248000200082400020A3EB040A8346C91E74E0AA
:10249000BAF1100F0FDB15F8013BC4F11806B34079
:1024A000134315F8012BC4F11006B2401A43AAF1E8
:1024B000100A10345DE004EB0A03002BCCDDBAF106
:1024C000000F05DD15F8016BC4F11807BE4032435B
:1024D000BAF1080F05DD15F8016BC4F11004A64030
:1024E00032431C465E1E4FF0004333411A404FF00A
:1024F000000A4FF00A0B0A343BE0009BC3F12003B3
:1025000022FA03F31EF803603309E41A9A40C6F373
:10251000C00323B102F000473B435200641EC6F3E0
:10252000800CBCF1000F05D002F00047520047EAD2
:102530000C0C641EC6F340072FB102F00048520095
:1025400048EA0707641E16F0010605D002F00048AD
:10255000520048EA0606641E5C45FFF67DAFC9F8E6
:10256000003009F10403001D43F804CBE3E80276D0
:102570009946884201DA0A2CBFDA884288DB6BE789
:10258000680B0408180B0408700B040801B5054912
:10259000086800BF03490968411A009A9142F9D3BB
:1025A00008BD0000C80100202DE9F04F0D46064689
:1025B0005B4903F0030001EB801910398DB051F82D
:1025C000200004901F2092464FF00008B0EBA30FAC
:1025D0001DDD9C10E01C1F281ADA002800DC0020FA
:1025E00000210891D9F8041001410991D9F8081087
:1025F00001410A91D9F80C1001410B9180CE27F0CE
:102600000040042806DA08A951F8200077E01F24CA
:102610001F20E5E7102807DA59F82000002C01DA1E
:10262000614269E020416AE0402809DA3D4901EB56
:102630008000049950F8400CFDF744FEE11E50E084
:102640004FEA404B00200290BBF1006F03DA0420F8
:102650004FEA0B1B0290BBF1005F04DA02984FEACD
:102660008B0B801C0290BBF1804F04DA02984FEA7A
:102670004B0B401C02902C498B4502DA2948C03094
:1026800001E02848D430069000685946FDF71AFE4C
:1026900001460698406808445946FDF713FE014676
:1026A0000698806808445946FDF70CFE01460698D6
:1026B000C06808445946FDF705FE014606981B4AC6
:1026C00000690844029952F82110FDF7FBFDC00093
:1026D0000499FDF7F7FD154A0299203A52F82110A6
:1026E000611A00290ADA49426FF0004222FA01F326
:1026F000834201DA104602E0884000E0084148EADF
:1027000000018846002F00DA404201C5AAF101000D
:102710005FEA000A7FF472AF0DB00846BDE8F08FA3
:102720004CE603084CE703089A79825A54E80308F8
:102730002DE9FC4107460D460026002400200090AC
:10274000019008205B4908601020486040208860A4
:102750000020C8604FF480600861084603F074FEF2
:102760001020FFF725FA044614B12046BDE8FC818D
:102770005148008800044F490860372048604020D5
:1027800088600020C8604FF480600861084603F04C
:102790005BFE3720FFF70CFA04460CB12046E5E754
:1027A0004FF0FF30454908600820486030208860BD
:1027B0000220C8600020086101204861084603F03B
:1027C000DDFD00203B4908603320486040208860E0
:1027D0000020C8604FF480600861084603F034FEB2
:1027E0003320FFF7E5F904460CB12046BEE70CE0C4
:1027F0004FF4001003F0DCFD38B1314800684DF8AB
:102800002600761C022E00D307E02D484C380068C5
:1028100040F22A6108400028EAD000BF082003F0F7
:10282000C7FD20B1082003F099FD04209EE7022097
:1028300003F0BEFD20B1022003F090FD022095E7D9
:10284000202003F0B5FD20B1202003F087FD0620F5
:102850008CE74FF4007003F0ABFD28B14FF400702B
:1028600003F07CFD072081E740F2FF5003F076FD86
:1028700000980006009901F47F4140EA0120009988
:1028800001F47F0140EA1120009940EA116068607C
:1028900001980006019901F47F4140EA0120019965
:1028A00001F47F0140EA1120019940EA116028609B
:1028B00020465BE7A0100020C0000020B4100020DC
:1028C000802C01402DE9F0471E000D4604463BD008
:1028D000D107C6F11F074FF001004FF0000800FAC2
:1028E00007F0A0F10109C24672D02068C11740FA72
:1028F00007F28A4201D089EA0100B0402060FDF76A
:10290000E4FC40EA080854F8800F4042C11740FA3E
:1029100007F28A4201D089EA0100B0402060FDF749
:10292000D4FC40EA08082868C11740FA07F280344E
:102930008A4201D089EA0100B04001C50AF1020AC9
:10294000BAF1120FD1DB70E0D0073DD04FF4207008
:10295000D4F880C107594FF46070D4F880800659CC
:102960004FF49060CCF1000C05594FF4B060C8F101
:10297000000803594FF4D0607F4202594FF4F060D1
:10298000764201594FF408606D4250F804904FF4BC
:102990002070C4F880C1C4F8808007514FF4607083
:1029A0005B4206514FF49060524205514FF4B060C3
:1029B000494203514FF4D06002514FF4F06001518D
:1029C000C9F10000C4F880080020BDE8F087FFE7E7
:1029D0002068C11740FA07F28A4201D089EA010053
:1029E000B0402060FDF771FC40EA080854F8800F01
:1029F000C11740FA07F28A4201D089EA0100B040CB
:102A00002060FDF762FC40EA08082868C11740FA18
:102A100007F280348A4201D089EA0100B04001C542
:102A20000AF1020ABAF1120FD2DB4046CDE7F0B547
:102A30000A4600210023002400BF3DE0012505FADD
:102A400001F3156805EA03049C4234D105684F0080
:102A50000326BE40B543056015794E00B5400668B3
:102A6000354305601579012D02D01579022D16D157
:102A700085684F000326BE40B543856055794E00FA
:102A8000B540866835438560456801268E40B5436C
:102A90004560456896798E40B6B235434560C56855
:102AA0004F000326BE40B543C560D5794E00B54002
:102AB000C6683543C560491C1029BFD3F0BDF0B5C9
:102AC000002300244D07ED0E02FA05F3CE1000F1AD
:102AD000200555F826504E07F70E0F26BE40B54389
:102AE000CF1000F1200646F82750CE1000F1200547
:102AF00055F8265045EA0304CE1000F1200545F8AC
:102B00002640F0BD0246002013690B400BB10120A6
:102B100000E0002070470AB1018300E04183704764
:102B200000BFFEE72DE9F04F97B000259846934689
:102B3000894607462C46209E1BE000BFD8E9053099
:102B400018B17069A04200DD0023D6E90301A1425B
:102B500000DD0020B1690090CDE901410BEB84025A
:102B60004946384600F0B2FC0543641C09F12409CB
:102B700048373068A042E1DC13E000BFD6E90330FB
:102B8000A04200DD0023B0690BEB8402CDE90040D8
:102B90004946384600F0BEFB0543641C09F1240990
:102BA00048377068A042E9DC009441E0D6E9032090
:102BB000A04200DD002203A9484606F0A9FDE00777
:102BC00015904FF0000A04F001005746029003A848
:102BD0000BEB072150F83700019180004AEA000A08
:102BE00041F82400FDF771FB40EA050803A800EB5B
:102BF000C70015994068800080EAE1710298084496
:102C000001994AEA000A01EB8401C1F88000FDF74E
:102C10005CFB40EA0805002049F827007F1C092FCB
:102C2000D5DB09F12409BAF1000F00D00094641C2F
:102C3000B068A042BADC0021202C0ADA5FF0000064
:102C40000BEBC012401C42F824101228F8DB641C65
:102C5000F2E70DB1002003E0202003E06D00401CEE
:102C6000002DFBDA401EF061009817B0BDE8F08F30
:102C70002DE9FF4104460F4615461E4601218803F3
:102C800003F082F90121880303F08EF900214FF44B
:102C9000804003F089F9ADF80070ADF80240ADF85E
:102CA00004600020ADF8060002200290ADF80C5040
:102CB0006946074800F06CF901220221044804F03B
:102CC000DDFF0121024800F02FF9BDE8FF8100007F
:102CD0000038004070B50546002400260A20B5FBE8
:102CE000F0F500BF09E004EB84001F4931F8100043
:102CF000A84200D103E0601CC4B20C2CF3D300BF87
:102D0000002003F0F5F90C2C01D1012070BD04EB7B
:102D10008402154B03EB4202918804EB840203EB1F
:102D20004202508803F0EAF91048006840F08060E1
:102D30000E49086000BF0D48006800F000600028E0
:102D4000F9D004EB8400084901EB4000C68804EB8D
:102D5000840001EB4000008946EA002646F4007634
:102D600003490E800020D1E74436010800380240B4
:102D70002038004070B590B004460E46154601213B
:102D8000480503F0F1F82548FFF778F800BF23481D
:102D9000FFF742F90028FAD121492048FFF748F807
:102DA000002000901F480190029440200390049559
:102DB000002005904FF4806006904000079080004E
:102DC00008904011099040020A9000200B900C904E
:102DD0000D900E9069461148FFF778F900223146B0
:102DE0000E48FFF702F901210C48FFF7F3F8012222
:102DF00010210A48FFF74CF90F208DF83C00012004
:102E00008DF83D0000208DF83E0001208DF83F0038
:102E10000FA800F0E1FE10B070BD0000706002402D
:102E20003DF000A00C3800402DE9FF4104460F465C
:102E300015461E4687F48070ADF80000ADF80240DC
:102E4000ADF804600020ADF8060002200290ADF855
:102E50000C506946064800F073F8012211460448F8
:102E600004F00CFF0121024800F05EF8BDE8FF818C
:102E70000034004070B590B004460E46154601215E
:102E8000480503F071F82548FEF7F8FF00BF234816
:102E9000FFF7C2F80028FAD121492048FEF7C8FF01
:102EA0004FF0C06000901F480190029400200390F2
:102EB000049505904FF480600690400007908000D4
:102EC00008904011099000020A9000200B900C908D
:102ED0000D900E9069461148FFF7F8F80022314630
:102EE0000E48FFF782F801210C48FFF773F8012222
:102EF00010210A48FFF7CCF80E208DF83C00012085
:102F00008DF83D0000208DF83E0001208DF83F0037
:102F10000FA800F061FE10B070BD000058600240C4
:102F200000F0409F0C34004021B1828B42F480625B
:102F3000828304E0828B4FF6FF331A40828370470E
:102F400030B500220023848B4FF240052C4084834F
:102F500002240484828B0C88B4F5007F01D00C8895
:102F600014B94FF4807308E00C88B4F5407F03D0A7
:102F70000C88B4F5807F00D100238C888D892C4388
:102F80004D882C431C4344F400642243828330BDAB
:102F90002DE9F04F0025022300244FF00109002203
:102FA0000026002794469046B0F81CA04FF2400B34
:102FB0000AEA0B0AA0F81CA04FF0020AA0F820A011
:102FC000858BD1F808A0BAF1020F01D100BF82E0D1
:102FD000B1F804A0BAF1000F02D14FF0010901E0ED
:102FE0004FF00209DFF834A1DAF800A00AF4000A71
:102FF000BAF1000F09D0DFF824A1DAF800A02AF412
:10300000000ADFF818B1CBF800A0DFF810A10AF130
:103010007C0ADAF800A0CAF3881CDFF800A10AF1E4
:103020007C0ADAF800A0CAF30278DFF8F0A0AAF16F
:10303000040ADAF800A00AF03F07DFF8E0A0AAF1DE
:10304000040ADAF800A00AF4800ABAF5800F08D161
:10305000DFF8CCA0BAFBF7FA0AFB0CFABAFBF8F6D9
:1030600007E0DFF8C0A0BAFBF7FA0AFB0CFABAFBDC
:10307000F8F6B1F806A0BAF5007F0ED14FEA162A8D
:103080000AEB8A0A4FEA4A0AD1F808B0BAFBFBFAFF
:103090000AF1050A1FFA8AF20FE04FEA491AB6FB55
:1030A000FAFA0AEB8A0A4FEA4A0AD1F808B0BAFBE0
:1030B000FBFA0AF1050A1FFA8AF24FF00A0AB2FB7C
:1030C000FAF202F00104A2EB040ACAF34F034FF62E
:1030D000FF7A0AEA0424022B01DBFF2B01DD022325
:1030E0000024B1F806A04AEA040A4AEA030AA0F852
:1030F00020A0B1F804A0B1F80CB04AEA0B0AB1F86C
:1031000002B04AEA0B0AB1F800B04AEA0B0A4AF4E4
:10311000006A4AEA05058583BDE8F08F0838024059
:1031200000127A000024F40010B501210148FEF7D6
:1031300099FE10BD7060024010B500210148FEF7F5
:1031400091FE10BD7060024010B501210148FEF7EC
:1031500089FE10BD5860024010B500210148FEF7FD
:1031600081FE10BD586002401CB50121022002F012
:10317000FBFE4FF44070009001208DF80400002009
:103180008DF8060003208DF8050001208DF807005A
:1031900069460548FFF74BFC0120044908600449D3
:1031A000C1F8A4021CBD000000040240A0824042FD
:1031B0000080404270B504461548006820F4402065
:1031C000134908600846006840F480200860002029
:1031D00010490860002517E0E0090E49091D086044
:1031E0006006040E0220FFF7D1F901200A49C1F858
:1031F000A0020220FFF7CAF9002006490860022059
:10320000FFF7C4F9681CC5B2082DE5DB70BD0000EE
:1032100000040240A08240420080404210B50F48A6
:10322000006820F440200D4908600846006840F41A
:103230008020086001200A4908600A49C1F8A002FC
:103240000420FFF7A3F90020054908600420FFF7D8
:103250009DF900200349C1F8A00210BD00040240FE
:10326000A48240420080404210B50F48006820F41C
:1032700040200D4908600846006840F4802008603E
:1032800000200A4908600A49C1F8A4020420FFF797
:103290007DF90120054908600549C1F8A402042010
:1032A000FFF774F910BD000000040240A082404204
:1032B0000080404210B500241348006820F44020EC
:1032C0001149086008460068086001200F4908603D
:1032D000FFF75CF901200E49C1F8A002FFF756F98B
:1032E00007E0601CC4B2FA2C03DDFFF7BDFF01202C
:1032F00010BD0648803800680028F2D10349091F34
:10330000086000BFF4E7000000040240A4824042CD
:10331000008040422DE9FF4FA7B0054635981E4674
:103320000C464FF0000B072816DAC0F1070B0020FF
:1033300055F8201041FA0BF145F8201005EB8001FB
:103340004A6842FA0BF24A60216841FA0BF102C462
:10335000801C1228ECDB243C694628460BF058F808
:10336000281D06A90BF054F805F108000CA90BF074
:103370004FF8324612A9204606F0CAF952480027F3
:103380003D4624900DF1480A5AF825004FEA80087E
:103390004046FCF79AFF40EA070929980AEB850A9C
:1033A00000EBC516C6F80080DAF80C0080008046F5
:1033B000FCF78BFF40EA0907684600EB8500C6F87A
:1033C00080812590C168249850F82500FCF77AFF89
:1033D0000146DAF8180001EB80008146FCF775FF22
:1033E00040EA0708C6F800932498C5F1050100EBF0
:1033F00085095DF82110D9F80C00FCF763FF014640
:10340000DAF8240001EB80000746FCF75EFFC5F107
:103410000201C6F8807440EA08085DF82110D9F866
:103420001800FCF74FFF07462598416A249850F88A
:103430002500FCF747FF3918DAF8300001EB800768
:103440003846FCF742FF40EA08012591C6F80076AD
:103450005DF82510D9F82400FCF734FFC5F10B0105
:1034600007465DF82110D9F80C00FCF72BFF39183E
:10347000DAF83C0001EB80008046FCF726FF259936
:103480006D1C40EA0107C6F88087032DFFF67AAF6E
:103490000621684650F82120491C921004C40929CD
:1034A000F8DB0C2150F82120491C921004C4122989
:1034B000F8DBA4F124015B46349A2998FFF702FA5D
:1034C0002BB03843BDE8F08F641204082DE9F04FAB
:1034D0000C46AFB00146924600203A9A9B464431D2
:1034E000034605AD072A1BDAC2F1070908220E6858
:1034F00046FA09F6F31A0E1F181A366846FA09F644
:10350000F31A05EB8206706245F8223054F8226007
:1035100046FA09F644F822600839521EE7D510E051
:103520004FF0000908220E68F31A0E1F181A3668A9
:103530000839F31A05EB8206706245F82230521EF4
:10354000F1D50E9840100E90059840100590284631
:103550000AF0BAFE0EA80AF0B7FE3898504F0DAE2A
:103560004FF0000850EA0B0056D018A92046389AB0
:1035700006F0CEF84B490BEBCB0001EB0010002519
:10358000CDF80400716A57F8040956F804B9FCF73D
:1035900099FE4FEAAB010A1A0844049201C401984B
:1035A00050F825100498FCF78DFE18A9C5F1110BF1
:1035B00051F825100844800001992D90049851F885
:1035C0002B10FCF77FFE18AA014652F82B00084486
:1035D000810000910AEBC5112D9808600AEBCB1011
:1035E000009901602D98FCF770FE40EA08080098E9
:1035F000FCF76BFE6D1C40EA0808092DC2DB00BF1A
:10360000A4F124014B465046399AFFF75BF92FB0DD
:1036100040EA0800BDE8F08FDFF884B05FF00005F5
:103620000BF1040B726A57F8040956F80419039158
:103630001146FCF747FE236803995A4289102E92DF
:10364000421A0844049201C49818404200905BF862
:10365000041BFCF737FE049A02EB80002D905BF808
:10366000041B0098FCF72EFE2E9A0AEBC51102EB04
:10367000800000902D980860C5F111020AEBC2117C
:10368000009808602D98FCF720FE40EA0808009892
:10369000FCF71BFE6D1C40EA0808092DC2DBAFE7F2
:1036A000980B0408441104081CB50446002001903E
:1036B0000090224800880004214908600D204860DD
:1036C000402088600020C8604FF480600861084690
:1036D00002F0BAFE1B480068009002E0194800683A
:1036E0000090009800F045000028F7D0012002F07B
:1036F0005FFE20B1012002F031FE01201CBD04203C
:1037000002F056FE20B1042002F028FE0320F5E767
:103710000C48243800680D2801D01020EEE740F254
:10372000FF5002F01BFE0748203800680190019806
:10373000C0F3432020700020E0E70000C00000201C
:10374000A0100020342C014010B54FF4E1310120CD
:1037500005F008F901200149087010BDCC010020D6
:103760002DE9FF4F83B017460E46040013D0316891
:103770000FF00EFA5FEA00087CD4306800EB080115
:10378000204631600FF078FB002807DA6FF0060062
:1037900007B0BDE8F08F6FF00400F9E7316808EB7F
:1037A000000B014431603A68A2EB0B013960D4F898
:1037B000B81719B1D4F8B007D0BB5CE0D4F8B01793
:1037C000B1BB0121C4F8B0173568D7F800A0A5EB4C
:1037D0000801A946A1EB00085146284600F01DF952
:1037E0000544002802DA4FF0FF301AE02A7898F8F2
:1037F00000108A421DD16A7898F801108A4218D1C7
:10380000A97801F0FC0298F8021001F0FC018A424C
:103810000FD198F802004008C00700D06D1EA5EB3C
:103820000900C4F8B407002809DA6FF00200AFE716
:1038300014E0AAEB0000A0F1030AED1CCCE700EBBA
:103840000B01D4F8C427D4F8C8074243D4F8C00702
:103850004843C00090FBF2F0C4F8B80720460DF0D2
:10386000CCFFD4F8B4174018C4F8CC0703D56FF0D8
:103870000C008DE709E01098A8B13868C4F8CC07AF
:10388000D4F8D81709B9002802DC6FF005007FE7EB
:10389000C4F8DC073568284430603868D4F8CC17A1
:1038A000401A38602CE0D4F8CC373868834202DD07
:1038B0004FF0FF306CE7D4F8D827D4F8DC079042FB
:1038C00026DB2044811A04F11C0005461C31FDF75B
:1038D000A3FAD4F8D807D4F8CC273168284404F2E6
:1038E000CC74FDF754FAE168206801442161316825
:1038F0000844306038682168A4F2CC74401A3860FB
:1039000000200290D4F8DC0700264FEAC0097EE0D0
:1039100004F11C0210441A463168FDF738FAD4F855
:10392000DC17D4F8CC070144C4F8DC17316808442C
:1039300030603868D4F8CC17401A38606FF0010056
:1039400026E7002733E04B4602AA29462046DDF849
:103950000880CDE900670FF013FA04EBC603029A62
:1039600003EB8703C8EBC0011144D3F8E0370544EB
:103970005B1AA9EB0108002801DB984502DA6FF019
:10398000070005E7914602AA29462046CDE90067CF
:103990000DF03EFF002802DA6FF00800F8E605445B
:1039A0000299C9EBC0000144A8EB01097F1CD4F8BF
:1039B000BC07B842C7DC314620460EF0F7F80028B5
:1039C00002DA6FF00900E3E600270AE03A463146E2
:1039D00020460EF05DFD002802DA6FF00A00D7E6FF
:1039E0007F1CD4F8BC07B842F0DCD4F8BC17D4F87C
:1039F000C80748430699704301EB400120460FF089
:103A000049F8002802DA6FF00B00C1E6761CD4F802
:103A1000C407B04295DC0020BAE6024610B500208B
:103A20000723491E0AE0145CE44314F0FF0F04D19D
:103A300014186478B3EB541F04D0401C8842F2DBA6
:103A40004FF0FF3010BD002801D00EF0FEBC7047D3
:103A500018B1D0F8D027032A08D0002008604860A9
:103A60008860C8600861486188617047D0F8B827ED
:103A70000A60D0F8BC274A60D0F8C0278A601022BC
:103A8000CA6090F8D4270F4B02EB420203EB4202CC
:103A9000D0F8D03702EB4302D0F8BC3732F9022C11
:103AA0005A430A61D0F8D0274A6190F8D42700F52C
:103AB000F7608A61D0E9032340685A434243CA61F0
:103AC00070470000160D04080DF044BE00BFFEE76D
:103AD00070B505460E4614460448406918B10348BF
:103AE000416920468847002070BD0000104A01202F
:103AF00070B505460E4614460448406818B10348A0
:103B0000416820468847002070BD0000104A01200F
:103B100070B505460E4614460448006818B10348BF
:103B2000016820468847002070BD0000104A01202F
:103B300070B505460E4614460448806818B103481F
:103B4000816820468847002070BD0000104A01208F
:103B500070B505460E4614460448C06818B10348BF
:103B6000C16820468847002070BD0000104A01202F
:103B700070B505460E4614460448006918B103485E
:103B8000016920468847002070BD0000104A0120CE
:103B9000704708B54FF4A06000F05AF836208DF851
:103BA000000000208DF8010001208DF802008DF842
:103BB0000300684600F010F837208DF80000002060
:103BC0008DF8010001208DF802008DF80300684691
:103BD00000F002F808BD000070B5002100230F229C
:103BE000C4781CB3174C246804F4E064C4F5E064A2
:103BF000C4F30721C1F10404E3B20A4144789C40B4
:103C0000E1B28478144021430C07210E0E4C057854
:103C10006155047804F01F050124AC4005786D114E
:103C2000AD0005F1E025C5F8004109E0047804F095
:103C30001F050124AC40054D0678761145F8264055
:103C400070BD00000CED00E000E400E080E100E069
:103C500002490143024A1160704700000000FA0562
:103C60000CED00E07047000070B5054600244FF4ED
:103C70008061064802F062F90446002C04DDA2B21D
:103C80000249034802F048F970BD0000580A0020BC
:103C90004806002030B58BB0054632480078002831
:103CA0005DD000202F49087008202F4908702F4947
:103CB0000968D1F80200022202A90AF0FFFB02A85B
:103CC00000902A480068437828480068027828A1B4
:103CD0002F48FCF733FF2F48007CFF2816D02D48D3
:103CE000007C00902B48C068007800EB80002A49D7
:103CF00001EB8003264A29A11046FCF71FFF254847
:103D00004069411C2248FDF736F819E02148407807
:103D1000FF2815D01F48407800901E48C0690078E1
:103D200000EB8000214901EB8003194A1BA11046DA
:103D3000FCF704FF17484068411C1548FDF71BF8C5
:103D400013491B4801F0C0FA1148FCF7F5FF401C6D
:103D500084B20AAB22460E49154801F009FB0BB0AC
:103D600030BD0000D4010020D8010020BC0100209B
:103D70005245433D25642C4D555349433D25642C04
:103D800049445F464C41473D25730D0A0000000041
:103D9000580E00203C170020BC36010825735B2517
:103DA000733A494425645D20000000005C37010837
:103DB0004806002008B50A68120E8DF800200A682F
:103DC000120C8DF801200A88120A8DF802200A7858
:103DD0008DF8032002789DF800305A400270027975
:103DE0009DF801305A400271027A9DF802305A4023
:103DF0000272027B9DF803305A4002734A68120E29
:103E00008DF800204A68120C8DF801208A88120A69
:103E10008DF802200A798DF8032042789DF8003051
:103E20005A40427042799DF801305A404271427ABC
:103E30009DF802305A404272427B9DF803305A404E
:103E400042738A68120E8DF800208A68120C8DF871
:103E500001200A89120A8DF802200A7A8DF80320BF
:103E600082789DF800305A40827082799DF8013046
:103E70005A408271827A9DF802305A408272827B67
:103E80009DF803305A408273CA68120E8DF80020E4
:103E9000CA68120C8DF801208A89120A8DF8022056
:103EA0000A7B8DF80320C2789DF800305A40C2701A
:103EB000C2799DF801305A40C271C27A9DF8023031
:103EC0005A40C272C27B9DF803305A40C27308BD8B
:103ED0002DE9F043BDB00746884614469946449DF7
:103EE0009FB1B8F1000F10D0B9F1000F0DD0E1175C
:103EF00004EB11710911A4EB011131B9802D09D026
:103F0000C02D07D0B5F5807F04D040F2CB310CA096
:103F100001F0FCFA2A4601A9484600F0D5FB00262C
:103F200009E008EB0601B8192B4601AA00F030FEA3
:103F300006F1100086B2A642F3DB3DB0BDE8F08387
:103F40002E2E5C2E2E5C2E2E5C555345525C7073CB
:103F5000646B5F636F72655C7372635C7073646BD8
:103F60005F6165732E6300002DE9F043BDB0074625
:103F7000884614469946449D9FB1B8F1000F10D071
:103F8000B9F1000F0DD0E11704EB11710911A4EB89
:103F9000011131B9802D09D0C02D07D0B5F5807F32
:103FA00004D04FF46F710CA001F0B0FA2A4601A9B9
:103FB000484600F089FB002609E008EB0601B81925
:103FC0002B4601AA00F021FF06F1100086B2A6429E
:103FD000F3DB3DB0BDE8F0832E2E5C2E2E5C2E2E42
:103FE0005C555345525C7073646B5F636F72655CC4
:103FF0007372635C7073646B5F6165732E63000042
:1040000008B501788DF8001001798DF80110017A5A
:104010008DF80210017B8DF803109DF8001001EB64
:104020004101FE4A02EB41014979017001789DF896
:10403000012002EB4202F94B03EB4202D2785140DD
:10404000017001789DF8022002EB420203EB42026C
:1040500012795140017001789DF8032002EB420271
:1040600003EB42029278514001709DF8001001EB81
:1040700041011A4602EB41018978017101799DF8ED
:10408000012002EB420203EB4202527951400171DE
:1040900001799DF8022002EB420203EB4202D27842
:1040A0005140017101799DF8032002EB420203EBBC
:1040B00042021279514001719DF8001001EB41015B
:1040C0001A4602EB410109790172017A9DF801203B
:1040D00002EB420203EB4202927851400172017AF4
:1040E0009DF8022002EB420203EB4202527951405A
:1040F0000172017A9DF8032002EB420203EB4202B7
:10410000D278514001729DF8001001EB41011A462E
:1041100002EB4101C9780173017B9DF8012002EB9C
:10412000420203EB4202127951400173017B9DF878
:10413000022002EB420203EB4202927851400173EB
:10414000017B9DF8032002EB420203EB420252790D
:104150005140017341788DF8001041798DF80110BC
:10416000417A8DF80210417B8DF803109DF8001004
:1041700001EB41011A4602EB410149794170417856
:104180009DF8012002EB420203EB4202D27851403B
:10419000417041789DF8022002EB420203EB42029B
:1041A00012795140417041789DF8032002EB4202A0
:1041B00003EB42029278514041709DF8001001EBF0
:1041C00041011A4602EB41018A78427141799DF81A
:1041D000012002EB420203EB42025279514041714D
:1041E00041799DF8022002EB420203EB4202D278B1
:1041F0005140417141799DF8032002EB420203EBEB
:1042000042021279514041719DF8001001EB4101C9
:104210001A4602EB41010A794272417A9DF8012067
:1042200002EB420203EB4202927851404172417A22
:104230009DF8022002EB420203EB42025279514008
:104240004172417A9DF8032002EB420203EB4202E5
:10425000D278514041729DF8001001EB41011A469D
:1042600002EB4101CA784273417B9DF8012002EBC9
:10427000420203EB4202127951404173417B9DF8A7
:10428000022002EB420203EB42029278514041735A
:10429000417B9DF8032002EB420203EB420252797C
:1042A0005140417381788DF8001081798DF80110AB
:1042B000817A8DF80210817B8DF803109DF8001033
:1042C00001EB41011A4602EB410149798170817885
:1042D0009DF8012002EB420203EB4202D2785140EA
:1042E000817081789DF8022002EB420203EB4202CA
:1042F00012795140817081789DF8032002EB4202CF
:1043000003EB42029278514081709DF8001001EB5E
:1043100041011A4602EB41018A78827181799DF848
:10432000012002EB420203EB4202527951408171BB
:1043300081799DF8022002EB420203EB4202D2781F
:104340005140817181799DF8032002EB420203EB19
:1043500042021279514081719DF8001001EB410138
:104360001A4602EB41010A798272817A9DF8012096
:1043700002EB420203EB4202927851408172817A51
:104380009DF8022002EB420203EB420252795140B7
:104390008172817A9DF8032002EB420203EB420214
:1043A000D278514081729DF8001001EB41011A460C
:1043B00002EB4101CA788273817B9DF8012002EBF8
:1043C000420203EB4202127951408173817B9DF8D6
:1043D000022002EB420203EB4202927851408173C9
:1043E000817B9DF8032002EB420203EB42025279EB
:1043F00051408173C1788DF80010C1798DF801109A
:10440000C17A8DF80210C17B8DF803109DF8001061
:1044100001EB41011A4602EB410101E02C1B0408AB
:104420004979C170C1789DF8012002EB420203EB8B
:104430004202D2785140C170C1789DF8022002EB4F
:10444000420203EB420212795140C170C1789DF8DB
:10445000032002EB420203EB420292785140C1700A
:104460009DF8001001EB41011A4602EB41018A78E8
:10447000C271C1799DF8012002EB420203EB4202B6
:1044800052795140C171C1799DF8022002EB42027C
:1044900003EB4202D2785140C171C1799DF80320EB
:1044A00002EB420203EB420212795140C1719DF8C6
:1044B000001001EB41011A4602EB41010A79C27278
:1044C000C17A9DF8012002EB420203EB420292788E
:1044D0005140C172C17A9DF8022002EB420203EB07
:1044E000420252795140C172C17A9DF8032002EB19
:1044F000420203EB4202D2785140C1729DF8001093
:1045000001EB41011A4602EB4101CA78C273C17B3B
:104510009DF8012002EB420203EB42021279514066
:10452000C173C17B9DF8022002EB420203EB420201
:1045300092785140C173C17B9DF8032002EB420287
:1045400003EB420252795140C17308BDC1798379AE
:10455000C37143798371037943710171C17A437ADD
:10456000C3724172817A037A83720172C17B037BC9
:10457000C373427B0273837B437381737047000074
:10458000017809114F4A02EB0111027802F00F0283
:10459000895C0170417809114A4A02EB01114278A5
:1045A00002F00F02895C417081780911454A02EBE3
:1045B0000111827802F00F02895C8170C1780911C3
:1045C000404A02EB0111C27802F00F02895CC1700F
:1045D000017909113B4A02EB0111027902F00F0245
:1045E000895C017141790911364A02EB0112417966
:1045F00001F00F01525C427181790911314A02EBDD
:104600000112817901F00F01525C8271C1790911A7
:104610002C4A02EB0112C17901F00F01525CC27108
:10462000017A0911274A02EB0111027A02F00F0206
:10463000895C0172417A0911224A02EB0112417A26
:1046400001F00F01525C4272817A09111D4A02EB9E
:104650000112817A01F00F01525C8272C17A091154
:10466000184A02EB0112C17A01F00F01525CC272CA
:10467000017B0911134A02EB0111027B02F00F02C8
:10468000895C0173417B09110E4A02EB0112417BE7
:1046900001F00F01525C4273817B0911094A02EB60
:1046A0000112817B01F00F01525C8273C17B091101
:1046B000044A02EB0112C17B01F00F01525CC2738C
:1046C000704700002C1A04082DE9F04F8FB0064601
:1046D0000F4692464FF0040B3C2235496846FCF7E2
:1046E000DDFBBAF1800F06D0BAF1C00F07D0BAF5E2
:1046F000807F0CD107E04FF00A0804250AE04FF054
:104700000C08062506E04FF00E08082502E00FB061
:10471000BDE8F08F00BF002413E016F82400010666
:10472000A000401C305C41EA0041A000801C305CCD
:1047300041EA0020A100C91C715C084347F824002D
:10474000641CAC42E9DB2C4629E0601E57F820903F
:1047500094FBF5F005FB104068B94FEA092141EAE6
:10476000196000F059FD611E91FBF5F15DF8211013
:1047700080EA01090BE0062D09DD94FBF5F005FB4D
:104780001040042803D1484600F046FD8146601BD6
:1047900057F8200080EA090047F82400641C08F15B
:1047A00001000BFB00F0A042CFDC00BFAFE7000030
:1047B0002C21040808B501788DF8001001798DF8D6
:1047C0000110017A8DF80210017B8DF803109DF81D
:1047D000001001EB4101ED4A12F81110017001784F
:1047E0009DF8012002EB4202E84B03EB42025278B3
:1047F0005140017001789DF802205140017001780C
:104800009DF80320514001709DF80010017101795D
:104810009DF8012002EB420213F812205140017171
:1048200001799DF8022002EB420203EB420252782A
:104830005140017101799DF80320514001719DF8AB
:1048400000100172017A9DF8012051400172017A35
:104850009DF8022002EB420213F81220514001722F
:10486000017A9DF8032002EB420203EB42025278E8
:10487000514001729DF8001001EB41011A4602EB14
:10488000410149780173017B9DF80120514001737A
:10489000017B9DF8022051400173017B9DF80320AC
:1048A00002EB420213F812205140017341788DF857
:1048B000001041798DF80110417A8DF80210417B8A
:1048C0008DF803109DF8001001EB41011A4612F813
:1048D0001110417041789DF8012002EB420203EB78
:1048E000420252785140417041789DF80220514077
:1048F000417041789DF80320514041709DF800209F
:10490000427141799DF8012002EB420213F8122016
:104910005140417141799DF8022002EB420203EBC4
:10492000420252785140417141799DF80320514033
:1049300041719DF800204272417A9DF8012051405A
:104940004172417A9DF8022002EB420213F81220D4
:1049500051404172417A9DF8032002EB420203EB81
:1049600042025278514041729DF8001001EB410122
:104970001A4602EB41014A784273417B9DF80120BF
:1049800051404173417B9DF8022051404173417B6E
:104990009DF8032002EB420213F8122051404173AC
:1049A00081788DF8001081798DF80110817A8DF869
:1049B0000210817B8DF803109DF8001001EB41017E
:1049C0001A4612F81110817081789DF8012002EBCF
:1049D000420203EB420252785140817081789DF887
:1049E00002205140817081789DF8032051408170F0
:1049F0009DF80020827181799DF8012002EB42022E
:104A000013F812205140817181799DF8022002EB48
:104A1000420203EB420252785140817181799DF844
:104A20000320514081719DF800208272817A9DF8A7
:104A3000012051408172817A9DF8022002EB4202EE
:104A400013F8122051408172817A9DF8032002EB05
:104A5000420203EB42025278514081729DF80010ED
:104A600001EB41011A4602EB41014A788273817BD6
:104A70009DF8012051408173817B9DF802205140B7
:104A80008173817B9DF8032002EB420213F8122010
:104A900051408173C1788DF80010C1798DF80110F3
:104AA000C17A8DF80210C17B8DF803109DF80010BB
:104AB00001EB41011A4612F81110C170C1789DF83E
:104AC000012002EB420203EB420252785140C170D6
:104AD000C1789DF802205140C170C1789DF8032033
:104AE0005140C1709DF80020C271C1799DF801202C
:104AF00002EB420213F812205140C171C1799DF8B6
:104B0000022002EB420203EB420252785140C17193
:104B1000C1799DF803205140C1719DF80020C272F7
:104B2000C17A9DF801205140C172C17A9DF80220DE
:104B300002EB420213F812205140C172C17A9DF873
:104B4000032002EB420203EB420252785140C17251
:104B50009DF8001001EB41011A4602EB41014A7831
:104B6000C273C17B9DF801205140C173C17B9DF888
:104B700002205140C173C17B9DF8032002EB420229
:104B800013F812205140C17308BD00002C1B04080B
:104B90002DE9FF4105460E4614461F4628788DF83C
:104BA000000068788DF80400A8788DF80800E8788F
:104BB0008DF80C0028798DF8010069798DF80510C1
:104BC000A9798DF80910E9798DF80D10287A8DF8FA
:104BD0000200697A8DF80610A97A8DF80A10E97A30
:104BE0008DF80E10287B8DF80300697B8DF8071077
:104BF000A97B8DF80B10E97B8DF80F10802F45DD18
:104C0000C02F21DD04F1E0016846FFF7D3F86846C4
:104C1000FFF79CFC6846FFF7B3FC04F1D00168463F
:104C2000FFF7C8F86846FFF7EBF96846FFF78EFC18
:104C30006846FFF7A5FC04F1C0016846FFF7BAF823
:104C40006846FFF7DDF904E004F1C0016846FFF7AC
:104C5000B1F86846FFF77AFC6846FFF791FC04F16B
:104C6000B0016846FFF7A6F86846FFF7C9F968463D
:104C7000FFF76CFC6846FFF783FC04F1A00168466F
:104C8000FFF798F86846FFF7BBF904E004F1A001CC
:104C90006846FFF78FF86846FFF758FC6846FFF74D
:104CA0006FFC04F190016846FFF784F86846FFF74F
:104CB000A7F96846FFF74AFC6846FFF761FC04F174
:104CC00080016846FFF776F86846FFF799F968466D
:104CD000FFF73CFC6846FFF753FC04F1700168469F
:104CE000FFF768F86846FFF78BF96846FFF72EFC78
:104CF0006846FFF745FC04F160016846FFF75AF883
:104D00006846FFF77DF96846FFF720FC6846FFF725
:104D100037FC04F150016846FFF74CF86846FFF78E
:104D20006FF96846FFF712FC6846FFF729FC04F1AB
:104D300040016846FFF73EF86846FFF761F96846AC
:104D4000FFF704FC6846FFF71BFC04F130016846DE
:104D5000FFF730F86846FFF753F96846FFF7F6FBB0
:104D60006846FFF70DFC04F120016846FFF722F8C2
:104D70006846FFF745F96846FFF7E8FB6846FFF726
:104D8000FFFB04F110016846FFF714F86846FFF7CF
:104D900037F96846FFF7DAFB6846FFF7F1FB214673
:104DA0006846FFF707F89DF8000030709DF8040092
:104DB00070709DF80800B0709DF80C00F0709DF8C0
:104DC000010030719DF8050070719DF80900B07107
:104DD0009DF80D00F0719DF8020030729DF80600FC
:104DE00070729DF80A00B0729DF80E00F0729DF886
:104DF000030030739DF8070070739DF80B00B073CB
:104E00009DF80F00F073BDE8FF812DE9FF410546D5
:104E10000E4614461F4628788DF8000068788DF8F5
:104E20000400A8788DF80800E8788DF80C0028793F
:104E30008DF8010069798DF80510A9798DF80910B0
:104E4000E9798DF80D10287A8DF80200697A8DF8CD
:104E50000610A97A8DF80A10E97A8DF80E10287BD1
:104E60008DF80300697B8DF80710A97B8DF80B1076
:104E7000E97B8DF80F1021466846FEF79BFF6846D8
:104E800000F026F9684600F009F96846FFF792FC41
:104E900004F110016846FEF78DFF684600F018F92E
:104EA000684600F0FBF86846FFF784FC04F1200137
:104EB0006846FEF77FFF684600F00AF9684600F092
:104EC000EDF86846FFF776FC04F130016846FEF71E
:104ED00071FF684600F0FCF8684600F0DFF86846AD
:104EE000FFF768FC04F140016846FEF763FF68467F
:104EF00000F0EEF8684600F0D1F86846FFF75AFC7B
:104F000004F150016846FEF755FF684600F0E0F8EE
:104F1000684600F0C3F86846FFF74CFC04F16001F6
:104F20006846FEF747FF684600F0D2F8684600F092
:104F3000B5F86846FFF73EFC04F170016846FEF7DD
:104F400039FF684600F0C4F8684600F0A7F86846E4
:104F5000FFF730FC04F180016846FEF72BFF68463E
:104F600000F0B6F8684600F099F86846FFF722FCB2
:104F700004F190016846FEF71DFF802F51D068466E
:104F800000F0A6F8684600F089F86846FFF712FCC2
:104F900004F1A0016846FEF70DFF684600F098F89E
:104FA000684600F07BF86846FFF704FC04F1B001A6
:104FB0006846FEF7FFFEC02F27D0684600F088F84D
:104FC000684600F06BF86846FFF7F4FB04F1C00197
:104FD0006846FEF7EFFE684600F07AF8684600F093
:104FE0005DF86846FFF7E6FB04F1D0016846FEF77E
:104FF000E1FE684600F06CF8684600F04FF804F1F6
:10500000E0016846FEF7D6FE16E0684600F060F85C
:10501000684600F043F804F1C0016846FEF7CAFE96
:105020000AE0684600F054F8684600F037F804F1EA
:10503000A0016846FEF7BEFE9DF8000030709DF8A6
:10504000040070709DF80800B0709DF80C00F070BE
:105050009DF8010030719DF8050070719DF8090000
:10506000B0719DF80D00F0719DF8020030729DF84E
:10507000060070729DF80A00B0729DF80E00F07282
:105080009DF8030030739DF8070070739DF80B00C6
:10509000B0739DF80F00F073BDE8FF81017942798C
:1050A000027183794371C3798371C171017A827A04
:1050B00002728172417AC37A4372C172017BC27BF0
:1050C0000273837BC373437B837341737047000018
:1050D000017809114F4A02EB0111027802F00F0228
:1050E000895C0170417809114A4A02EB011142784A
:1050F00002F00F02895C417081780911454A02EB88
:105100000111827802F00F02895C8170C178091167
:10511000404A02EB0111C27802F00F02895CC170B3
:10512000017909113B4A02EB0111027902F00F02E9
:10513000895C017141790911364A02EB011241790A
:1051400001F00F01525C427181790911314A02EB81
:105150000112817901F00F01525C8271C17909114C
:105160002C4A02EB0112C17901F00F01525CC271AD
:10517000017A0911274A02EB0111027A02F00F02AB
:10518000895C0172417A0911224A02EB0112417ACB
:1051900001F00F01525C4272817A09111D4A02EB43
:1051A0000112817A01F00F01525C8272C17A0911F9
:1051B000184A02EB0112C17A01F00F01525CC2726F
:1051C000017B0911134A02EB0111027B02F00F026D
:1051D000895C0173417B09110E4A02EB0112417B8C
:1051E00001F00F01525C4273817B0911094A02EB05
:1051F0000112817B01F00F01525C8273C17B0911A6
:10520000044A02EB0112C17B01F00F01525CC27330
:10521000704700002C1904080146144AC1F3031317
:1052200002EB031201F00F03D05C104AC1F3033309
:1052300002EB0312C1F30323D25C00EB02200B4A02
:10524000C1F3035302EB0312C1F30343D25C00EB3F
:1052500002400F2202EA1172044B03EB0212C1F367
:105260000363D25C00EB0260704700002C19040855
:105270003EB5054602208DF800000D48019006203D
:10528000ADF8080000200B4908600B4908600B4985
:1052900008700B4908600B4908606946284600F011
:1052A00089FD04460CB120463EBD0020FCE700000D
:1052B000B0240408080600200C0600201006002078
:1052C00014060020180600203EB505460C46204670
:1052D000FBF732FD401C802801D905203EBD00208F
:1052E0008DF800008DF8010001208DF802000220E9
:1052F0008DF8060003208DF807002046FBF71CFD03
:10530000401C80B2ADF80800284600F066FAADF8FF
:10531000040022466946284600F08DFD08B1FF20B2
:10532000DCE70020DAE700000246024801600020C6
:105330007047000014060020024602480160002069
:105340007047000018060020024602480160002055
:105350007047000008060020034603480270034817
:105360000160002070470000100600200C0600209D
:105370002DE9FE4F82460E4614461F462046E11791
:1053800004EB5161C911A4EBC1111FFA81F8E117B7
:1053900004EB5161C1F3CF1B00208DF800008DF8A4
:1053A000010001208DF8020002208DF806008DF822
:1053B000070035468020ADF808004FF0000912E0E4
:1053C000504600F00AFAADF804002A4669465046F5
:1053D00000F031FD20B1A81B3880FF20BDE8FE8F12
:1053E000803509F10109D945EADBB8F1000F11D088
:1053F000ADF80880504600F0F0F9ADF804002A46F8
:105400006946504600F017FD18B1A81B3880FF20F0
:10541000E4E74544A81B38800020DFE72DE9F0478A
:10542000044689461CB988210FA000F06FF843F6A6
:10543000DE752646341E13D04FF000080EE0377894
:1054400085EA070A0AF0FF00114931F8100080EAE6
:105450002525761C08F101001FFA80F8C845EEDB0F
:105460002846BDE8F08700002E2E5C2E2E5C2E2EE6
:105470005C555345525C7073646B5F636F72655C1F
:105480007372635C7073646B5F6372632E6300009E
:10549000682204082DE9F047054689461DB9A12177
:1054A0000FA000F033F84FF0FF342E46351E13D016
:1054B0004FF000080EE0377884EA070A0AF0FF0090
:1054C000114951F8200080EA1424761C08F10100EB
:1054D0001FFA80F8C845EEDBE4432046BDE8F087BC
:1054E0002E2E5C2E2E5C2E2E5C555345525C707316
:1054F000646B5F636F72655C7372635C7073646B23
:105500005F6372632E6300000802002008B5044642
:105510000D462346034A114603A0009503F062FBA3
:1055200000BFFEE7682404085B44656275675D5B45
:1055300025735D5B4572726F725D5B25735D4173B0
:1055400073657274204572726F7220212066696CD7
:1055500065203D202573202C206C696E65203D2040
:1055600025750D0A0D0A00003EB5044618210848AD
:10557000FBF7E8FC03208DF80000064801900620A8
:10558000ADF808006946204600F014FC3EBD00005E
:10559000104A01201C25040870B505460C46182247
:1055A00021460248FBF77AFC002070BD104A01201A
:1055B000F0B59DB004460D461746712600208DF8C3
:1055C000000020220D490DF10100FBF7E0FB102245
:1055D0000A4921310DF12100FBF7D9FB402207498F
:1055E00053310DF13100FBF7D2FB33466A462946B1
:1055F000204600F040FC1DB0F0BD0000284A01200C
:105600002DE9FC4104460D461746052600208DF87D
:1056100000008DF8010000218DF8021001218DF8A5
:1056200003108DF8041033466A462946204600F0E0
:1056300022FCBDE8FC8100002DE9F047AAB0074636
:105640008846144625464FF011092846FBF774FB9F
:105650000C2803D801208DF8940022E018AE1548DC
:10566000FBF76AFB824652461249304602F086FB3F
:10567000064610222946304602F080FB0646684660
:1056800009F036F918A8321A18A9684609F084FEFC
:105690000DF19501684609F0B5F800208DF89400E9
:1056A00000BF4B4625AA4146384600F0E4FB2AB02D
:1056B000BDE8F0875A4A0120F0B589B006460C468D
:1056C00015462089401C87B200208DF800002289F1
:1056D00029460DF10100FBF75AFB3B466A4621467D
:1056E000304600F0C8FB09B0F0BD2DE9F047044694
:1056F0000E461746B4F8100128B9AA2E03D04FF071
:10570000FF30BDE8F087B4F810012654B4F810015A
:10571000401CA4F81001B4F81001032852DBB4F8BF
:105720000100C0F30905A0784FEA9008102D05D3B9
:10573000B5F5887F02D8B8F1000F05D0204600F0FB
:1057400044F86FF00100DCE7B4F810010C280ED12A
:105750000A212046FFF762FE81466089484505D050
:10576000204600F032F86FF00200CAE700BFB4F83C
:105770001001A8421CD1281F81B22046FFF78AFEE3
:105780008146B4F80100C0F30900204450F8040C2D
:10579000484505D0204600F018F86FF00300B0E748
:1057A0003C6000BF0020A4F8100100BF2846A8E715
:1057B000B4F81001A84205DD204600F006F86FF0AD
:1057C00001009EE74FF0FF309BE70021A0F8101189
:1057D00070470021A0F8101170470146B1F834025B
:1057E000B1F83422521CA1F8342270472DE9F04759
:1057F00098B00446884617462046FBF79DFA824635
:1058000004F12100FBF798FA824404F13200FBF71F
:1058100093FA824404F15300FBF78EFA50441FFAC6
:1058200080F92A4E35461EB9012018B0BDE8F08730
:105830002046FBF781FA8246524621462846FBF76E
:10584000A6FA2046FBF778FA054404F12100FBF79D
:1058500073FA8246524604F121012846FBF797FA73
:1058600004F12100FBF768FA054404F13200FBF76C
:1058700063FA8246524604F132012846FBF787FA62
:1058800004F13200FBF758FA054404F15300FBF72A
:1058900053FA8246524604F153012846FBF777FA41
:1058A00004F15300FBF748FA0544684609F020F874
:1058B000AA1B3146684609F06FFD4146684608F06C
:1058C000A1FF802038800020AFE700004849012078
:1058D0002DE9F84304460F4690464FF00009002595
:1058E00056E005EB450104F5537010F82100B97935
:1058F000884200D04BE000263EE005EB450104F570
:10590000537000EB8100406800EBC6004078F979E5
:10591000884230D105EB450104F5537000EB81005E
:10592000406810F83600B979884224D105EB45016A
:1059300004F5537000EB8100406800EBC60040683E
:10594000C8B14FF0010905EB450104F5537000EBB8
:105950008100406800EBC600424639464368204655
:10596000984738B1F8790090BB79164A1146164825
:1059700003F038F909E0761C05EB450104F5537096
:1059800000EB81000089B042B7DC00BF04E06D1C71
:10599000B4F80C04A842A4DC00BFB9F1000F0ED18A
:1059A0000220009001236A463946204600F063FA3F
:1059B00020B1044A114605A003F014F900BFBDE868
:1059C000F88300007F240408F42904085B4465621E
:1059D00075675D5B25735D5B5761726E5D5B2573FB
:1059E0005D50726F742048616E646C653A20536537
:1059F0006E642041636B204572726F7221200D0A24
:105A00000D0A0D0A00000000FEB504460E4604F51E
:105A10009A736A463146204600F013F805460DB1E8
:105A20002846FEBD9DF80000012808D09DF8000022
:105A300028B904F59A7269462046FFF749FF00200D
:105A4000EFE72DE9F84307460C46154698462646EB
:105A5000B6F80100C0F3090010381FFA80F9F07899
:105A6000C0F340102870F07800F01F0068703079A3
:105A70004009A8703089A880B079A871F079E871E0
:105A8000307900F01F00A9EB00002881B9F1000F68
:105A900012D0A878012809D1388C3B464A464146A5
:105AA000009004F10C00FEF713FA05E02A8904F1D6
:105AB0000C014046FBF76BF90020BDE8F8830000BD
:105AC0002DE9FF4F83B082468846154644462E890D
:105AD000A87818B937464FF0000B1DE0A8780128C8
