:020000040800F2
:10000000F8050020D5000008B90A00085F0A0008BA
:1000100000000000000000000000000000000000E0
:10002000000000000000000000000000A10E000819
:1000300000000000000000000D0B0008A50E0008E5
:100040000501000805010008050100080501000878
:100050000501000805010008050100080501000868
:100060000501000805010008050100080501000858
:100070000501000805010008050100080501000848
:100080000501000800000000000000000501000854
:100090000000000005010008050100080501000836
:1000A0000000000005010008050100080501000826
:1000B0000501000800000000B9070008050100085C
:1000C0000348854600F052F80048004749120008EE
:1000D000F80500200C4880F308880C480168090ED8
:1000E0000B4A914205D10B480B4901600B480C4962
:1000F00001600C4880470C480047FEE7FEE7FEE73A
:10010000FEE7FEE7FEE70000F8050020040000001F
:100110001F00000018100240010000000000014014
:1001200000000000010F0008C100000830B50B46B8
:10013000014600202022012409E00D46D5409D42C1
:1001400005D31D469540491B254695404019154647
:10015000521E002DF1DC30BD0321001D401E03782E
:1001600012021A43491EF9D510467047064C012564
:10017000064E05E0E36807CC2B430C3C984710344F
:10018000B442F7D3FFF7A0FFF814000818150008D1
:1001900030B53C4D93B0284600F09AF80121480450
:1001A00000F0B6FC0121480200F0D6FC012108460F
:1001B00000F0AEFC1F20069003206946087700245B
:1001C000CC7706A9680400F0F7FB684600F0D1F888
:1001D000694600940C71029404942846059400F03A
:1001E000ADF807220121284600F052F8072202212B
:1001F000284600F04DF807220421284600F048F870
:1002000007220821284600F043F80722102128463B
:1002100000F03EF8284600F06BF80221284600F076
:100220004FF80121284600F041F80121284600F04E
:1002300034F80121284600F072F80028F9D0124D58
:10024000284600F03BFB0F480A94403008900F48C6
:10025000099032200B9080200D9040000E9080007D
:100260000F90202010900C940002119008A9129475
:10027000284600F083FB0121284600F013FB13B051
:1002800030BD000000240140080002405E01002053
:10029000836A0B438362426170470029816801D001
:1002A000012200E002221143816070470029C168E9
:1002B00002D00122114301E049084900C1607047A2
:1002C000C26802239A43C260C2680A43C260704790
:1002D000064910B5884208D144150121204600F096
:1002E00047FC0021204600F043FC10BD00240140E3
:1002F000826800210123DB071A4382600F231B035E
:100300008268491CD20FD207994201D0002AF7D146
:100310008168002901DB006C7047002070470246AD
:100320000020CB0104D5926801231B069A4300E00C
:1003300012680A4200D001207047000030B5C26840
:10034000084B8C681A400B680D792343CC686D0309
:100350002C4323430C69496923430B431343C36074
:1003600030BD000003D2FFFF816804221143816089
:1003700070470021016001718160C16001614161CC
:1003800070470000064A05485188405C491C89B204
:100390005180FE2901D1002151807047600000206A
:1003A0002C000020044801884088814201D10020AF
:1003B00070470120704700002C00002010B501217B
:1003C0004C06204600F0BCFB0021204600F0B8FBA4
:1003D00010BD000070B50446817A012005462B4E01
:1003E0008D40316801433160F069A843F061207BA2
:1003F000002812D1F068A843F060E088618800040A
:100400000843A17AC90089190864A08821880004DA
:100410000843A17AC90089194864207B012814D1B6
:10042000F0682843F0602046FFF796FE1021C8418F
:10043000A17AC90089190864201DFFF78DFE1021DB
:10044000C841A17AC90089194864E07A0028706817
:1004500005D0284370602089002802D004E0A8431A
:10046000F8E77069A84370612089012802D170699A
:1004700028437061607B012802D1F0692843F06154
:10048000306840084000306070BD000000660040E9
:10049000002A426901D00A4300E08A434261704762
:1004A00010B5036800220224A343036003680124FB
:1004B00023430360314B00E0521C4468E40701D140
:1004C0009A42F9D14268D2073ED08C798022012C21
:1004D00004683BD094430460CC794022012C04682A
:1004E00036D0944304600C7A2022012C046831D069
:1004F000944304604C7A1022012C04682CD094435D
:1005000004608C7A0822012C046827D0944304608C
:10051000CC7A0422012C046822D0944304608A78A7
:10052000CC789207240622430C79240422434C7988
:10053000098824052243491E0A43C261016849080B
:100540004900016000210EE0002010BD1443C2E705
:100550001443C7E71443CCE71443D1E71443D6E769
:100560001443DBE7491C4268D20701D09942F9D114
:100570004068C007E8D1012010BD0000FFFFFF0068
:10058000F1B501218AB0480400F0C2FA0121480601
:1005900000F0CAFA022669460E74002403208C7407
:1005A000C00203900125CD74032048740927FF067B
:1005B00003A9384600F000FA04220B21384600F067
:1005C00033FA04220C21384600F02EFA194F38462F
:1005D000FFF7F4FE69468C71CC7102940A9888701A
:1005E000CC70072008714E71082008803846FFF74C
:1005F00057FF08A98C70CD700D71FF2041306946FE
:1006000008834C838C83CC830C8408A94D7106A885
:10061000FFF7E0FE1E20694608754E758D7505A82A
:1006200000F04CFA012202213846FFF731FF00208A
:100630000BB0F0BD006400400B0130B51B18FF3358
:1006400081331C6B04252C4014721C6B29D0E408E8
:1006500054601C6B02252C4054725C6B2407240FE1
:1006600094725C6B240AD4749C6BD4729C6B240AC5
:1006700014739C6B240C54739C6B240E9473DC6B6E
:10068000D473DC6B240A1474DC6B240C5474DB6BA1
:100690001B0E93742022002906D0016911430161C9
:1006A00030BD640D1460D4E7C1681143C16030BD32
:1006B00030B50246936800205B0108D490680001C1
:1006C00001D5012003E09068C0002ED5022003016F
:1006D0009A18FF3281321368DB07DB0F13600B7A45
:1006E000002B24D014684D681C434B7AED002B433B
:1006F0001C4314608B7A1B071B0F8B7253681B09FA
:100700001B01536053688C7A23435360CB68CC7AC7
:100710001B02234393600B69C97B1B020B43D3600D
:10072000116801231943116030BD042030BD1368E6
:100730004C7A23430C88640523431360DAE70000F6
:100740000022002904D0012905D0022906D112E097
:100750008268134801E08268124802401249501A28
:100760008A4218D00ADC002A17D01048101811D07D
:10077000022810D10DE082680D48EEE7FF38FF38FF
:10078000801E06D00B49401804D00121490488423C
:1007900001D10120704700207047022070470000FF
:1007A000030000040003000800010008FFFFFFFB36
:1007B000000003100003FFF7F0B585B06A46002182
:1007C0001148FFF739FF00206E461049104A0746CE
:1007D000B57A0CE03318DB7A0C8813550B885B1C58
:1007E0000B800B88FE2B00D10F80401CC0B28542CD
:1007F000F0D88021074800F02EF907480068074923
:10080000086005B0F0BD0000006400402C0000202E
:1008100060000020000400483C0000204000002050
:10082000F0B585B00022A02300936C46019222729D
:100830006272A1726B4604E0845C9D18521CEC72DB
:1008400092B28A42F8D3124F19463846FFF730FF6A
:10085000064600240F4D01E0641CA4B23146384620
:10086000FFF76EFF002801D1AC42F5D3AC4205D3AF
:100870000020FFF785FE012005B0F0BD40210648AD
:1008800000F0E9F805480068054908600020F3E732
:1008900000640040FF0F0000000400483C000020FE
:1008A000440000200029016802D00122114301E028
:1008B000014A114001607047FEFF0000F0B5016879
:1008C0002B4A114001600021016041608160C160DC
:1008D0002849284A08390F2390422DD0254AF02470
:1008E000143290422FD0234A1D022832904231D038
:1008F000204E1A033C36B04203D1486815E04860E8
:10090000F0BD1C4F0F2650373604B8422DD0194F7A
:100910006437B84202D14868320106E0154F783793
:10092000B84204D148680F2212061043E7E7124983
:10093000114F0839B84202D148681843DFE70E4B1F
:100940001433984202D148682043D8E70A4B283331
:10095000984202D148682843D1E7074B3C3398427C
:10096000CBD0054A50329042CAD148683043C6E7DE
:10097000FEFF0000080002400804024030B5036892
:100980000C4A0C6A13408A684D6922430C692C4357
:1009900022438C692243CC6922434C6A22438C6AED
:1009A00022431A430260CA6842600A68826049684A
:1009B000C16030BD0F80FFFFF0B500220325012389
:1009C0000C6893401C409C422AD10C79012C01D028
:1009D000022C12D1876854002E46A640B743876088
:1009E0004E79A64084682643866084889C43848030
:1009F00084888B7993401C438480066853002C467E
:100A00009C40A64306600E7907689E403E43066000
:100A1000C668A643C660CC799C40C3681C43C460CA
:100A2000521C102ACBD3F0BD4B07DB0E9A40C908ED
:100A300010B589000818016A0F249C40A143016287
:100A4000016A1143016210BD0246128A00200A4267
:100A500000D0012070470185704781617047FEE733
:100A60001CB503200121400400F052F801206A4621
:100A700010710021917103215171D071C8200D4C6A
:100A8000009069462046FFF797FFC8212046FFF7F0
:100A9000E4FFC0200924E406009069462046FFF7E1
:100AA0008BFFC0212046FFF7D8FFFF20F53000F074
:100AB0008BFB1CBD000400487047000030B58278F5
:100AC00001240178002A15D08B080E4A9B009A1841
:100AD00013688907C90EFF258D40AB434578AD07E4
:100AE0002D0E8D401D4315600078C006C00E844059
:100AF000054804E0C806C00E844003488030046006
:100B000030BD000000E400E000E100E070470000BC
:100B1000044A0029516901D0014300E08143516139
:100B20007047000000100240044A0029D16901D03A
:100B3000014300E08143D161704700000010024092
:100B4000044A0029116901D0014300E08143116189
:100B50007047000000100240044A0029916901D04A
:100B6000014300E0814391617047000000100240A2
:100B7000044A0029D16801D0014300E08143D160DB
:100B8000704700000010024070B5002400F034F8F7
:100B9000012000F047F905252D0300E0641C012029
:100BA00000F014F9002801D1AC42F7D1012000F087
:100BB0000DF900281CD00F4911200860002000F01A
:100BC00027F9002000F03CF90521C904002000F0BD
:100BD0004FF9012000F03EF9192000F0F7F8002845
:100BE000FAD0022000F052F900F00AF90828FBD1EF
:100BF00070BD00000020024012480168012211432C
:100C000001604168104A1140416001680F4A11407B
:100C100001600168012292049143016041683F2212
:100C2000120491434160C16A09090901C162016B63
:100C3000074A11400163416B4908490041630021A3
:100C400081607047001002400CB8FF08FFFFF6FEFD
:100C5000ACFEF0FFF8B5564E0446706800210C2239
:100C6000544D104005D0042803D0082803D00C2888
:100C70001AD025601AE07168706803228902D203D5
:100C80000F0F1040BF1C00280AD0F06A0107090F9F
:100C90002846491CFFF74AFA78430146216005E0DF
:100CA000454839464143F9E7444820607068444F5D
:100CB0000006000F3B5C20680246DA406260736801
:100CC0005B055B0FFB5CDA40A260336BDB0501D494
:100CD0003C4B05E073685B0401D4530800E09308C3
:100CE000E360336B5F06384B03D4374F123727610D
:100CF00000E02361376BFF0601D4656100E06061AD
:100D0000376BBF070ED0376BBF07BF0F012F0BD05C
:100D1000376BBF07BF0F022F08D0376BFF43BF07EA
:100D200006D006E0A26104E0A06102E0A36100E059
:100D3000A561376BBF03BF0F0FD0376BBF03BF0F6A
:100D4000012F0CD0376BBF03BF0F022F09D0376BB9
:100D5000BF03BF0F032F06D006E0E26104E0E061AD
:100D600002E0E36100E0E561376B3F03BF0F0FD0A6
:100D7000326B1203920F012A0CD0306B0003800FEC
:100D8000022809D0306B0003800F032806D006E04C
:100D9000226204E0206202E0236200E02562306B00
:100DA000000602D405486062F8BD6162F8BD00002B
:100DB0000010024000127A0000093D00006CDC02C5
:100DC0001C000020809FD50000800000034600200A
:100DD0000A4A59090CD001290CD002290CD0516BB8
:100DE000DA06D20E012393400B4200D00120704757
:100DF0001168F5E7116AF3E7516AF1E70010024064
:100E0000024840680C210840704700000010024072
:100E1000034A5168F0239943014351607047000031
:100E20000010024005490028086802D00122104342
:100E300001E04008400008607047000000100240D8
:100E4000034A516807231B029943014351607047CD
:100E5000001002400122054912060028086801D04E
:100E6000104300E09043086070470000001002400B
:100E700010B5054A53687B24E403A34353605368C9
:100E800008430343536010BD00100240034A5168F9
:100E9000890889000143516070470000001002403A
:100EA0007047000002480168491E01607047000059
:100EB0003C00002070B50E487D21C9000D4C006833
:100EC000FFF734F90C4A0723401EA04201D9012143
:100ED0000BE05061094EF16903250902090AAD07CB
:100EE0002943F1610021916113610029EDD170BDA9
:100EF00008000020FFFFFF0000E000E004ED00E03C
:100F0000134801680122114301604168114A1140F0
:100F100041600168104A1140016001680122920499
:100F20009143016041683F22120491434160C16ACC
:100F300009090901C162016BFF2254329143016327
:100F4000416B4908490041630021816070470000FE
:100F5000001002400CB8FF08FFFFF6FE70B501213B
:100F600088B08803FFF7F8FD01214804FFF7D0FDA2
:100F70000921CE0601223046FFF756FD01220A2143
:100F80003046FFF751FD01204002009002256846DF
:100F900005710024847101214171C4716946304694
:100FA000FFF70AFD6802009068460571C471694642
:100FB0003046FFF701FDE1200794000203940494FA
:100FC000059402900C20084C069002A9204600F0DF
:100FD00019F80121204600F00BF84021204600F0CE
:100FE00005F808B070BD000000380140016270478C
:100FF0000029016802D00122114301E0490849009B
:101000000160704730B5044600688BB00D4640085B
:10101000400020606068032109038843A9680143F8
:10102000616020681C49EA680840696811432A69C0
:10103000024311432160A0680321090288436969C2
:101040000143A1606846FFF705FE1448844201D1C0
:1010500006980AE01248844201D1079805E0114839
:10106000844201D1089800E00298216809042968A7
:1010700000D54000FFF75AF82A6852088A4200D883
:10108000401C2168090404D50107074A490F104094
:101090000843A0810BB030BDF3E9FFFF00380140E9
:1010A0000044004000480040F0FF000030B47446A7
:1010B000641E2578641CAB4200D21D46635D5B0054
:1010C000E31830BC184702E008C8121F08C1002A04
:1010D000FAD170477047002001E001C1121F002AB9
:1010E000FBD1704770B5154C1549A08840181549BB
:1010F000884203D220891449884204D9092040211A
:10110000C006FFF7A8FCE0884B218901411A0F4A6D
:1011100000250F48914203D30821FFF79CFC0BE008
:1011200061897D22D200914206D92178491CC9B239
:1011300021700329F0D270BD257070BD30000020F1
:10114000C2D4FFFF9D090000581B000009070000E2
:101150000004004810B5002000F040F8094C608001
:10116000012000F03BF8A080022000F037F8E0807A
:10117000032000F033F82081042000F02FF8608174
:1011800010BD00003000002010B5FFF7B9FEFFF7DA
:10119000FBFCFFF78FFEFFF763FCFEF7F9FFFFF79D
:1011A000DDFE0020FFF7ECF910BD0A88134642402F
:1011B00010015040C0B21A0A03025A40C3005A40FC
:1011C000000942400A80704703490A680B68D31A35
:1011D0008342FBD3704700003C00002010B504465A
:1011E0000020154902468300C3181B195B00CB5A27
:1011F000401C9A18C0B20A28F5D30A211046FEF7FF
:1012000095FF2300FFF752FF05040B0F1313160081
:101210000A49484309218902FEF788FF0AE0084984
:101220004843800A06E007494843400A02E0A521F6
:101230004843C00980B210BD5E010020550901007D
:10124000F70D0000CB020000FFF79EFF2E4F2F4E40
:101250002F4D304C00F06CF838682168401A0A288D
:101260003CD3206838602C48FFF77EF80A212868B4
:10127000FEF75CFF002911D120687D21C0430901E0
:1012800088420BD9FFF766FF244821680068401A9E
:10129000FF21F531884201D9FFF724FF6421286836
:1012A000FEF744FF002916D120681D49C04388423B
:1012B00011D909208021C006FFF7C6FBB071F07973
:1012C000401CC0B2F071FF2801D10020F07108214C
:1012D0000E48FFF7A5FA2868401C286011480068EE
:1012E0002168401A322803D980210F48FFF7B5FB47
:1012F0000E4800682168401A3228ABD940210A48BC
:10130000FFF7ABFBA6E7000048000020000000202C
:101310004C0000203C000020002401405C00002024
:10132000B80B0000400000200004004844000020EA
:10133000F8B50927104CFF06104D114E11E0FFF7CC
:1013400021F8207001460D4800F01CF8012808D152
:1013500030686060687C012808D080213846FFF73B
:101360007AFBFFF71FF80128E9D0F8BD8021384645
:10137000FFF773FBF5E7000058000020C2010020D2
:101380003C00002070B5514D00246C702A78034653
:1013900023330126002A1AD0012A24D0022A29D078
:1013A000032A2CD0042A2FD0052A32D0062A37D07F
:1013B000072A3AD0082A46D0092A52D00A2A55D0FC
:1013C0000B2A61D00C2A68D00D2A72D073E0EB2969
:1013D00071D100220170D2431A73120A5A7300F0BD
:1013E00077F82E706BE0012965D1417000F070F83C
:1013F00002205AE0817000F06BF8032055E0C170C4
:1014000000F066F8042050E0017100F061F805205A
:101410004BE01E294FD1417100F05AF8062044E0FC
:10142000817100F055F807203FE0AA788218D17149
:1014300000F04EF8A878401CC0B2A87003283ED136
:10144000AC70082031E0EA788218917200F040F820
:10145000E878401CC0B2E870062830D1EC70092052
:1014600023E0017400F034F80A201EE02A79821883
:10147000517400F02DF82879401CC0B228711E2844
:101480001DD12C710B2010E0587B1A7B00021043F9
:10149000C0B288420FD10C2007E0587B1A7B0002B3
:1014A0001043000A884206D10D20287007E000E0B2
:1014B00001E0BE2905D02C70AC70EC702C716878FE
:1014C00070BD203041742C706E70F8E75000002021
:1014D00018B523300A46417B0446037B08021843B3
:1014E000694608801046FFF760FE69460888207349
:1014F000000A607318BD00001815000800000020E5
:1015000060000000C6100008781500086000002088
:1015100098050000D6100008AABBCCDDEE0A00003A
:10152000006CDC0200000000000000000102030467
:101530000607080900000000010203040102030479
:10154000060708090000000000000000000000007D
:1015500000000000FFFFFFFFFFFFFFFFFFFFFFFF97
:10156000FFFFFFFF0000000000000000000000007F
:0815700000000000FFFFFFFF77
:04000005080000C12E
:00000001FF
