:020000040800F2
:100000002814012081020008FD410008AF300008DB
:10001000F94100086D16000825680008000000007E
:10002000000000000000000000000000075F000862
:10003000CD24000800000000ED420008F55F000834
:100040009B0200089B0200089B0200089B0200081C
:100050009B0200089B0200089B0200089B0200080C
:100060009B0200089B0200089B0200089B020008FC
:100070009B0200089B02000881210008AD210008B6
:100080009B0200089B0200089B0200089B020008DC
:10009000711600089B0200089B0200089B020008E2
:1000A0009B0200089B0200089B0200089B020008BC
:1000B0009B0200089B0200089B0200089B020008AC
:1000C0009B0200089B0200089B0200089B0200089C
:1000D0009B020008E56100089B0200089B020008E3
:1000E0009B0200089B0200089B0200089B0200087C
:1000F0009B0200089B0200089B0200089B0200086C
:100100009B020008594600089B0200089B02000859
:100110009B0200089B020008656000086D600008F3
:100120009B0200089B0200089B0200089B0200083B
:100130009B0200089B0200089B0200089B0200082B
:100140009B0200089B0200089B0200089B0200081B
:100150009B0200089B0200089B0200089B0200080B
:100160009B0200089B0200089B0200089B020008FB
:100170009B0200089B0200089B0200089B020008EB
:100180009B0200089B02000800F002F800F064F8EF
:100190000AA090E8000C82448344AAF10107DA45E2
:1001A00001D100F059F8AFF2090EBAE80F0013F0D0
:1001B000010F18BFFB1A43F001031847B4E803000E
:1001C000D4E803000A444FF0000C10F8013B13F090
:1001D000070408BF10F8014B1D1108BF10F8015BA0
:1001E000641E05D010F8016B641E01F8016BF9D193
:1001F00013F0080F1EBF10F8014BAD1C0C1B09D1EA
:100200006D1E58BF01F801CBFAD505E014F8016B5B
:1002100001F8016B6D1EF9D59142D6D370470000ED
:100220000023002400250026103A28BF78C1FBD8FF
:10023000520728BF30C148BF0B607047642900F0E7
:10024000F384732900F0C787002070471FB510F0B2
:1002500077FA1FBD10B510BD01F047F81146FFF742
:10026000F5FF0BF0DBFB01F065F803B4FFF7F2FFDD
:1002700003BC06F0F3FE000072B6704762B670472A
:100280000948804709480047FEE7FEE7FEE7FEE72A
:10029000FEE7FEE7FEE7FEE7FEE7FEE70448054966
:1002A000054A064B70470000FD5F00088901000801
:1002B000280E0120281401202810012028100120D8
:1002C00081FB0020704770472DE9F04F82B001900C
:1002D0004FF000744FF000784FF000054FF0000928
:1002E00052F804CB52F804EB0868CB6DC0FB0C4508
:1002F000D1F88000CEF1000EC3FB0E45D1F8DC3002
:10030000C0FB0C89C3FB0E8952F804CB52F804EBF6
:1003100048688B6DC0FB0C45D1F88400CEF1000E0F
:10032000C3FB0E45D1F8D830C0FB0C89C3FB0E8946
:1003300052F804CB52F804EB88684B6DC0FB0C45B7
:10034000D1F88800CEF1000EC3FB0E45D1F8D430B1
:10035000C0FB0C89C3FB0E8952F804CB52F804EBA6
:10036000C8680B6DC0FB0C45D1F88C00CEF1000EB7
:10037000C3FB0E45D1F8D030C0FB0C89C3FB0E89FE
:1003800052F804CB52F804EB0869CB6CC0FB0C4567
:10039000D1F89000CEF1000EC3FB0E45D1F8CC3061
:1003A000C0FB0C89C3FB0E8952F804CB52F804EB56
:1003B00048698B6CC0FB0C45D1F89400CEF1000E5F
:1003C000C3FB0E45D1F8C830C0FB0C89C3FB0E89B6
:1003D00052F804CB52F804EB88694B6CC0FB0C4517
:1003E000D1F89800CEF1000EC3FB0E45D1F8C43011
:1003F000C0FB0C89C3FB0E8952F804CB52F804EB06
:10040000C8690B6CC0FB0C45D1F89C00CEF1000E06
:10041000C3FB0E45D1F8C030C0FB0C89C3FB0E896D
:1004200001984FF4FE4E4EF0FF0E4FEA946444EAFA
:1004300085144FEAE47CBCEBE43F18BF8CEA0E0461
:100440004FEA986848EA89184FEAE87CBCEBE83F35
:1004500018BF8CEA0E080480A0F8028002F57072C2
:1004600001F580514FF000744FF000784FF0000517
:100470004FF0000952F804CB0868D1F88030C0FB77
:100480000C45C3FB0C8952F804CB4868D1F8843082
:10049000C0FB0C45C3FB0C8952F804CB8868D1F82B
:1004A0008830C0FB0C45C3FB0C8952F804CBC868EC
:1004B000D1F88C30C0FB0C45C3FB0C8952F804CB3F
:1004C0000869D1F89030C0FB0C45C3FB0C8952F889
:1004D00004CB4869D1F89430C0FB0C45C3FB0C89B0
:1004E00052F804CB8869D1F89830C0FB0C45C3FBA7
:1004F0000C8952F804CBC869D1F89C30C0FB0C457C
:10050000C3FB0C8901984FF4FE4E4EF0FF0E4FEAEC
:10051000946444EA85144FEAE47CBCEBE43F18BFE2
:100520008CEA0E044FEA986848EA89184FEAE87C9A
:10053000BCEBE83F18BF8CEA0E08A0F84040A0F8DA
:100540004280A2F57872A1F570614FF00F0C00F1B6
:100550000400CDF800C001904FF000744FF0007817
:100560004FF000764FF0007A4FF000054FF0000991
:100570004FF000074FF0000B52F804CB52F804EB99
:100580000868CB6DC0FB0C45C0FB0E67CEF1000EBA
:10059000C3FB0C67C3FB0E45D1F8DC30D1F88000FB
:1005A000C3FB0E89C3FB0CABCEF1000EC0FB0C8964
:1005B000C0FB0EAB52F804CB52F804EB48688B6DCD
:1005C000C0FB0C45C0FB0E67CEF1000EC3FB0C67F1
:1005D000C3FB0E45D1F8D830D1F88400C3FB0E8997
:1005E000C3FB0CABCEF1000EC0FB0C89C0FB0EAB05
:1005F00052F804CB52F804EB88684B6DC0FB0C45F5
:10060000C0FB0E67CEF1000EC3FB0C67C3FB0E45AB
:10061000D1F8D430D1F88800C3FB0E89C3FB0CABF2
:10062000CEF1000EC0FB0C89C0FB0EAB52F804CB20
:1006300052F804EBC8680B6DC0FB0C45C0FB0E679D
:10064000CEF1000EC3FB0C67C3FB0E45D1F8D030D2
:10065000D1F88C00C3FB0E89C3FB0CABCEF1000EAE
:10066000C0FB0C89C0FB0EAB52F804CB52F804EB74
:100670000869CB6CC0FB0C45C0FB0E67CEF1000EC9
:10068000C3FB0C67C3FB0E45D1F8CC30D1F890000A
:10069000C3FB0E89C3FB0CABCEF1000EC0FB0C8973
:1006A000C0FB0EAB52F804CB52F804EB48698B6CDC
:1006B000C0FB0C45C0FB0E67CEF1000EC3FB0C6700
:1006C000C3FB0E45D1F8C830D1F89400C3FB0E89A6
:1006D000C3FB0CABCEF1000EC0FB0C89C0FB0EAB14
:1006E00052F804CB52F804EB88694B6CC0FB0C4504
:1006F000C0FB0E67CEF1000EC3FB0C67C3FB0E45BB
:10070000D1F8C430D1F89800C3FB0E89C3FB0CAB01
:10071000CEF1000EC0FB0C89C0FB0EAB52F804CB2F
:1007200052F804EBC8690B6CC0FB0C45C0FB0E67AC
:10073000CEF1000EC3FB0C67C3FB0E45D1F8C030F1
:10074000D1F89C00C3FB0E89C3FB0CABCEF1000EAD
:10075000C0FB0C89C0FB0EAB01F5807101984FF412
:10076000FE4E4EF0FF0E4FEA946444EA85144FEAC1
:10077000E47CBCEBE43F18BF8CEA0E044FEA9868B7
:1007800048EA89184FEAE87CBCEBE83F18BF8CEADE
:100790000E084FEA966646EA87164FEAE67CBCEBFF
:1007A000E63F18BF8CEA0E064FEA9A6A4AEA8B1AAD
:1007B0004FEAEA7CBCEBEA3F18BF8CEA0E0ADDF890
:1007C00000C000EBCC0E2EF8026B2EF802AB20F826
:1007D000024B20F8028BBCF1010C7FF4BAAE02B0E0
:1007E000BDE8F08F2DE9F04F82B001904FF000741A
:1007F0004FF0000552F804CB52F804EB0868CB6DBB
:10080000CEF1000EC0FB0C45C3FB0E4552F804CBE5
:1008100052F804EB48688B6DCEF1000EC0FB0C451E
:10082000C3FB0E4552F804CB52F804EB88684B6DBD
:10083000CEF1000EC0FB0C45C3FB0E4552F804CBB5
:1008400052F804EBC8680B6DCEF1000EC0FB0C45EE
:10085000C3FB0E4552F804CB52F804EB0869CB6C8D
:10086000CEF1000EC0FB0C45C3FB0E4552F804CB85
:1008700052F804EB48698B6CCEF1000EC0FB0C45BE
:10088000C3FB0E4552F804CB52F804EB88694B6C5D
:10089000CEF1000EC0FB0C45C3FB0E4552F804CB55
:1008A00052F804EBC8690B6CCEF1000EC0FB0C458E
:1008B000C3FB0E4501984FF4FE4E4EF0FF0E4FEA7B
:1008C000946444EA85144FEAE47CBCEBE43F18BF2F
:1008D0008CEA0E04048002F5707201F580514FF02D
:1008E00000744FF0000552F804CB0868C0FB0C45BB
:1008F00052F804CB4868C0FB0C4552F804CB88681A
:10090000C0FB0C4552F804CBC868C0FB0C4552F83C
:1009100004CB0869C0FB0C4552F804CB4869C0FB06
:100920000C4552F804CB8869C0FB0C4552F804CB47
:10093000C869C0FB0C4501984FF4FE4E4EF0FF0E07
:100940004FEA946444EA85144FEAE47CBCEBE43F4C
:1009500018BF8CEA0E040484A2F57872A1F57061C8
:100960004FF00F0C00F10200CDF800C001904FF0E5
:1009700000744FF000764FF000054FF0000752F87A
:1009800004CB52F804EB0868CB6DC0FB0C45C0FBF0
:100990000E67CEF1000EC3FB0E45C3FB0C6752F889
:1009A00004CB52F804EB48688B6DC0FB0C45C0FBD0
:1009B0000E67CEF1000EC3FB0E45C3FB0C6752F869
:1009C00004CB52F804EB88684B6DC0FB0C45C0FBB0
:1009D0000E67CEF1000EC3FB0E45C3FB0C6752F849
:1009E00004CB52F804EBC8680B6DC0FB0C45C0FB90
:1009F0000E67CEF1000EC3FB0E45C3FB0C6752F829
:100A000004CB52F804EB0869CB6CC0FB0C45C0FB6F
:100A10000E67CEF1000EC3FB0E45C3FB0C6752F808
:100A200004CB52F804EB48698B6CC0FB0C45C0FB4F
:100A30000E67CEF1000EC3FB0E45C3FB0C6752F8E8
:100A400004CB52F804EB88694B6CC0FB0C45C0FB2F
:100A50000E67CEF1000EC3FB0E45C3FB0C6752F8C8
:100A600004CB52F804EBC8690B6CC0FB0C45C0FB0F
:100A70000E67CEF1000EC3FB0E45C3FB0C6701F5FC
:100A8000807101984FF4FE4E4EF0FF0E4FEA9464D1
:100A900044EA85144FEAE47CBCEBE43F18BF8CEADF
:100AA0000E044FEA966646EA87164FEAE67CBCEBF0
:100AB000E63F18BF8CEA0E06DDF800C000EB8C0E96
:100AC0002EF8026B20F8024BBCF1010C7FF44CAF06
:100AD00002B0BDE8F08F704710B54C1084EA5304A3
:100AE00004D54042C1F1000138BF491E1B4204D564
:100AF0005242C3F1000338BF5B1E00F065FA14F0E8
:100B0000804F04D04042C1F1000138BF491E14F0AB
:100B1000004F04D05242C3F1000338BF5B1E10BD2A
:100B20000FB4044910B503AA029800F059FB10BC99
:100B30005DF814FB400100200FB41CB50C0007AA9F
:100B4000009001D02044401E074B7B446946019031
:100B5000069800F00EFB002C03D06946002000F040
:100B60001BFB1CBC5DF814FB550600002DE9F04191
:100B70000E460446002020622046E168884730B3D4
:100B8000252805D0D4E901219047206A401CF2E7CE
:100B9000E168204600278847050018D0A5F14100EC
:100BA000192802D820354FF40067324629462046DE
:100BB0002760FFF743FB40B1012804D0F61D26F063
:100BC00007060836D8E7361DD6E72846DAE7206A52
:100BD000BDE8F08170B50C460546012A05D028789D
:100BE000800600D5EA69002302E0012305E05B1CD2
:100BF000934202D2E05C0028F9D1A869E618C01A35
:100C0000A861286A184428622846AFF3008004E0EF
:100C1000D5E9012114F8010B9047B442F8D32846D6
:100C2000AFF3008070BD00002DE9F04106460024BE
:100C300010687529314616A510D0AFF30080002842
:100C400002DA404213A507E031688A0701D512A5F0
:100C500002E0490704D511A5012401E0AFF30080AB
:100C600000210A2206F1240709E0B0FBF2FCB0FBE8
:100C7000F2F302FB1C00303078541846491C00285F
:100C8000F3D123462A463046BDE8F04100F013BABE
:100C9000000000002D0000002B00000020000000DC
:100CA00030B505460B462A4613F8014B12F8010BE6
:100CB00008B1A042F8D01CB1002802D06D1CF1E7A9
:100CC000284630BD40EA0103024630B59B0710D1EB
:100CD0004FF0013400E008C208C91D1B9D4315EA0E
:100CE000C41FF8D013F0FF0102F8011B0DD01B0A3E
:100CF000F8E711F8013B002B02F8013B05D011F891
:100D0000013B002B02F8013BF3D130BD10B5431C71
:100D100002E010F8011B71B18107FAD14FF00132E6
:100D200002C88C1A8C4314EAC211F9D0C01A0A0600
:100D300003D0C01E10BDC01A10BD0A0401D0801E11
:100D400010BD0902FCD0401E10BD032A40F23080C5
:100D500010F0030C00F0158011F8013BBCF1020FFC
:100D6000624498BF11F801CB00F8013B38BF11F87D
:100D7000013BA2F1040298BF00F801CB38BF00F894
:100D8000013B11F0030300F03D82083AC0F00880F7
:100D900051F8043B083A51F804CBA0E80810F5E7F5
:100DA000121D5CBF51F8043B40F8043BAFF30080D8
:100DB000D20724BF11F8013B11F801CB48BF11F84D
:100DC000012B24BF00F8013B00F801CB48BF00F81D
:100DD000012B7047431A28BF9A427FF6B6AF032A09
:100DE0001044114440F2268010F0030F1EBF11F88A
:100DF000013D521E00F8013D10F0030F7FF4F6AFE5
:100E000011F0030300F04382083AC0F00B8051F860
:100E1000043D083A51F804CD40F8043D40F804CDB3
:100E2000FFF7F3BF121D5CBF51F8043D40F8043DCD
:100E3000AFF30080D20724BF11F8013D11F801CDB6
:100E400048BF11F8012C24BF00F8013D00F801CD86
:100E500048BF00F8012C70474FF000020429C0F091
:100E6000128010F0030C00F01B80CCF1040CBCF1DC
:100E7000020F18BF00F8012BA8BF20F8022BA1EB2E
:100E80000C0100F00DB85FEAC17C24BF00F8012B13
:100E900000F8012B48BF00F8012B70474FF000020B
:100EA00000B5134694469646203922BFA0E80C5060
:100EB000A0E80C50B1F12001BFF4F7AF090728BF3B
:100EC000A0E80C5048BF0CC05DF804EB890028BFB7
:100ED00040F8042B08BF704748BF20F8022B11F0E0
:100EE000804F18BF00F8012B704710B5044610F072
:100EF000030F08BF11F0030F40F015804FF0013EC3
:100F0000121FC0F20E8051F8043BA3EB0E0C2CEA2A
:100F1000030C1CEACE1C08BF40F8043BF0D0A1F142
:100F2000040102F10402521E08DB11F8013B002B00
:100F300000F8013BF7D11146FFF78EFF204610BDA8
:100F40004FF0013C50F8042B51F8043B9A4221D158
:100F5000A2EB0C03934313EACC1317D150F8042BE4
:100F600051F8043B9A4215D1A2EB0C03934313EAC8
:100F7000CC130BD150F8042B51F8043B9A4209D101
:100F8000A2EB0C03934313EACC13DBD04FF0000029
:100F9000704700BFD01A01BAB1FA81F101F018010F
:100FA00022FA01F0CB40C1F12001DBB2C0B2C01A7D
:100FB0002CFA01F3D11A914311EAC311E6D170471B
:100FC000704770477047704753EA020C00F0698021
:100FD0002DE9F04B4FF00006002B1FBFB3FA83F54D
:100FE00003FA05F424FA05F65E4012BF1643B2FA7E
:100FF00082F502FA05F4C5F120051EBF22FA05FCB0
:1010000044EA0C04203556EA044C4FEA144418BF55
:10101000641C4FF000084FF00009904271EB030C84
:1010200039D3002919BFB1FA81F701FA07F6B0FAEE
:1010300080F700FA07F6C7F120071EBF20FA07FC69
:1010400046EA0C062037B6FBF4FCA7EB0507103F79
:1010500007F01F0BCBF120060CFA0BFB2CFA06F65F
:1010600044BFB3460026202FA4BF5E464FF0000BBE
:101070005BEA060C08BF4FF0010B19EB0B09ABFB49
:10108000027C48EB0608C01B06FB02CC0BFB03CC22
:1010900071EB0C01C1E70B46024641464846BDE8EC
:1010A000F08B13B54FF000004FF00001AFF300805C
:1010B000BDE81C4070472DE9F0470D469946924621
:1010C000044600F124080168880604D5E06921F08F
:1010D0001001216000E00120A84201DD471B00E073
:1010E0000027A1697A1902EB0900081AA06120788B
:1010F000C00602D42046AFF30080002608E0D4E901
:1011000001211AF806009047206A401C761C2062D4
:101110004E45F4DB2078C0060AD52046AFF30080A8
:1011200006E0D4E9012130209047206A401C20626B
:10113000381EA7F10107F4DC07E0D4E9012118F813
:1011400005009047206A401C2062281EA5F1010579
:10115000F3DC2046AFF300802078000602D50220A1
:10116000BDE8F0870120FBE701694A1C02610878AD
:10117000704700B58FB0CDE90131002105910549D7
:101180007944CDE9031011466846FFF7EFFC0FB034
:1011900000BD0000E5FFFFFF0A6802F8010B0A60CE
:1011A0007047D1E900239A4202D2531C0B601070A1
:1011B000704710B5436913B1AFF3008001E0FFF74A
:1011C00009FD012010BD127800F124010A700022EF
:1011D0004A700122EDE711684FF0FF32E9E70000A5
:1011E000074B70B50D467B44FFF7C3FF0446284606
:1011F00000F077F810B14FF0FF3070BD204670BDA1
:101200004F9D000010B5203AC0F00B80B1E8185097
:10121000203AA0E81850B1E81850A0E81850BFF4E0
:10122000F5AF5FEA027C24BFB1E81850A0E818507F
:1012300044BF18C918C0BDE810405FEA827C24BFD3
:1012400051F8043B40F8043B08BF7047D20728BF61
:1012500031F8023B48BF11F8012B28BF20F8023BB0
:1012600048BF00F8012B7047431A28BF9A427FF607
:10127000C9AF104410F0030F11441EBF11F8013D17
:10128000521E00F8013D10F0030F7FF4F6AF103A44
:10129000C0F00A8010B531E91850103A20E9185012
:1012A000BFF4F9AFBDE81040530724BF31E908107F
:1012B00020E9081044BF51F8043D40F8043D12F005
:1012C000030F08BF7047D20728BF31F8023D48BF5F
:1012D00011F8012C28BF20F8023D48BF00F8012C6E
:1012E0007047007B00F080007047754600F02CF8D6
:1012F000AE4605006946534620F00700854618B003
:1013000020B5FEF7CBFFBDE820404FF000064FF0C0
:1013100000074FF000084FF0000B21F00701AC462A
:10132000ACE8C009ACE8C009ACE8C009ACE8C00949
:101330008D46704710B50446AFF300802046BDE8E7
:101340001040FEF792BF000000487047C40D012016
:101350002DE9F84F04460E4637461CE1904D4834BF
:10136000203CD4F81C80D5F800A02D1DD4F8209086
:10137000286800902D1D41465046FEF7A1FF834688
:1013800049460098FEF79CFFABEB00004000E0618F
:1013900049465046FEF794FF834641460098FEF7C3
:1013A0008FFF584440002062D4F81880D5F800A080
:1013B0002D1DD4F82490286800902D1D41465046DC
:1013C000FEF77EFF834649460098FEF779FFABEBB8
:1013D00000004000A06149465046FEF771FF834679
:1013E00041460098FEF76CFF584440006062D4F814
:1013F0001480D5F800A02D1DD4F8289028680090FE
:101400002D1D41465046FEF75BFF83464946009836
:10141000FEF756FFABEB00004000606149465046C6
:10142000FEF74EFF834641460098FEF749FF5844B9
:101430004000A062D4F81080D5F800A02D1DD4F88B
:101440002C90286800902D1D41465046FEF738FF2D
:10145000834649460098FEF733FFABEB000040009F
:10146000206149465046FEF72BFF834641460098CF
:10147000FEF726FF58444000E062D4F80C80D5F80F
:1014800000A02D1DD4F83090286800902D1D4146F5
:101490005046FEF715FF834649460098FEF710FFB9
:1014A000ABEB00004000E06049465046FEF708FF05
:1014B000834641460098FEF703FF584440002063EE
:1014C000D4F80880D5F800A02D1DD4F834902868F1
:1014D00000902D1D41465046FEF7F2FE83464946D8
:1014E0000098FEF7EDFEABEB00004000A06049461F
:1014F0005046FEF7E5FE834641460098FEF7E0FEC3
:10150000584440006063D4F80480D5F800A02D1D35
:10151000D4F83890286800902D1D41465046FEF7BB
:10152000CFFE834649460098FEF7CAFEABEB0000AB
:101530004000606049465046FEF7C2FE8346414681
:101540000098FEF7BDFE58444000A063D4F8008028
:10155000D5F800A02D1DD4F83C90286800902D1DD2
:1015600041465046FEF7ACFE834649460098FEF7DA
:10157000A7FEABEB00004000206049465046FEF756
:101580009FFE834641460098FEF79AFE584440006D
:10159000E06320347F1E002F3FF7E0AEBDE8F88FF8
:1015A000B0E4030870B5274800684FF47A72B0FBC6
:1015B000F2F1481EB0F1807F01D301201BE0481EEC
:1015C0004FF0E022506150170F22002804DB130770
:1015D0001D0E1D4B1D5406E013071E0E1B4B00F085
:1015E0000F052D1F5E5500BF00204FF0E0229061D7
:1015F00007201061002008B100BFFEE702F0C8FE1E
:1016000001F09EFC02F0FBFD06F08CFD06F0FAFEF8
:101610000AF072FE0BF040FF00F0EEF908F0CAFA93
:101620000B49012208680BA108F07EFD044614B99D
:10163000012009490870214608A0FFF771FA05F05A
:10164000A9F970BD0000002000E400E018ED00E002
:1016500044010020303A000038010020665F6D6FC1
:10166000756E743A2025640A0000000000BFFEE792
:1016700010B586B001AA0021154800F037FA002401
:1016800014E00DF10F00005D1249134A12888854CE
:1016900011480088401C1049088008460088B0F5B1
:1016A000C87F01D100200880601CC4B29DF80E00E4
:1016B000A042E6DC0948007838B900220121084838
:1016C00001F0F0FC01200549087006B010BD0000D3
:1016D0000064004070010020240000202B00002046
:1016E000000402400849094A1288885C07490988B1
:1016F000491C064A118011460988B1F5C87F01D1FD
:101700000021118070470000700100202600002099
:101710000448008804490988884201D100207047A4
:101720000120FCE724000020260000202DE9F047DE
:1017300007460C462046E11704EB5171C1F3C70977
:101740004FF000080DE00821384600F047FB054641
:1017500015B12846BDE8F087083708F1010000F010
:10176000FF08C845EFDBE11704EB5171C910A4EB8A
:10177000C10159B12646E01704EB5070C010A4EB2C
:10178000C000C1B2384600F029FB05462846E1E713
:1017900010B504460B48844209D10121480602F0E5
:1017A000C7FD00214FF0007002F0C2FD08E00121EA
:1017B000880602F0BDFD00214FF0806002F0B8FD08
:1017C00010BD00000064004010B50021837A0122A2
:1017D00002FA03F13D4A126842F001023B4B1A60E3
:1017E0003A4A1C3212688A43384B1C331A60027B17
:1017F000CAB9364A0C3212688A43344B0C331A6029
:101800004288C38842EA0343304A4032847A42F82D
:1018100034300288838842EA03432C4A4032847A77
:1018200002EBC4025360027B012A19D1274A0C3211
:1018300012680A43254B0C331A604288038842EA37
:101840000343224A4032847A42F83430C288838883
:1018500042EA03431D4A4032847A02EBC4025360D9
:10186000C27A3AB9194A121D12688A43174B1B1DD6
:101870001A6006E0154A121D12680A43134B1B1D1D
:101880001A60028932B9114A143212688A430F4B26
:1018900014331A600289012A06D10C4A14321268E4
:1018A0000A430A4B14331A60427B012A06D1074AC5
:1018B0001C3212680A43054B1C331A60034A126833
:1018C00022F00102014B1A6010BD000000660040CA
:1018D0001AB143690B43436102E043698B4343619F
:1018E000704730B5024600200023146824F002043B
:1018F0001460146844F00104146000E05B1C546838
:1019000004F001041CB94FF6FF74A342F6D15468E9
:1019100004F001040CB900206CE08C79012C04D196
:10192000146844F08004146003E0146824F0800418
:101930001460CC79012C04D1146844F04004146084
:1019400003E0146824F0400414600C7A012C04D1E4
:10195000146844F02004146003E0146824F02004A8
:1019600014604C7A012C04D1146844F01004146003
:1019700003E0146824F0100414608C7A012C04D164
:10198000146844F00804146003E0146824F00804A8
:101990001460CC7A012C04D1146844F0040414605F
:1019A00003E0146824F0040414608C78A407CD7854
:1019B00044EA05640D7944EA05444D7944EA055446
:1019C0000D886D1E2C43D461146824F0010414604A
:1019D000002300E05B1C546804F001041CB14FF6C6
:1019E000FF74A342F6D1546804F001040CB1002046
:1019F00000E0012030BD000000B58BB00121480699
:101A000002F086FC02208DF8280000208DF82A00C4
:101A10004FF4C050099001208DF82B0002208DF862
:101A2000290009A92F4801F0C9FA09220C212D48E3
:101A300001F00CFB09220B212A4801F007FB2A4880
:101A4000FFF7A6FE00208DF81E008DF81F008DF810
:101A500020008DF821008DF822008DF823008DF8EC
:101A60001A008DF81B0009208DF81C0000208DF84D
:101A70001D000720ADF8180006A91B48FFF731FF2D
:101A800000208DF8120001208DF813008DF814004D
:101A90004FF4A070ADF808000020ADF80A00ADF8D2
:101AA0000C00ADF80E00ADF8100001208DF8150007
:101AB00002A8FFF789FE14208DF8040001208DF89C
:101AC000050000208DF8060001208DF8070001A810
:101AD00002F0C6FB012202210348FFF7F9FE0020B5
:101AE0000BB000BD000002400064004010B500F5DE
:101AF000D87303EB01131B6803F004031372137A0A
:101B000053B900F5D87303EB01131B6840F2FF745F
:101B100004EA5353136009E000F5D87303EB011393
:101B20001B686FF0604404EAD303536000F5D87378
:101B300003EB01131B6803F00203537200F5D87323
:101B400003EB01135B6803F00F03937200F5D87386
:101B500003EB01135B681B0AD37400F5D87303EB26
:101B600001139B68D37200F5D87303EB01139B68D4
:101B70001C0A147300F5D87303EB01139B681C0C4B
:101B8000547300F5D87303EB01139B681B0E93731A
:101B900000F5D87303EB0113DB68D37300F5D8733A
:101BA00003EB0113DB681C0A147400F5D87303EB14
:101BB0000113DB681C0C547400F5D87303EB01139C
:101BC000DB681B0E937421B9C36843F02003C36024
:101BD00003E0036943F02003036110BD10B5024622
:101BE0000020936803F08063B3F1806F00D110E0B0
:101BF000936803F00063B3F1006F01D1012008E0A6
:101C0000936803F08053B3F1805F01D1022000E0BC
:101C10000420042874D002F5C07303EB00131B6882
:101C200003F0010402F5C07303EB00131C600B7A90
:101C30007BB94B7A0C8843EA445302F5C07404EB39
:101C400000142468234302F5C07404EB00142360DD
:101C500010E00B7A4C6843EAC4034C7A234302F544
:101C6000C07404EB00142468234302F5C07404EB31
:101C7000001423608B7A03F00F038B7202F5C0739C
:101C800003EB00135B6823F00F0402F5C07303EB52
:101C900000135C6002F5C07303EB00135B688C7A81
:101CA000234302F5C07404EB001463608B7B1C06B5
:101CB0004B7B44EA03440B7B44EA0323CC7A234363
:101CC00002F5C07404EB0014A3608B7C1C064B7CF3
:101CD00044EA03440B7C44EA0323CC7B234302F510
:101CE000C07404EB0014E36002F5C07303EB00134F
:101CF0001B6843F0010402F5C07303EB00131C6082
:101D000010BD000010B50246002321B1012907D003
:101D100002290FD109E090681D4C00EA04030BE092
:101D200090681C4C00EA040306E090681A4C00EA34
:101D3000040301E0002300BF00BF184C181BA3429E
:101D400016D007DC83B16FF08060184470B10228B0
:101D500018D111E0B0F5007F10D0114C204448B1EB
:101D6000B0F5003F0ED10BE002230DE000230BE0A5
:101D7000002309E0002307E0012305E0012303E03D
:101D8000012301E0002300BF00BFD8B210BD000056
:101D90000300000400030008000003100001000815
:101DA0000001FFF7014609B920207047002201E039
:101DB000521C490001F000400028F9D01046F4E719
:101DC000014609B920207047002201E0521C490059
:101DD00001F000400028F9D01046F4E72DE9F04169
:101DE00086B080460F460024A0200190002002907B
:101DF0008DF80C008DF80D008DF80E7000BF06E018
:101E000018F804100DF10F000155601C84B2BC429B
:101E1000F6DB00220221254801F044F90120244983
:101E20000870002401A92348FFF7D8FE064606E003
:101E3000601C84B201A91F48FFF7D0FE0646042E9D
:101E400003D144F6FF708442F2DB042E03D101205B
:101E500006B0BDE8F081002431461648FFF752FF76
:101E6000054606E0601C84B231461248FFF74AFF7F
:101E70000546012D03D044F6FF708442F2DB44F6A0
:101E8000FF7084420FDB022D04D131460AA0FEF719
:101E900047FE08E03DB9FFF7AFFD31460FA0FEF762
:101EA0003FFE0120D4E70020D2E7000000040240FA
:101EB000290000200064004063616E206D626F782D
:101EC0005B25645D2043414E5F54785374617475A3
:101ED000735F50656E64696E670A000063616E200F
:101EE0006D626F785B25645D2043414E5F5478538B
:101EF00074617475735F4661696C65640A00000003
:101F000010B502461346002002E000241C54401C79
:101F10008842FADB10BD70B500254FF4803404E030
:101F2000802002F085FB00B103E0201EA4F1010433
:101F3000F6D100BF0CB9032070BD40F2FF5002F093
:101F40004DFB2846F8E7000070B5044605E016484A
:101F5000056805F0450000B100E0F8E700BF042087
:101F600002F066FB20B1042002F038FB032070BDB4
:101F7000012002F05DFB20B1012002F02FFB0120C7
:101F8000F5E7094824380068A04201D01020EEE7A8
:101F900040F2FF5002F022FB03482038006808217D
:101FA0000840C0B2E3E70000342C014070B50026C1
:101FB0004FF4803505E01148046804F0450000B195
:101FC00003E0281EA5F10105F5D100BF15B104F00D
:101FD000040028B10326042002F000FB304670BD47
:101FE000012002F025FB18B10126012002F0F6FACB
:101FF00040F2FF5002F0F2FA3046F0E7342C014094
:1020000010B505E00B48046804F0450000B100E09D
:10201000F8E700BF042002F00BFB20B1042002F01F
:10202000DDFA032010BD40F2FF5002F0D7FA002085
:10203000F8E70000342C01402DE9F04105460E463A
:102040004FF0000805E02048076807F0450000B1A0
:1020500000E0F8E700BF042002F0EAFA28B104200B
:1020600002F0BCFA0320BDE8F081012002F0E0FAA2
:1020700020B1012002F0B2FA0120F4E7124824381E
:102080000068A84201D01020EDE740F2FF5002F0B6
:10209000A5FA0D482038046804F4604018B9200CF3
:1020A00030804046DFE704F4005008B11320DAE73F
:1020B00004F4804008B11020D5E704F4004008B1D2
:1020C0000F20D0E74046CEE7342C014070B5002603
:1020D0004FF4803505E00F48046804F0450000B176
:1020E00003E0281EA5F10105F5D100BF15B104F0EC
:1020F000040028B10326042002F070FA304670BDB7
:1021000004F0400018B10026402002F067FA304683
:10211000F5E70000342C0140014640F27F400CE01E
:1021200031F81020430021F8132031F8102001234A
:1021300003EB400321F81320401E0028F0DA70471B
:1021400030B501460023002016E01F2404EB801266
:1021500002F120030AE031F8124021F8134031F86F
:1021600012505C1E21F81450521E9B1E002404EBDA
:1021700080149442EFDD401C2428E6DB30BD0000D3
:1021800010B50749074800F025F9012806D1044990
:10219000044800F021F804480068804710BD0000A2
:1021A0000080001858600240B400002010B50749B4
:1021B000074800F00FF9012806D10449044800F04F
:1021C0000BF804480068804710BD00002080002004
:1021D00070600240B00000200246094B9A4201D2D2
:1021E000084801E00648103801F000531BB1064BC7
:1021F0000B40C36002E0044B0B408360704700005B
:1022000010640240006002407D0F7D0F21B1026822
:1022100042F00102026003E0026822F00102026063
:1022200070470000016821F0010101600021016098
:1022300041608160C1600161212141614A49884258
:1022400004D13D21484A103A91608CE0464918314A
:10225000884205D14FF47461434A103A916082E09C
:1022600041493031884205D14FF474113E4A103A49
:10227000916078E03C494831884205D14FF0746163
:10228000394A103A91606EE037496031884204D192
:102290003649354A103AD16065E033497831884291
:1022A00004D13349304A103AD1605CE02E49903174
:1022B000884204D12F492C4A103AD16053E02A4970
:1022C000A831884205D14FF03D51274A103AD160DC
:1022D00049E02949884204D13D21274A083A116042
:1022E00041E025491831884205D14FF47461224AF2
:1022F000083A116037E020493031884205D14FF467
:1023000074111D4A083A11602DE01B49483188427A
:1023100005D14FF07461184A083A116023E016495C
:102320006031884204D11149134A121F11601AE02A
:1023300011497831884204D10D490F4A121F1160AA
:1023400011E00D499031884204D10A490A4A121F0E
:10235000116008E00849A831884204D14FF03D518E
:10236000054A121F11607047106002403D000020B6
:10237000400F002000003D201064024021B102689F
:1023800042F48022026003E0026822F480220260AC
:10239000704722B1036843F40023036003E003683D
:1023A00023F4002303600161704721B1026842F009
:1023B0002002026003E0026822F0200202607047FF
:1023C000014600200A6802F001020AB1012000E083
:1023D0000020704770B50246002000240025124EF0
:1023E000B24201D2114B01E00F4B103B104E0E4098
:1023F00036B11E2606EAD124166806EA040502E074
:10240000566906F0800501F000560EB15C6800E0E8
:102410001C68084E344004EA010616B10DB10120D3
:1024200000E0002070BD0000106402400060024027
:102430003C0F3C0F7D0F7D0F10B501F080034BB1B9
:1024400022B1436943F08003436103E0436923F011
:102450008003436180290BD02AB1036801F01E0478
:102460002343036004E0036801F01E04A3430360F8
:1024700010BD000010B500220268134B1A40CC6852
:102480000B6823434C6923438C692343CC69234362
:102490000C6A23434C6A23438C6A23434C6B2343CB
:1024A0008C6B23431A430260426922F00702D1E990
:1024B0000B3423431A4342610B6943604B688360CA
:1024C0008B68C36010BD00003F801CF070470000A7
:1024D0002DE9FF4F87B005460E46149C002E03DC05
:1024E00000200BB0BDE8F08F002B02DA4FF0FF3078
:1024F000F7E70593DFF858B309985BF82000DFF899
:1025000054B30BEB40000190DFF84CB309985BF833
:1025100030C009980BEBC00000790290002215989A
:10252000404200F0070129B114F8010BC1F1200B62
:1025300000FA0BF25B1A029898B9002006900BE0A3
:102540004FF0000B069845F820B00698401C45F85F
:1025500020B00698801C06900698B042F0DB002060
:10256000BFE70298012879D10198007800F00F00A8
:1025700004900198801C01904FF0000A65E0102B38
:1025800010DB14F8010BC1F1180B00FA0BF0024339
:1025900014F8010BC1F1100B00FA0BF002431031DB
:1025A000103B22E0C818002802DC4FF0FF3098E70B
:1025B000002B06DD14F8010BC1F1180B00FA0BF02B
:1025C0000243082B06DD14F8010BC1F1100B00FAD1
:1025D0000BF0024319440023481E4FF0004B4BFA06
:1025E00000F002404FF00B0A51442AE00498C0F179
:1025F000200022FA00F0DDF804B03BF810804FEA2A
:10260000183EA1EB0E0102FA0EF2C8F30319B9F15C
:10261000000F05D002F0004040EA09095200491EAF
:10262000C8F3032727B102F0004007435200491EB8
:10263000514502DA4FF0FF3053E745F8049B80C55F
:10264000B61E002E01DD0B29D0DA002E97DCA1EB9F
:102650000A0003440598C01A43E7FFE702980328DD
:1026600002D00298022876D1019800904FF0000A1B
:10267000E2E0102B10DB14F8010BC1F1180B00FA8B
:102680000BF0024314F8010BC1F1100B00FA0BF030
:1026900002431031103B22E0C818002802DC4FF042
:1026A000FF301EE7002B06DD14F8010BC1F1180BFB
:1026B00000FA0BF00243082B06DD14F8010BC1F100
:1026C000100B00FA0BF0024319440023481E4FF090
:1026D000004B4BFA00F002404FF00B0A5144A6E0C9
:1026E0000098007800F00F0004900498C0F1200BCF
:1026F00022FA0BF0401CDDF800B03BF810804FEAE6
:10270000183EBEF1000F08D10498091A04988240BF
:10271000009800EB4800009089E0A1EB0E0102FA5E
:102720000EF2C8F30319C8F30327B9F10F0F33D121
:102730000298032830D10FB1012000E000200CF1F5
:10274000010B5844039001EB030B0398834503DA14
:102750004FF0FF30C5E678E008E014F8010BC1F156
:10276000180B00FA0BF002430831083B0398814232
:10277000F3DB002B07DA19440023481E4FF0004B0F
:102780004BFA00F00240CCF1200022FA00F0814424
:10279000A1EB0C0102FA0CF2B9F1000F05D002F026
:1027A000004040EA09095200491E0F2F2DD102981E
:1027B00003282AD10CF10100039001EB030B0398CD
:1027C000834502DA4FF0FF308BE608E014F8010B86
:1027D000C1F1180B00FA0BF002430831083B0398D3
:1027E0008142F3DB002B07DA19440023481E4FF027
:1027F000004B4BFA00F00240CCF1200022FA00F02E
:102800000744A1EB0C0102FA0CF227B102F00040E0
:1028100007435200491E514502DA4FF0FF3060E68F
:1028200045F8049B80C5B61E0198009000BF002E9D
:1028300002DD0B29BFF654AF002E3FF71AAFA1EB14
:102840000A0003440598C01A4BE64FF0FF3048E6F3
:1028500060D903083CB80308E0D903082DE9FF4F0D
:1028600083B00546109C002B03DC002007B0BDE8B8
:10287000F08FDFF858E105985EF82000DFF850E1AE
:1028800070440090DFF84CE105985EF8200002905B
:1028900000221198404200F0070129B114F8010B01
:1028A000C1F1200E00FA0EF25B1A0027019785E0B5
:1028B000102B10DB14F8010BC1F1180E00FA0EF00A
:1028C000024314F8010BC1F1100E00FA0EF002439E
:1028D0001031103B22E0C818002801DC3846C5E75B
:1028E000002B06DD14F8010BC1F1180E00FA0EF0F2
:1028F0000243082B06DD14F8010BC1F1100E00FA9B
:102900000EF0024319440023481E4FF0004E4EFAC9
:1029100000F002400A2001900198014448E002982A
:10292000C0F1200022FA00F0DDF800E01EF800609F
:102930004FEA161BA1EB0B0102FA0BF2C6F3C00C17
:10294000BCF1000F05D002F0004040EA0C0C520030
:10295000491EC6F38008B8F1000F05D002F0004010
:1029600040EA08085200491EC6F34009B9F1000FB9
:1029700005D002F0004040EA09095200491E06F065
:10298000010ABAF1000F05D002F0004040EA0A0A3D
:102990005200491E0198814201DA384666E745F83F
:1029A00004CB45F8048B45F8049B45F804AB3F1D68
:1029B0000498C01EB84201DD0A29B0DA0498C01E8E
:1029C000B8423FF775AF384650E7000030DB0308E8
:1029D000E0DA030838DB030801B50549086800BFE1
:1029E00003490968411A009A9142F9D308BD0000D1
:1029F0003C0100202DE9FF4F87B083469846002018
:102A0000009008F00300604901EB801A08F0030011
:102A10005E4951F8200002901F20B0EBA80F02DDA4
:102A20004FEAA80000E01F200746F81C1F2800DA24
:102A300000E01F200546002D01DD284600E00020B3
:102A4000054600200390DAF8040028410490DAF8E3
:102A5000080028410590DAF80C002841069000BFD4
:102A60005BF8040B0190019820F00044042C03DA79
:102A700003A850F824606FE0102C0BDA5AF8246099
:102A8000002F03DA794206FA01F001E046FA07F076
:102A9000064661E0402C0BDAA4F110003C4951F8E5
:102AA000206030460299FDF70BFC0646FD1E45E00E
:102AB00064040025B4F1006F01DA24012D1DB4F186
:102AC000005F01DAA400AD1CB4F1804F01DA6400AC
:102AD0006D1C3048844201DA2F4800E02F488146BF
:102AE000D9F8006021463046FDF7EAFBD9F804101A
:102AF000461821463046FDF7E3FBD9F80810461882
:102B000021463046FDF7DCFBD9F80C10461821466B
:102B10003046FDF7D5FBD9F810104618204850F87C
:102B200025103046FDF7CCFBC60030460299FDF774
:102B3000C7FB06461B4850F825003D1A002D0ADA4F
:102B40006D426FF000402841B04202DA6FF000465B
:102B500002E0AE4000E02E41009830430090019822
:102B6000002801DA704200E03046089908600898B1
:102B7000001D08900998401E099000287FF470AF4E
:102B800000980BB0BDE8F08F14B6030804B6030834
:102B900014B703089A79825AD4B70308E8B7030830
:102BA0001CB80308FCB703082DE9FC4107460D4695
:102BB0000026002400200090019008205B49086056
:102BC00010204860402088600020C8604FF480607A
:102BD0000861084601F078FD1020FFF7B5F90446BA
:102BE00014B12046BDE8FC815148008800044F49DB
:102BF000086037204860402088600020C8604FF49B
:102C000080600861084601F05FFD3720FFF79CF9FE
:102C100004460CB12046E5E74FF0FF304549086017
:102C200008204860302088600220C86000200861C9
:102C300001204861084601F0E1FC00203B490860A2
:102C400033204860402088600020C8604FF48060D6
:102C50000861084601F038FD3320FFF775F9044696
:102C60000CB12046BEE70CE04FF4001001F0E0FC90
:102C700038B1314800684DF82600761C022E00D38A
:102C800007E02D484C38006840F22A6108400028CF
:102C9000EAD000BF082001F0CBFC20B1082001F0F1
:102CA0009DFC04209EE7022001F0C2FC20B102201E
:102CB00001F094FC022095E7202001F0B9FC20B13E
:102CC000202001F08BFC06208CE74FF4007001F00F
:102CD000AFFC28B14FF4007001F080FC072081E7C1
:102CE00040F2FF5001F07AFC00980006009901F4D0
:102CF0007F4140EA0120009901F47F0140EA112060
:102D0000009940EA1160686001980006019901F499
:102D10007F4140EA0120019901F47F0140EA11203E
:102D2000019940EA1160286020465BE748030020D3
:102D3000300000205C030020802C01402DE9F04F82
:102D400089B004460F4692461D46002D5BD10AF01D
:102D50000100002853D08034D4F800B004F580740A
:102D60002068089004F580742068079004F580744A
:102D70002068069004F580742068059004F580743E
:102D80002068049004F580742068039004F5807432
:102D90002068029004F580742068019004F5807426
:102DA000A4F51064CBF10000206004F5807408984D
:102DB0004042206004F5807407984042206004F58A
:102DC000807406984042206004F580740598404263
:102DD000206004F5807404984042206004F58074FB
:102DE00003984042206004F58074029840422060BD
:102DF00004F5807401984042206004F5807400203E
:102E000009B0BDE8F08F4FF000090AF0010000287A
:102E10004AD0C84644E02668F017C5F11F0146FABB
:102E200001F1814206D0C5F11F0201219140491EE6
:102E300081EA000606FA05F020602068FDF743FAF3
:102E400040EA0909803420684642F017C5F11F01A5
:102E500046FA01F1814206D0C5F11F0201219140DD
:102E6000491E81EA000606FA05F020602068FDF799
:102E70002AFA40EA090980343E68F017C5F11F01BB
:102E800046FA01F1814206D0C5F11F0201219140AD
:102E9000491E81EA000606FA05F001C708F102089A
:102EA000B8F1120FB7DB49E04FF0000843E02668A5
:102EB000F017C5F11F0146FA01F1814206D0C5F1B4
:102EC0001F0201219140491E81EA000606FA05F021
:102ED00020602068FDF7F7F940EA09098034266888
:102EE000F017C5F11F0146FA01F1814206D0C5F184
:102EF0001F0201219140491E81EA000606FA05F0F1
:102F000020602068FDF7DFF940EA090980343E6857
:102F1000F017C5F11F0146FA01F1814206D0C5F153
:102F20001F0201219140491E81EA000606FA05F0C0
:102F300001C708F10208B8F1120FB8DB48465FE795
:102F40001CB50320009001208DF8040003208DF8AB
:102F5000050000208DF806008DF807006946154829
:102F600000F02CF80F20009000208DF804000120C4
:102F70008DF807006946104800F020F80722062166
:102F80000C4800F063F8072211460A4800F05EF88A
:102F9000C020009002208DF8040003208DF8050069
:102FA00000208DF806008DF807006946014800F002
:102FB00005F81CBD0004024000000240F0B50A46BE
:102FC00000210023002400BF3DE0012505FA01F3A4
:102FD000156805EA03049C4234D105684F000326B6
:102FE000BE40B543056015794E00B54006683543CF
:102FF00005601579012D02D01579022D16D185684D
:103000004F000326BE40B543856055794E00B5405C
:10301000866835438560456801268E40B543456026
:10302000456896798E40B6B235434560C5684F0015
:103030000326BE40B543C560D5794E00B540C6688D
:103040003543C560491C1029BFD3F0BDF0B500233E
:1030500000244D07ED0E02FA05F3CE1000F1200515
:1030600055F826504E07F70E0F26BE40B543CF1039
:1030700000F1200646F82750CE1000F1200555F843
:10308000265045EA0304CE1000F1200545F82640FD
:10309000F0BD0246002013690B400BB1012000E097
:1030A000002070470AB1018300E04183704700BFF0
:1030B000FEE72DE9FF4F99B00F469046269D4FF051
:1030C0000009002424E01C98406906901C9880693F
:1030D00020B16869A04201DD00200690E8680590F3
:1030E0002869A04201DD00200590A869059908EB38
:1030F0008402CDE9001402903946069B199800F02D
:10310000DBFC40EA09091998483019902437641CFF
:103110002868A042D7DC17E0E86805902869A0423B
:1031200001DD00200590A86908EB8402CDE900408C
:103130003946059B199800F0C9FB40EA090919981E
:10314000483019902437641C6868A042E4DC049479
:1031500049E0E86805902869A04201DD002005905B
:1031600007A93846059A03F049FD4FF0000BE00728
:10317000039000262FE0700007A951F820004FEAC5
:10318000800A4BEA0A0B08EB062040F824A05046C0
:10319000FDF799F840EA09097000401C07A951F8A9
:1031A00020004FEA800A03988AEAE07004F00101E7
:1031B00000EB010A4BEA0A0B7000401C08EBC01040
:1031C00040F824A05046FDF77EF840EA09090020A7
:1031D00047F82600761C092ECDDB2437BBF1000F03
:1031E00000D00494641CA868A042B2DC0AE0002667
:1031F00005E0002008EBC61141F82400761C122ED1
:10320000F7DB641C202CF2DB484608B9202208E0DA
:10321000002101E0491C400000F00042002AF9D0E2
:103220000A46521EEA6104981DB0BDE8F08F000006
:103230002DE9FF4104460F4615461E46012188032D
:1032400001F066F80121880301F072F800214FF4C3
:10325000804001F06DF8ADF80070ADF80240ADF8B7
:1032600004600020ADF8060002200290ADF80C507A
:103270006946074800F068F901220221044802F07B
:1032800039FE0121024800F02BF9BDE8FF81000062
:103290000038004070B50546002400260A20B5FB22
:1032A000F0F500BF09E004EB84001F4931F810007D
:1032B000A84200D103E0601CC4B20C2CF3D300BFC1
:1032C000002001F0E3F80C2C01D1012070BD04EBCB
:1032D0008402154B03EB4202918804EB840203EB5A
:1032E0004202508801F0D8F81048006840F0806031
:1032F0000E49086000BF0D48006800F0006000281B
:10330000F9D004EB8400084901EB4000C68804EBC7
:10331000840001EB4000008946EA002646F400766E
:1033200003490E800020D1E74A0701080038024017
:103330002038004070B590B004460E461546012175
:10334000480500F0D5FF2448FEF76CFF00BF224877
:10335000FFF736F80028FAD120491F48FEF73CFF56
:10336000002000901E480190029440200390049594
:10337000002005904FF48060069040000790800088
:1033800008904011099040020A9000200B900C9088
:103390000D900E9069461048FFF76CF800223146F8
:1033A0000D48FEF7F6FF01210B48FEF7E7FF01226B
:1033B00010210948FFF740F80F208DF83C0000204D
:1033C0008DF83D008DF83E0001208DF83F000FA8DC
:1033D00000F046FF10B070BD706002403DF000A0EC
:1033E0000C3800402DE9FF4104460F4615461E46A5
:1033F00087F48070ADF80000ADF80240ADF80460CD
:103400000020ADF8060002200290ADF80C5069468D
:10341000064800F071F801221146044802F06AFDE6
:103420000121024800F05CF8BDE8FF810034004053
:1034300070B590B004460E4615460121480500F0CF
:1034400057FF2448FEF7EEFE00BF2248FEF7B8FF04
:103450000028FAD120491F48FEF7BEFE4FF0C06099
:1034600000901E480190029400200390049505905E
:103470004FF4806006904000079080000890401153
:10348000099000020A9000200B900C900D900E9075
:1034900069461048FEF7EEFF002231460D48FEF760
:1034A00078FF01210B48FEF769FF0122102109482E
:1034B000FEF7C2FF0E208DF83C0000208DF83D0085
:1034C00001208DF83E008DF83F000FA800F0C8FEE7
:1034D00010B070BD5860024000F0409F0C340040B6
:1034E00021B1828B42F48062828304E0828B4FF6AA
:1034F000FF331A408283704730B500220023848B4B
:103500004FF240052C40848302240484828B0C8873
:10351000B4F5007F01D00C8814B94FF4807308E033
:103520000C88B4F5407F03D00C88B4F5807F00D1BF
:1035300000238C888D892C434D882C431C4344F4F4
:1035400000642243828330BD2DE9F04F0025022321
:1035500000244FF0010900220026002794469046DF
:10356000B0F81CA04FF2400B0AEA0B0AA0F81CA00E
:103570004FF0020AA0F820A0858BD1F808A0BAF17C
:10358000020F01D100BF82E0B1F804A0BAF1000F30
:1035900002D14FF0010901E04FF00209DFF834A138
:1035A000DAF800A00AF4000ABAF1000F09D0DFF837
:1035B00024A1DAF800A02AF4000ADFF818B1CBF849
:1035C00000A0DFF810A10AF17C0ADAF800A0CAF323
:1035D000881CDFF800A10AF17C0ADAF800A0CAF31F
:1035E0000278DFF8F0A0AAF1040ADAF800A00AF0E5
:1035F0003F07DFF8E0A0AAF1040ADAF800A00AF415
:10360000800ABAF5800F08D1DFF8CCA0BAFBF7FA30
:103610000AFB0CFABAFBF8F607E0DFF8C0A0BAFB29
:10362000F7FA0AFB0CFABAFBF8F6B1F806A0BAF5FD
:10363000007F0ED14FEA162A0AEB8A0A4FEA4A0A9D
:10364000D1F808B0BAFBFBFA0AF1050A1FFA8AF2B0
:103650000FE04FEA491AB6FBFAFA0AEB8A0A4FEA78
:103660004A0AD1F808B0BAFBFBFA0AF1050A1FFAB8
:103670008AF24FF00A0AB2FBFAF202F00104A2EB5E
:10368000040ACAF34F034FF6FF7A0AEA0424022B16
:1036900001DBFF2B01DD02230024B1F806A04AEA7A
:1036A000040A4AEA030AA0F820A0B1F804A0B1F87D
:1036B0000CB04AEA0B0AB1F802B04AEA0B0AB1F8B8
:1036C00000B04AEA0B0A4AF4006A4AEA0505858313
:1036D000BDE8F08F0838024000127A000024F400A0
:1036E00010B501210148FEF791FD10BD7060024048
:1036F00010B500210148FEF789FD10BD7060024041
:1037000010B501210148FEF781FD10BD586002404F
:1037100010B500210148FEF779FD10BD5860024048
:103720001CB50121022000F0E3FD4FF44070009031
:1037300001208DF8040000208DF8060003208DF88C
:10374000050001208DF8070069460548FFF736FCA3
:103750000120044908600449C1F8A4021CBD00000E
:1037600000040240A08240420080404270B50446FE
:103770001548006820F44020134908600846006896
:1037800040F480200860002010490860002517E000
:10379000E0090E49091D08606006040E0220FFF7CB
:1037A0001BF901200A49C1F8A0020220FFF714F911
:1037B0000020064908600220FFF70EF9681CC5B218
:1037C000082DE5DB70BD000000040240A0824042ED
:1037D0000080404210B50F48006820F440200D4999
:1037E00008600846006840F48020086001200A490B
:1037F00008600A49C1F8A0020420FFF7EDF8002094
:10380000054908600420FFF7E7F800200349C1F8E4
:10381000A00210BD00040240A48240420080404249
:1038200010B50F48006820F440200D490860084694
:10383000006840F48020086000200A4908600A49B6
:10384000C1F8A4020420FFF7C7F801200549086069
:103850000549C1F8A4020420FFF7BEF810BD00001E
:1038600000040240A08240420080404210B5002483
:103870001348006820F44020114908600846006899
:10388000086001200F490860FFF7A6F801200E49E3
:10389000C1F8A002FFF7A0F807E0601CC4B2FA2C40
:1038A00003DDFFF7BDFF012010BD0648803800682A
:1038B0000028F2D10349091F086000BFF4E70000A7
:1038C00000040240A4824042008040422DE9FF4FA4
:1038D000A5B080460D46174600202490339807284F
:1038E0001BDA3398C0F107002490002412E058F846
:1038F00024002499084148F82400601C58F820004E
:1039000024990841611C48F821002868249908413D
:1039100001C5A41C122CEADB243D12A9404607F085
:10392000B9FE18A908F1040007F0B4FE1EA908F1B9
:10393000080007F0AFFE69462846289A03F05EF9B2
:10394000DFF870A10026002490E05DF824004FEA23
:1039500080094846FCF7B7FC0643600147F8209011
:10396000E01C5DF820004FEA80094846FCF7ABFCFC
:103970000643E01C400147F82090E21C12AB53F8CC
:1039800022105AF82400FCF79BFCA11D5DF82110C1
:1039900000EB81094846FCF796FC0643A01D400158
:1039A00047F82090C4F1050212AB53F82210E21C34
:1039B0005AF82200FCF784FC04F109015DF821109B
:1039C00000EB81094846FCF77EFC064304F1090040
:1039D000400147F82090C4F1020212AB53F82210C4
:1039E000A21D5AF82200FCF76BFC834604F1090281
:1039F00012AB53F822105AF82400FCF761FC0BEBD1
:103A0000000104F10C005DF8200001EB800948463C
:103A1000FCF759FC064304F10C00400147F82090E4
:103A200012AA52F8241004F109025AF82200FCF7F5
:103A300047FC8346C4F10B0212AB53F82210E21C80
:103A40005AF82200FCF73CFC0BEB000104F10F00DC
:103A50005DF8200001EB80094846FCF734FC064382
:103A600004F10F00400147F82090641C032CFFF67E
:103A70006CAF062405E012A850F82400801001C5A0
:103A8000641C092CF7DB0C2405E012A850F8240074
:103A9000801001C5641C122CF7DB243D29463846F2
:103AA000249B329AFFF74AF90643304629B0BDE815
:103AB000F08F000040E203082DE9FF4FAFB005464C
:103AC0000E46934600200746099044353E98072845
:103AD00025DA3E98C0F107002E9008241CE055F826
:103AE00004092E990841C71B0998381A099055F8FE
:103AF00004092E990841C71B1CAA04F10901099861
:103B000042F821001CA840F8247056F824002E9991
:103B1000084146F82400641E002CE0DA18E000207A
:103B20002E90082412E055F80419CF1B0998381A72
:103B3000099055F80419CF1B1CAA04F10901099832
:103B400042F821001CA840F82470641E002CEADA18
:103B50002598401025901C9840101C901CA807F038
:103B6000ABFC25A807F0A8FC0DF1900A6148009075
:103B70004FF000093C98002855D13298002852D1C6
:103B8000DFF8748100244BE00098006803900098EF
:103B9000001F0090DAF8240005905AF804090490F8
:103BA00005990398FCF78CFB05900498801004900D
:103BB000306840420890DDE90410401A0790DDE9C2
:103BC0000401084401C6DDE90710401A069058F8C0
:103BD000041B0698FCF774FB0146079800EB810074
:103BE000029058F8041B0698FCF76AFB01460898F7
:103BF00000EB81000190610102984BF82100C4F1B3
:103C00001101490101984BF821000298FCF75BFB78
:103C100040EA09090198FCF756FB40EA0909641CCF
:103C2000092CB1DB59E00AA930463C9A02F0E6FFC4
:103C3000329800EBC000314901EB001800244AE043
:103C40000098006803900098001F0090DAF82400A4
:103C500005905AF80409049005990398FCF730FB85
:103C60000590049880100490DDE90401401A079043
:103C7000DDE90401084401C658F824100798FCF750
:103C80001FFB0AA951F82410084480000290C4F1D7
:103C9000110058F820100798FCF712FBC4F111012D
:103CA0000AAA52F82110084480000190610102988C
:103CB0004BF82100C4F11101490101984BF8210092
:103CC0000298FCF700FB40EA09090198FCF7FBFAAF
:103CD00040EA0909641C092CB2DB243E31465846EF
:103CE0002E9B3D9AFFF72AF840EA0909484633B06F
:103CF000BDE8F08F60DB030864DB030820E1030804
:103D00001CB5044600200190009022480088000461
:103D1000214908600D204860402088600020C8606C
:103D20004FF480600861084600F0CEFC1B48006834
:103D3000009002E0194800680090009800F04500EB
:103D40000028F7D0012000F073FC20B1012000F022
:103D500045FC01201CBD042000F06AFC20B10420B9
:103D600000F03CFC0320F5E70C48243800680D28DF
:103D700001D01020EEE740F2FF5000F02FFC074882
:103D80002038006801900198C0F343202070002083
:103D9000E0E700003000002048030020342C014000
:103DA00070472DE9FF4F89B00D461646099C24B98E
:103DB0006FF004000DB0BDE8F08F204629680BF0CD
:103DC000ABFD8146B9F1000F02DA6FF00500F1E7B3
:103DD000286848442860204629680BF02BFF82465B
:103DE000BAF1000F06DA20460C99FFF7D9FF6FF001
:103DF0000600DFE728685044286009EB0A013068B4
:103E0000401A3060D4F8B80710B1D4F8B007E0B366
:103E1000D4F8B00750BB0120C4F8B00732682B6853
:103E2000A3EB0903A3EB0A01286800F054F9C4F8D6
:103E3000B407D4F8B407002806DA20460C99FFF737
:103E4000AFFF6FF00200B5E704F2B4742068484495
:103E500050440690D4E904104143E2680698424376
:103E6000D00090FBF1F06060A4F2B474204609F039
:103E70005AFED4F8B4170844C4F8CC07D4F8CC07D9
:103E8000002803DA6FF00C0094E7FFE7169808B3F8
:103E90003068C4F8CC07D4F8D80718B9D4F8CC07E0
:103EA000002806DC20460C99FFF77AFF6FF005002A
:103EB00080E7D4F8CC07C4F8DC07286802902868AB
:103EC000D4F8CC17084428603068D4F8CC17401ACE
:103ED00030605FE0D4F8CC073168884206DD2046C8
:103EE0000C99FFF75DFF4FF0FF3063E7D4F8D81768
:103EF000D4F8DC0788422BDB04F11C00D4F8DC3753
:103F00001844D4F8D837C11A1A4604F11C00FCF73B
:103F100061FFD4F8CC27296804F11C03D4F8D8C772
:103F20000CEB0300FCF711FF04F2CC742168E0688D
:103F300008442061286821680844286030682168A6
:103F4000A4F2CC74401A306004F11C00029021E00D
:103F5000D4F8CC27296804F11C03D4F8DCC70CEB97
:103F60000300FCF7F2FE04F2CC74216820690844D7
:103F70002061286821680844286030682168A4F21C
:103F8000CC74401A306020460C99FFF709FF6FF09F
:103F900001000FE700200890D4F8DC07C00007906C
:103FA000002791E04FF0000850E008980590CDE917
:103FB000007808AA2046079B02990BF0A7FD8346CC
:103FC0000598C0EBCB0008990844049004F5FC6008
:103FD00000EBC70050F828100498081A03900298C4
:103FE0005844029007990498081A0790BBF1000FF3
:103FF00003DB03990798884206DA20460C99FFF7FD
:10400000CFFE6FF00700D5E608980590CDE900785F
:1040100008AA2046DDE9021309F093FD8346BBF1AF
:10402000000F06DA20460C99FFF7BAFE6FF0080081
:10403000C0E60298584402900598C0EBCB0008995E
:1040400001440798401A079008F10108D4F8BC070A
:104050004045AADC3946204609F0BCFF002806DAB4
:1040600020460C99FFF79CFE6FF00900A2E64FF086
:1040700000080FE04246394620460AF0ACFF00280F
:1040800006DA20460C99FFF78BFE6FF00A0091E6E6
:1040900008F10108D4F8BC074045EBDCD4F8C807A8
:1040A0007843D4F8BC2750430C9A02EB40012046D9
:1040B0000BF0A8FB002806DA20460C99FFF770FEEB
:1040C0006FF00B0076E67F1CD4F8C407B8423FF7C8
:1040D00069AF00206EE62DE9F04106460D46174611
:1040E0004FF00008344627E03946204600F025F816
:1040F00080464444B8F1000F03DA4FF0FF30BDE8CA
:10410000F08120782978884212D1607869788842D5
:104110000ED1A07800F0FC00A97801F0FC018842E3
:1041200006D1A878C0F3400000B1641EA01BE6E7EA
:10413000E41C08F103003F1AD6E702460B460021B3
:104140000BE0505CFF2807D1481C105C00F0E00039
:10415000E02801D108467047491C581E8842F0DC0F
:104160004FF0FF30F7E770B50446254605B970BD3E
:1041700028460AF007FF00BFF9E7000010B5024625
:10418000104618B1D0F8D037032B08D000230B60AD
:104190004B608B60CB600B614B618B6122E000F563
:1041A000F76003680B6043684B6083688B60102383
:1041B000CB60037F03EB43030B4C04EB43048369A5
:1041C0005B1E34F91330446863430B6183694B61B0
:1041D000037F8B61D0E9033463434468A0F5F76043
:1041E0006343CB6110BD0000EADC030810B509F0A1
:1041F00047FC0446204610BD00BFFEE7704708B5E7
:104200004FF4A06000F068F836208DF80000002020
:104210008DF8010001208DF802008DF8030068463A
:1042200000F01EF837208DF8000000208DF8010006
:1042300002208DF8020001208DF80300684600F08E
:104240000FF825208DF8000001208DF801008DF871
:1042500002008DF80300684600F002F808BD000077
:1042600070B5002100230F22C4781CB3174C2468BA
:1042700004F4E064C4F5E064C4F30721C1F104046C
:10428000E3B20A4144789C40E1B28478144021436F
:104290000C07210E0E4C05786155047804F01F05BB
:1042A0000124AC4005786D11AD0005F1E025C5F89D
:1042B000004109E0047804F01F050124AC40054DDD
:1042C0000678761145F8264070BD00000CED00E040
:1042D00000E400E080E100E002490143024A11608D
:1042E000704700000000FA050CED00E07047000088
:1042F00029B1064A12680243044B1A6004E0034ADB
:1043000012688243014B1A60704700003038024047
:1043100029B1064A12680243044B1A6004E0034ABA
:1043200012688243014B1A60704700004038024017
:1043300029B1064A12680243044B1A6004E0034A9A
:1043400012688243014B1A60704700002038024017
:1043500029B1064A12680243044B1A6004E0034A7A
:1043600012688243014B1A607047000044380240D3
:1043700029B1064A12680243044B1A6004E0034A5A
:1043800012688243014B1A607047000024380240D3
:1043900010B501210F20FFF7ABFF01211020FFF71F
:1043A000D7FF10BDF0B50021002200240225002611
:1043B0000223324F3F6807F00C0121B1042905D0D8
:1043C000082937D105E02E4F076036E02D4F0760F2
:1043D00033E02A4F3F1F3F68C7F38056274F3F1FE8
:1043E0003F6807F03F036EB1264FB7FBF3F7DFF8E6
:1043F0008CC0ACF1040CDCF800C0CCF3881C07FBCB
:104400000CF40CE01E4FB7FBF3F7DFF870C0ACF113
:10441000040CDCF800C0CCF3881C07FB0CF4174F2D
:104420003F1F3F68C7F301477F1C7D00B4FBF5F7D2
:10443000076002E0124F076000BF00BF0F4F3F68E8
:1044400007F0F0010909104F7A5C0768D740476010
:104450000A4F3F6807F4E051890A0B4F7A5C4768BE
:10446000D7408760054F3F6807F46041490B064F0E
:104470007A5C4768D740C760F0BD0000083802404A
:104480000024F40000127A0014000020014988661C
:104490007047000000004742820142EA0172014B6E
:1044A0001A60704784380240C168042922DB03681F
:1044B0005A1C02601A781206426003685A1C026095
:1044C0001A78436843EA0242426003685A1C026059
:1044D0001A78436843EA0222426003685A1C026069
:1044E0001A7843681A43426020228260C268121F11
:1044F000C2601CE00022426009E003685A1C0260AE
:104500001A7843681A4342604268120242600A1EE7
:10451000A1F10101F1D1C368C3F10303DB004268DB
:104520009A404260C268D20082600022C260704736
:104530007CB50546002400200090019000260DB1B6
:10454000022600E000262248006800F0007008B152
:104550000E207CBD1F49098888B26946FEF724FBFE
:1045600004460CB12046F4E7019800F4802060B3C3
:104570001848008800041849086037204860402027
:1045800088600020C8604FF480600861084600F031
:104590009BF83720FDF7D8FC04460CB12046D8E73D
:1045A0000D48066006200C494860402088600020C5
:1045B000C8604FF480600861084600F085F8062066
:1045C000FDF7C2FC04462046C3E72520C1E70000F2
:1045D000142C0140300000204803002001490860ED
:1045E00070470000382C01400146034A106820F053
:1045F000FF00084310607047042C014000210B4B62
:1046000002681A601B1D42681A601A1D116821F0A9
:10461000F701D0E902231A4303691A4343691A4395
:104620001143024A0832116070470000242C0140F7
:1046300001460020034A12680A400AB1012000E046
:1046400000207047342C01400248006800F003004D
:1046500070470000002C014010B500F08BFC10BD2D
:1046600000210A4A116847F6FF629143027D836880
:104670001A4343681A43C3681A4303681A43036919
:104680001A431143014A116070470000042C014095
:1046900000200B490860091D0860091D0860091DFC
:1046A0000860074924310860091D0860091D086079
:1046B00004480349383108600020091D086070472C
:1046C000002C0140FF07C0000021094B02681A605E
:1046D0001A1D11686FF30A01D0E901231A43C36858
:1046E0001A4303691A431143014A121D11607047AE
:1046F000082C01400149086070470000002C01406F
:1047000070B590B004460E46154600BF1A48FDF736
:1047100057FE0028FAD11848FDF784FD4FF00060DD
:10472000019016480290039404950020059006908D
:104730004FF480600790800008908000099000206E
:104740000A904FF440300B9004200C9003200D9001
:104750004FF400000E9080100F9001A90648FDF75D
:1047600089FE20210448FDF720FE01210248FDF7C3
:104770004DFD10B070BD000058640240802C014017
:1047800070B50446002516480078032802D1272575
:10479000284670BD1248007838B1114800780128C9
:1047A00003D00F480078022817D1B4F5805F02D1FA
:1047B00027252846EDE7E0B2FFF7BAFE054665B9C2
:1047C0000848006820F4C0500649086008460068A0
:1047D000204308600846006808602846D9E70000C2
:1047E0002C000020042C0140F0B5014600200022DE
:1047F000BE4B1B7881F85630BD4B1B88A1F8543056
:10480000BC4B1B681A0E93090B70C2F383034B70E9
:1048100002F003038B70B74B1B68C3F30742CA70E7
:10482000B44B1B88C3F307220A71B24B1A784A7142
:104830005B681A0E1301CB80AE4B5B68C3F3074273
:10484000CB8843EA1213CB8002F00F030B72A94B03
:104850009B88C3F30722D3094B72C2F380138B7278
:10486000C2F34013CB72C2F300130B7300234B73DC
:104870009E4B1B783BB19D4B1B78012B03D09B4B70
:104880001B78032B4FD193071B0D0B61994B1A79A2
:104890000B6943EA82030B61964B9B681A0E0B6906
:1048A00043EA92130B61C2F3C2030B7502F00703D4
:1048B0004B75904B9B68C3F3074253098B75C2F34A
:1048C0008203CB7593075B0F0B768A4B1B89C3F36F
:1048D00007220B7E43EAD2130B760B695B1C002484
:1048E000C1E912340B7E9B1C012404FA03F3DC178C
:1048F000D1E91256A5FB037C06FB03C305FB043379
:10490000C1E912730C7A0123A3400B650024D1E99D
:1049100012650B6DA6FB037C05FB03C306FB04338A
:10492000C1E912732EE0714B1B78022B2AD1714B17
:104930001A7993069B0A0B616E4B9B681A0E0B69E2
:1049400043EA02230B616B4B9B68C3F307420B697D
:1049500013430B61674B1B89C3F307220B695B1C75
:104960004FF40074A3FB04464FF480630025A4FBBE
:10497000037C06FB03C304FB0533C1E912734FF448
:1049800000730B65C2F3801301F8193F93065B0EA9
:104990004B70584B1A7A4B7843EAD2134B7002F0A3
:1049A0007F038B70534BDB681A0ED309CB70C2F3B5
:1049B00041130B71C2F382034B7193071B0F8B7171
:1049C0004C4BDB68C3F307428B7943EA92138B713C
:1049D000C2F34013CB7100230B7202F001034B7240
:1049E000444B9B89C3F30722D3098B72C2F3801314
:1049F000CB72C2F340130B73C2F300134B73C2F3B9
:104A000081038B7302F00303CB733A4B1A7B530879
:104A10000B7401234B74384B1B681A0ECA74193976
:104A2000354B1B68C3F307421402CC85324B1B88FD
:104A3000C3F30722CB8D1343CB852F4B1A78140673
:104A40000C635B681A0E0B6B43EA02440C632A4B3F
:104A50005B68C3F307420B6B43EA02240C63264BEB
:104A60009B88C3F307220B6B13430B63224B1A790A
:104A700034235A54204B9B681A0E35235A541E4B2C
:104A80009B68C3F3074214068C631B4B1B89C3F35B
:104A900007228B6B43EA02448C63174B1A7A8B6BA9
:104AA00043EA02248C63144BDB681A0E8B6B1343AE
:104AB0008B63114BDB68C3F307423C235B5C43EA27
:104AC00012143C235C5413071C0DCC870A4B9B89A2
:104AD000C3F30722CB8F1343CB87074B1A7B5408B2
:104AE00040235C54012441235C54F0BD2C00002081
:104AF0003000002074030020840300203EB5002411
:104B0000002501218805FFF7F3FB0121C802FFF70B
:104B10001FFC0121C802FFF72BFC4FF4F850019055
:104B200002208DF8080003208DF8090000208DF880
:104B30000A0001208DF80B0001A93848FEF73EFA63
:104B40000420019001A93648FEF738FA0C22022110
:104B50003348FEF77BFA0C2211463048FEF776FA0E
:104B60000C2208212D48FEF771FA0C2209212B484E
:104B7000FEF76CFA0C220A212848FEF767FA0C228D
:104B80000B212648FEF762FA00214FF40060FFF780
:104B9000EFFBFFF77DFD31208DF8000000208DF840
:104BA00001008DF8020001208DF803006846FFF730
:104BB00057FB00F0EDF8044614B900F037F804464E
:104BC0001CB91848FFF710FE044634B91549B1F86E
:104BD0005410080400F072FD044624B94FF400603C
:104BE000FFF7CEFD04461CB10F480078032812D110
:104BF0000C4890F8560020B10A4890F85600012859
:104C000001D1022500E000252846FFF7EDFC002039
:104C100000F06CFD044620463EBD00000008024046
:104C2000000C0240980300202C00002038B500241E
:104C300001200090FFF708FD10B92524204638BD5B
:104C40004D480078042824D000204C4908600220F8
:104C50004860C02088600020C8604FF48060086110
:104C60000846FFF731FDFDF7A1F904460CB12046D7
:104C7000E5E743480068434908604148001D006873
:104C800048603F480830006888603D480C30006844
:104C9000C8603948007858B137480078012807D0F3
:104CA00035480078062803D033480078022816D10A
:104CB00000203249086003204860402088600020BE
:104CC000C8604FF4806008610846FFF7FDFC694644
:104CD0000320FDF7B1F904460CB12046AFE72648A2
:104CE0000078032816D1BDF80000000423490860AD
:104CF00003204860402088600020C8604FF4806036
:104D000008610846FFF7E0FCFDF750F904460CB1D6
:104D1000204694E71848007804282AD0BDF80000FF
:104D200019490860BDF80000000414490860092012
:104D30004860C02088600020C8604FF4806008612F
:104D40000846FFF7C1FCFDF731F904460CB12046D7
:104D500075E70B4800680D4908600948001D0068A8
:104D60004860074808300068886005480C300068D3
:104D7000C860002063E700002C00002048030020EA
:104D8000142C014084030020300000207403002014
:104D90002DE9F0470027002400260025A046A14663
:104DA00076206E4908750020086048608860C860F9
:104DB00008610846FFF754FC0320FFF79BFC684896
:104DC000006840F480706649086000BF12E000206F
:104DD0006449086048608860C8604FF4806008617A
:104DE0000846FFF771FCFDF796F8044604B903E0A6
:104DF000781CC7B24A2FEADB00BF14B12046BDE8D9
:104E0000F0874FF4D570574908600820486040206B
:104E100088600020C8604FF4806008610846FFF792
:104E200053FCFDF753F9044624B901204E4908709C
:104E30004FF0804900204B490860372048604020EF
:104E400088600020C8604FF4806008610846FFF762
:104E50003BFC3720FDF778F80446002C4CD135E0B8
:104E600000204049086037204860402088600020CA
:104E7000C8604FF4806008610846FFF725FC3720C2
:104E8000FDF762F804460CB12046B8E7374849EA16
:104E900000003449086029204860402088600020D4
:104EA000C8604FF4806008610846FFF70DFCFDF70D
:104EB000A7F804460CB12046A1E72948103006683F
:104EC000012080EAD67080F001086D1CB8F1000F57
:104ED00003D14FF6FF708542C2D34FF6FF70854273
:104EE00002D31B2420468AE706F08040061E33D0FA
:104EF00002201D4908702FE01DE01D481949086077
:104F000001204860402088600020C8604FF4806025
:104F100008610846FFF7D8FBFDF772F804460CB1AC
:104F200020466CE70E4810300668012080EAD670F3
:104F300080F001086D1CB8F1000F03D14FF6FF702F
:104F40008542DAD34FF6FF70854202D31B242046F8
:104F500055E7032004490870204650E7300300203D
:104F6000042C0140480300202C0000200000108089
:104F70000080FF8010B54FF48070FFF759FB78B3C5
:104F80004C480078012814D100204B4908600C20BF
:104F90004860402088600020C8604FF4806008614D
:104FA0000846FFF791FB0C20FCF7CEFF4349087041
:104FB00002E00020414908704148006840F48070D8
:104FC0003F490860081D00684CF23A3188433C496B
:104FD000091D086001203B4908703848007810BD61
:104FE000FFE70220FFF724FB78B10220FFF7F6FA73
:104FF0003348001D00684CF23A3188433049091D9E
:10500000086002202D490870E9E70820FFF710FB2F
:1050100078B10820FFF7E2FA2948001D00684CF239
:105020003A3188432649091D086004202349087045
:10503000D5E72020FFF7FCFA78B12020FFF7CEFA61
:105040001F48001D00684CF23A3188431C49091D75
:105050000860062019490870C1E71020FFF7E8FA38
:1050600078B11020FFF7BAFA1548001D00684CF21D
:105070003A3188431249091D086005200F4908701C
:10508000ADE74FF40070FFF7D3FA80B14FF4007032
:10509000FFF7A4FA0A48001D00684CF23A31884331
:1050A0000749091D086007200449087097E7002098
:1050B00095E700003500002048030020360000205E
:1050C000382C0140370000202DE9F84F8146174663
:1050D00098460A9C4FF0000AD3464D464FF0FF36E3
:1050E000B9F1000F02D12620BDE8F88F00208649D3
:1050F000086086480078022805D10402780A40EA50
:10510000C8574FEA68280020814988604860401EDF
:105110000860012048610020C86008610846FFF768
:105120006DFA79481838006800F0007008B10E2058
:10513000DAE7002C21DDB4F5006F1EDC601E204094
:10514000D8B9204603F0FAFA0090724804601020A3
:1051500070494860402088600020C8604FF480603B
:1051600008610846FFF7B0FA1020FCF7EDFE824612
:10517000BAF1000F03D05046B6E72620B4E70098F6
:10518000000163498860084644604FF0FF300860C2
:10519000012048610220C860002008610846FFF72E
:1051A0002DFA5C48076011205A4948604020886009
:1051B0000020C8604FF4806008610846FFF784FA59
:1051C0001120FCF7C1FE8246BAF1000F01D0504613
:1051D0008AE75148007800285CD1FBF74DF818E0C9
:1051E0004FF40040FFF724FA78B14FF0000B06E0CF
:1051F00045485430006845F82B000BF1010BBBF11A
:10520000080FF5D32035454E03E00EB904206BE7B7
:10521000761E3D480830006840F22A6108400028A8
:10522000DED00820FFF704FA20B10820FFF7D6F9F6
:10523000042059E70220FFF7FBF920B10220FFF715
:10524000CDF9022050E72020FFF7F2F920B120200D
:10525000FFF7C4F9062047E74FF40070FFF7E8F9BD
:1052600028B14FF40070FFF7B9F907203CE704E0DC
:1052700025485430006828602D1D4FF40010FFF7BA
:10528000D7F90028F4D1FAF7F9FF40F2FF50FFF701
:10529000A5F936E020480078012832D100202049C5
:1052A00008702049087020490870174810300068BD
:1052B00040F22A310843144910310860124800684E
:1052C00040F0080010490860002221464846FFF7D8
:1052D00017FA00E0761E1548006800F0006038B943
:1052E0001148007820B90E48007808B9002EF1D195
:1052F0000EB90420F8E60A48007810B1084890F882
:1053000000A05046F0E600002C2C01402C000020AC
:105310005C0300204803002034000020FFFF7F00D2
:1053200036000020350000203700002000640240D5
:105330002DE9FE4F83460C46914600200290002640
:1053400025462C46700240EAD5566D020BF003004C
:10535000F0B14FF0000A18E04FF4007000904FEAEF
:105360004A20471946EBE0733A461648FFF7ACFE71
:1053700002904FF4007213495846FBF7E6FC0BF518
:10538000007B0AF1010000F0FF0ACA45E4DB16E0E9
:10539000B9F1010F09D14FF400702A46334600904D
:1053A0005846FFF791FE029009E04FF400702A463C
:1053B0003346CDE90009584600F006F802900298FD
:1053C000BDE8FE8FF00300202DE9FF5F17469846E9
:1053D000DDE90E464FF00009CA464FF0FF35AC49F3
:1053E000009808600020AB490860AB4800780228AC
:1053F00005D10402780A40EAC8574FEA682800201D
:10540000A64988604860401E08600120486100206D
:10541000C86008610846FFF7F1F89E481838006830
:1054200000F0007018B10E2004B0BDE8F09F002C11
:1054300021DDB4F5006F1EDC601E2040D8B9204687
:1054400003F07CF983469648046010209449486034
:10545000402088600020C8604FF4806008610846E2
:10546000FFF732F91020FCF76FFD8146B9F1000F0C
:1054700003D04846D8E72620D6E7012E71D906FB8F
:1054800004F0B0F1007F01D32620CDE74FEA0B10E6
:105490008249886006FB04F048604FF0FF300860E6
:1054A000012048610220C860002008610846FFF71B
:1054B000A5F87B4807601220794948604020886041
:1054C0000020C8604FF4806008610846FFF7FCF8D0
:1054D0001220FCF739FD8146B9F1000F01D0484692
:1054E000A2E77048007800287ED1FAF7C5FE1EE0DA
:1054F0004FF40040FFF79CF8A8B14FF0000A08E015
:105500006448543000686249096841F82A000AF189
:10551000010ABAF1080FF3D35D48006820305C49F6
:105520000860614D03E00DB904207DE76D1E594808
:105530000830006840F22A3108400028D8D00820FE
:10554000FFF776F820B10820FFF748F804206BE752
:105550000220FFF76DF828B10220FFF73FF8022084
:1055600062E792E02020FFF763F820B12020FFF7E8
:1055700035F8062058E74FF40070FFF759F828B1C6
:105580004FF40070FFF72AF807204DE70AE0414882
:10559000543000683E49096808603D480068001DB5
:1055A0003B4908604FF40010FFF742F80028EED1A5
:1055B0004FF48070FFF73CF820B33748007838B1DB
:1055C00035480078012803D033480078022819D1E3
:1055D0000020334908600C2048604020886000208B
:1055E000C8604FF4806000E013E008610846FFF7F0
:1055F0006BF80C20FCF7A8FC8146B9F1000F01D034
:10560000484611E7FAF73AFE40F2FF50FEF7E6FF90
:105610003BE024480078012837D100202349087056
:1056200001202349087000202249087019481030D1
:10563000006840F22A3108431649103108601548C5
:10564000006840F008001349086006FB04F10022DE
:105650000098FFF755F800E06D1E1748006800F04D
:10566000006008B9002DF7D10DB90420DCE600BFB9
:105670001048007818B90D4800780028F8D00B4879
:10568000007810B1094890F800904846CCE6000038
:10569000380000202C2C01402C0000205C0300204E
:1056A0004803002034000020FFFF7F003600002068
:1056B00035000020370000200064024010B5044689
:1056C000094804600720084948604020886000209D
:1056D000C8604FF4806008610846FEF7F5FF0720B8
:1056E000FCF732FC10BD00004803002001460020FA
:1056F000012900D011B9024B197000E02620704733
:10570000340000202DE9FF5F86B017469846149DAF
:1057100000260020059004900024814603908246D4
:1057200002900195DDF818B0DDF818B0BBF1000F5C
:1057300003D126200AB0BDE8F09F0020C9490860C7
:10574000C94988604860401E086001204861002007
:10575000C86008610846FEF751FFC2481838006863
:1057600000F0007008B10E20E4E7C048007802287D
:1057700005D10502780A40EAC8574FEA6828002D8B
:105780001FDDB5F5006F1CDC681E2840C8B928462F
:1057900002F0D4FF0590B64805601020B449486077
:1057A000402088600020C8604FF48060086108468F
:1057B000FEF78AFF1020FCF7C7FB06461EB13046F5
:1057C000B8E72620B6E7AB4800880004A84908607F
:1057D0000D204860402088600020C8604FF4806041
:1057E00008610846FEF770FF0D20FCF7ADFB06468A
:1057F0000EB130469EE79B481838006803904FF082
:10580000FF341CE0641E9B4800880004984908602F
:105810000D204860402088600020C8604FF4806000
:1058200008610846FEF750FF0D20FCF78DFB064689
:105830000EB130467EE78B48183800680390039815
:1058400000F4807008B9002CDCD10CB9292071E774
:1058500087480760182086494860402088600020FB
:10586000C8604FF4806008610846FEF72DFF1820DD
:10587000FCF76AFB06460EB130465BE700207E4926
:1058800008700598000178498860084645604FF027
:10589000FF300860012048610020C86008610846A8
:1058A000FEF7ACFE4FF0FF347448007800287ED13C
:1058B000FAF7E2FC45E04FF48040FEF7B9FED8B3BA
:1058C0000198A0EB0900202822D20198A0EB090042
:1058D00000F0030020B90198A0EB0900800804E063
:1058E0000198A0EB09008008401C02904FF0000ACC
:1058F0000AE05C495431DBF8000008600AF1010A53
:105900000BF1040B09F1040902988245F1D310E070
:105910004FF0000A06E05BF82A0052495431086053
:105920000AF1010ABAF1080FF5D30BF1200B09F1C6
:1059300020096FF0404404E0FFE70CB90420F9E6C9
:10594000641E48480830006840F21A610840002888
:10595000B1D00820FEF76CFE20B10820FEF73EFE15
:105960000420E7E60220FEF763FE20B10220FEF7E6
:1059700035FE0220DEE61020FEF75AFE20B1102090
:10598000FEF72CFE0520D5E64FF40070FEF750FE22
:1059900030B14FF40070FEF721FE0720CAE606E0A2
:1059A000FAF76CFC40F2FF50FEF718FE41E0334876
:1059B000007801283DD10020314908702E49087037
:1059C0003049087027481030006840F21A31084307
:1059D000244910310860402229460698FEF790FEBF
:1059E0002048006840F008001E49086000E0641E7E
:1059F0002548006800F0006008B9002CF7D11CB9F8
:105A0000FFF77CF8042095E64FF0FF3400E0641EB9
:105A10001C48007820B91A48007808B9002CF6D143
:105A20000CB9042086E61648007810B114480078B6
:105A300080E640F2FF50FEF7D1FD04A8FEF760F9C2
:105A4000064603E004A8FEF75BF906463EB99DF85A
:105A500010000728F6D09DF810000628F2D0304636
:105A600068E600002C2C01405C0300202C00002084
:105A700048030020300000203500002034000020C2
:105A80003600002037000020006402402DE9FE4F60
:105A900081460C46924600200290002625462C4660
:105AA000700240EAD5566D0209F00300F0B14FF0E4
:105AB000000B18E04FF4007249461948FBF745F90E
:105AC0004FF4007000904FEA4B20471946EBE0730B
:105AD0003A461348FFF716FE029009F500790BF1DC
