:020000040800F2
:1000000088AC002095020008653000081F29000810
:1000100061300008551800089F51000800000000DA
:10002000000000000000000000000000E74C000895
:10003000FD2500080000000055310008D54D0008DE
:10004000AF020008AF020008AF020008AF020008CC
:10005000AF020008AF020008AF020008AF020008BC
:10006000AF020008AF020008AF020008AF020008AC
:10007000AF020008AF020008B1220008DD2200082C
:10008000AF020008AF020008AF020008AF0200088C
:1000900059180008AF020008AF020008AF020008BC
:1000A000AF020008AF020008AF020008AF0200086C
:1000B000AF020008AF020008AF020008AF0200085C
:1000C000AF020008AF020008AF020008AF0200084C
:1000D000AF020008C54F0008AF020008AF020008D9
:1000E000AF020008AF020008AF020008AF0200082C
:1000F000AF020008AF020008AF020008AF0200081C
:10010000AF02000839340008AF020008AF0200084F
:10011000AF020008AF020008454E00084D4E00082F
:10012000AF020008AF020008AF020008AF020008EB
:10013000AF020008AF020008AF020008AF020008DB
:10014000AF020008AF020008AF020008AF020008CB
:10015000AF020008AF020008AF020008AF020008BB
:10016000AF020008AF020008AF020008AF020008AB
:10017000AF020008AF020008AF020008AF0200089B
:10018000AF020008AF02000800F002F800F06FF8BC
:100190000AA090E8000C82448344AAF10107DA45E2
:1001A00001D100F064F8AFF2090EBAE80F0013F0C5
:1001B000010F18BFFB1A43F001031847186703002B
:1001C000386703000A444FF0000C10F8013B13F0AD
:1001D000070408BF10F8014B1D1108BF10F8015BA0
:1001E000641E05D010F8016B641E01F8016BF9D193
:1001F00013F0080F1EBF10F8014BAD1C0C1B09D1EA
:100200006D1E58BF01F801CBFAD505E014F8016B5B
:1002100001F8016B6D1EF9D59142D6D370470000ED
:100220000023002400250026103A28BF78C1FBD8FF
:10023000520728BF30C148BF0B60704766290BF0DA
:10024000CD83642900F0F080732900F07E850020C2
:1002500070471FB50BF0BDFB00F0C0FD040000208F
:1002600000210BF0F1F9E0601FBD10B510BD00F0EA
:10027000B5FE1146FFF7EDFF09F0E8FB00F0D3FEF5
:1002800003B4FFF7F2FF03BC05F014FB72B670472E
:1002900062B670470948804709480047FEE7FEE715
:1002A000FEE7FEE7FEE7FEE7FEE7FEE7FEE7FEE726
:1002B00004480549054A064B70470000DD4D00081B
:1002C0008901000888A6002088AC002088A80020AA
:1002D00088A80020704710B54C1084EA530404D558
:1002E0004042C1F1000138BF491E1B4204D55242B1
:1002F000C3F1000338BF5B1E00F012FA14F0804F08
:1003000004D04042C1F1000138BF491E14F0004F33
:1003100004D05242C3F1000338BF5B1E10BD000081
:100320000FB4044910B503AA029800F013FD10BCE5
:100330005DF814FBB80100200FB41CB50C0007AA2F
:10034000009001D02044401E074B7B446946019039
:10035000069800F0C8FC002C03D06946002000F08D
:10036000D5FC1CBC5DF814FBC90900002DE9F04167
:100370000E460446002020622046E168884730B3DC
:10038000252805D0D4E901219047206A401CF2E7D6
:10039000E168204600278847050018D0A5F14100F4
:1003A000192802D820354FF40067324629462046E6
:1003B0002760FFF743FF40B1012804D0F61D26F067
:1003C00007060836D8E7361DD6E72846DAE7206A5A
:1003D000BDE8F08170B50C460546012A05D02878A5
:1003E000800600D5EA69002302E0012305E05B1CDA
:1003F000934202D2E05C0028F9D1A869E618C01A3D
:10040000A861286A184428622846AFF3008004E0F7
:10041000D5E9012114F8010B9047B442F8D32846DE
:10042000AFF3008070BD00002DE9F04106460024C6
:1004300010687529314616A510D0AFF3008000284A
:1004400002DA404213A507E031688A0701D512A5F8
:1004500002E0490704D511A5012401E0AFF30080B3
:1004600000210A2206F1240709E0B0FBF2FCB0FBF0
:10047000F2F302FB1C00303078541846491C002867
:10048000F3D123462A463046BDE8F04100F0BFB91B
:10049000000000002D0000002B00000020000000E4
:1004A00040EA0103024630B59B0710D14FF00134FA
:1004B00000E008C208C91D1B9D4315EAC41FF8D0FF
:1004C00013F0FF0102F8011B0DD01B0AF8E711F829
:1004D000013B002B02F8013B05D011F8013B002B3A
:1004E00002F8013BF3D130BD10B5431C02E010F817
:1004F000011B71B18107FAD14FF0013202C88C1A89
:100500008C4314EAC211F9D0C01A0A0603D0C01EE7
:1005100010BDC01A10BD0A0401D0801E10BD090212
:10052000FCD0401E10BD032A40F2308010F0030CB6
:1005300000F0158011F8013BBCF1020F624498BF36
:1005400011F801CB00F8013B38BF11F8013BA2F1D3
:10055000040298BF00F801CB38BF00F8013B11F04E
:10056000030300F00984083AC0F0088051F8043B06
:10057000083A51F804CBA0E80810F5E7121D5CBF5B
:1005800051F8043B40F8043BAFF30080D20724BF8E
:1005900011F8013B11F801CB48BF11F8012B24BF22
:1005A00000F8013B00F801CB48BF00F8012B704771
:1005B0004FF000020429C0F0128010F0030C00F08C
:1005C0001B80CCF1040CBCF1020F18BF00F8012B0A
:1005D000A8BF20F8022BA1EB0C0100F00DB85FEAD8
:1005E000C17C24BF00F8012B00F8012B48BF00F8A4
:1005F000012B70474FF0000200B513469446964613
:10060000203922BFA0E80C50A0E80C50B1F1200125
:10061000BFF4F7AF090728BFA0E80C5048BF0CC0D3
:100620005DF804EB890028BF40F8042B08BF704731
:1006300048BF20F8022B11F0804F18BF00F8012BA3
:10064000704710B5044610F0030F08BF11F0030FF8
:1006500040F015804FF0013E121FC0F20E8051F89D
:10066000043BA3EB0E0C2CEA030C1CEACE1C08BFC7
:1006700040F8043BF0D0A1F1040102F10402521E43
:1006800008DB11F8013B002B00F8013BF7D11146C4
:10069000FFF78EFF204610BD4FF0013C50F8042BB1
:1006A00051F8043B9A4221D1A2EB0C03934313EA85
:1006B000CC1317D150F8042B51F8043B9A4215D1B2
:1006C000A2EB0C03934313EACC130BD150F8042B89
:1006D00051F8043B9A4209D1A2EB0C03934313EA6D
:1006E000CC13DBD04FF00000704700BFD01A01BA26
:1006F000B1FA81F101F0180122FA01F0CB40C1F109
:100700002001DBB2C0B2C01A2CFA01F3D11A914316
:1007100011EAC311E6D170477047704770477047C0
:1007200053EA020C00F069802DE9F04B4FF000060F
:10073000002B1FBFB3FA83F503FA05F424FA05F67C
:100740005E4012BF1643B2FA82F502FA05F4C5F113
:1007500020051EBF22FA05FC44EA0C04203556EAA7
:10076000044C4FEA144418BF641C4FF000084FF0CB
:100770000009904271EB030C39D3002919BFB1FA7B
:1007800081F701FA07F6B0FA80F700FA07F6C7F129
:1007900020071EBF20FA07FC46EA0C062037B6FBEE
:1007A000F4FCA7EB0507103F07F01F0BCBF1200669
:1007B0000CFA0BFB2CFA06F644BFB3460026202F9A
:1007C000A4BF5E464FF0000B5BEA060C08BF4FF07B
:1007D000010B19EB0B09ABFB027C48EB0608C01BB5
:1007E00006FB02CC0BFB03CC71EB0C01C1E70B4603
:1007F000024641464846BDE8F08B13B54FF0000075
:100800004FF00001AFF30080BDE81C4070472DE9B8
:10081000F0470D4699469246044600F124080168C7
:10082000880604D5E06921F01001216000E0012074
:10083000A84201DD471B00E00027A1697A1902EBFD
:100840000900081AA0612078C00602D42046AFF340
:100850000080002608E0D4E901211AF8060090473C
:10086000206A401C761C20624E45F4DB2078C006CE
:100870000AD52046AFF3008006E0D4E901213020FC
:100880009047206A401C2062381EA7F10107F4DC63
:1008900007E0D4E9012118F805009047206A401CC0
:1008A0002062281EA5F10105F3DC2046AFF300808D
:1008B0002078000602D50220BDE8F0870120FBE782
:1008C00070472DE9FF4F0C461E464FF0FF378BB0A7
:1008D000D2E90001DDF860800A908A46C1F30A552A
:1008E00005B93D46002108464FF00000BAF1000F5F
:1008F00000F4400005DA00EB80004FF4400101EA0B
:1009000050004FEA9059B9F1010F00DDB9460A983D
:1009100050EA4A000ED044F61050A5F2FF35454388
:100920002F14B8F1000F1ED07542291E1EDDC9F12B
:1009300000021CE0B8F1010F4FF0000001D030219F
:1009400003E0F24305E02154401CB042FBDB30469B
:100950000022002121540B99C1F80880C1E9002030
:100960000FB0BDE8F08FBD1B6D1CDEE74A4600DA14
:10097000694206A800F0BCFA06AB93E8070003AB97
:1009800083E8070050460A9900F056FB8DE80700FF
:10099000A0F500501F3800900398002D09DD42F2A9
:1009A0001F014A46084403A90390684600F0B5FDBC
:1009B00008E0A0F500504A461F3803A90390684696
:1009C00000F0BFFD8DE807000004000C03D04FF0DD
:1009D000FF30410800E01046B8F1000F03D00022BC
:1009E000009215461EE0751E05D400F0FBF930326A
:1009F00062556D1EF9D5B3460122084302D000228C
:100A00007F1C04E02078302801D100227F1E002ABC
:100A1000099786D01DE0112D07DA00F0E3F9303296
:100A200062556D1C50EA0102F5D1084302D00098CE
:100A3000C8B10EE00021681E05E0235C625C6354CF
:100A40002254401E491C8142F7DBAB46A81B401EC6
:100A50000990002004F80B000B98099AC0F8088050
:100A6000C0E9002B7CE711264FF0000859E72DE97B
:100A7000F04F88460446D21D22F0070191B0D1E91B
:100A80000001CDE90A0104F0B7FD02460B98C00F42
:100A900001D02D2007E02068810701D52B2002E03E
:100AA000202101EAC000032A099001D0072A05DBB2
:100AB00003464146204600F0DBF90BE12078800632
:100AC00001D5E06900E00620B8F1650F814606D047
:100AD000B8F1660F18D0B8F1670F70D131E000207F
:100AE000B9F1110F009001DB112301E009F10103BD
:100AF0000AAA01A90CA8FFF7E4FEDDE90C700026A4
:100B000009F10105834647E001204B4600904FF074
:100B100000470AAA01A90CA8FFF7D3FEDDE90DB032
:100B20000C995D46002610B909F101000D18B9EBCA
:100B3000050003D4C0F1FF3609F10105A5EB09005A
:100B40002BE0B9F1010F01DA4FF001090020B9F1F2
:100B5000110F0090484601DD112300E003460AAA68
:100B600001A90CA8FFF7ADFEDDE90C704D4600268B
:100B70008346207800070AD4AB4500DA5D4601A819
:100B8000012D04DD411911F8011C302907D04F4512
:100B900002DA17F1040F04DA012082460FE06D1E1D
:100BA000EEE7002F02DCED1B3E4403E0781CA84278
:100BB00000DD7D1CB81B00F1010A4FF000472078D2
:100BC000000703D4AA4501DB4FF0FF3A0021B7F13B
:100BD000004F0DF143088DF8431024D002202B2341
:100BE000002F01DA7F422D230A21021EA0F101000D
:100BF00000DC5FB197FBF1FC97FBF1F201FB1C7C81
:100C000017460CF1300C08F801CDEEE7A8F1010011
:100C100003702188090501D5452100E06521A0F177
:100C2000010800F8011C09980FA9A1EB0807FF1D96
:100C300000B10120411901EBEA70A1693844081A9A
:100C4000401EA0612078C00602D42046AFF3008089
:100C5000099828B1D4E901219047206A401C2062FC
:100C60002078C00622D52046AFF300801EE0002E7B
:100C700004DBB34502DD01A8805D00E03020D4E94B
:100C800001219047206A401C2062761CAAF10100D5
:100C90005FEA000A0AD100F0A1F8C0680168405C70
:100CA000D4E901219047206A401C2062281EA5F14A
:100CB0000105DCDC07E0D4E9012118F8010B9047BD
:100CC000206A401C2062381EA7F10107F3DC204691
:100CD000AFF30080032011B043E6000001694A1C15
:100CE00002610878704700B58FB0CDE9013100216D
:100CF000059105497944CDE9031011466846FFF78F
:100D000035FB0FB000BD0000E5FFFFFF0A6802F8E9
:100D1000010B0A607047D1E900239A4202D2531CAA
:100D20000B601070704710B5436913B1AFF30080CA
:100D300001E0FFF74FFB012010BD127800F1240104
:100D40000A7000224A700122EDE711684FF0FF326D
:100D5000E9E70000074B70B50D467B44FFF7C3FF82
:100D60000446284600F032F910B14FF0FF3070BD54
:100D7000204670BDC385000010B5203AC0F00B803E
:100D8000B1E81850203AA0E81850B1E81850A0E88F
:100D90001850BFF4F5AF5FEA027C24BFB1E81850E9
:100DA000A0E8185044BF18C918C0BDE810405FEA59
:100DB000827C24BF51F8043B40F8043B08BF7047D5
:100DC000D20728BF31F8023B48BF11F8012B28BFDA
:100DD00020F8023B48BF00F8012B704700487047DD
:100DE00044A6002030B5B0F10A024FEA900E71F12E
:100DF00000034EEA817EB0EB0E0061EB91014FEAF9
:100E0000101E4EEA017E10EB0E0041EB11114FEA6D
:100E1000102E4EEA016E10EB0E0041EB11214FEA4D
:100E2000104E4EEA014E10EB0E0041EB11414018FE
:100E300041F100014FEAD00040EA41704FEAD10190
:100E400010EB80054FEA810444EA907444EB0104FE
:100E50006D1944EB0404521BA3414FF0000348BF3B
:100E60000A3200D530BD401C41F1000130BD000008
:100E70002DE9F0411F46044603260168072A01F4C4
:100E8000006004DB08B116A505E016A503E008B173
:100E900015A500E015A521F010002060A069C01E76
:100EA000A0610FB1401EA0612046AFF300804FB19A
:100EB000D4E9012138469047206A401C2062C01CBA
:100EC000206206E0206AFAE7D4E9012115F8010B57
:100ED0009047761EF8D22046AFF30080BDE8F0813F
:100EE0004E414E006E616E00494E4600696E6600CE
:100EF0002DE9F047814616468AB0334878440DC83C
:100F00008DE80D0030487844801C03AC0DC884E89F
:100F10000D0041F69B300844372190FBF1F290FB25
:100F2000F1F5A5F1800501FB12041B3C02D56442DA
:100F3000012000E00020DFF890A080460027FA445E
:100F4000AAF1BE0A0DE0E00709D03246684607EB79
:100F500047010AEB810100F0F4FA8DE80700641004
:100F60007F1C002CEFD1184F7F44AC3F18E0E807FE
:100F700014D007EB04100DF1180A90E80E008AE86F
:100F80000E00C068F04201D198190890324606A9B7
:100F900003A800F0D6FA03AB83E807006D10641CC9
:100FA000002DE4D132466946B8F1000F03A802D003
:100FB00000F0B3FA01E000F0C4FAC9E90001C9F891
:100FC00008200AB0BDE8F08734590300007B00F028
:100FD000800070470048704724A600207546FFF740
:100FE000F9FFAE4605006946534620F007008546E6
:100FF00018B020B5FFF75CF9BDE820404FF00006BF
:101000004FF000074FF000084FF0000B21F00701F0
:10101000AC46ACE8C009ACE8C009ACE8C009ACE833
:10102000C0098D46704710B50446AFF300802046D6
:10103000BDE81040FFF724B95FEA400C08BF91F00B
:10104000000F4FEA8C234FEAC12243EA51514FEA85
:101050001C5018BF00F5F0404FEA300018BF41F0B7
:1010600000415FEA6C5C00F02980BCF1FF3F08BFE3
:1010700040F080407047130C06BF12044FF0100C74
:101080004FF0000C130E04BF12020CF1080C130FEA
:1010900004BF12010CF1040C930F04BF92000CF179
:1010A000020CD30F04BF52000CF1010C11464FF09B
:1010B0000002A0F11F00A0EB0C00704711F0004FE0
:1010C00008BF704731F000413FF4D5AF0B0C06BFAD
:1010D00009044FF0100C4FF0000C0B0E04BF090276
:1010E0000CF1080C0B0F04BF09010CF1040C8B0F61
:1010F00004BF89000CF1020CCB0F04BF49000CF1B6
:10110000010CCCF12003A0EB0C0022FA03F302FA4D
:101110000CF241EA030100F10100704720F07F4C1E
:1011200080EA030023F07F47ACEB070303F57C5311
:1011300000F0004003F1FF032DE980494FEA154B11
:1011400009B44FEA144325EA0B4E24EA03480FF290
:10115000042606EB132749083E785FEA320203FBB8
:101160000667C7F5000707FB06F64FEA54374FEA54
:10117000D64606F1020607FB066CCCF1005C4FEA8E
:101180001C472CEA074C07FB06F40CFB06F504EBA6
:1011900015464FEA961634BF00204FF000404FEA44
:1011A000D13706FB07FC4FEA1C4C0CFB0BF7D21B9C
:1011B00003FB0CF761EB07010CFB0EF7B0EB0740EC
:1011C00072EB17420CFB08F734BFA2EB0742B2EBFD
:1011D000074261EB17414FEA0C444FEA910706FBC7
:1011E00007FC4FEA1C4C0CFB0BF7B0EBC74072EB53
:1011F000573203FB0CF734BFA2EBC742B2EBC74236
:1012000061EB57310CFB0EF7B0EBC70072EB577276
:101210000CFB08F734BFA2EBC702B2EBC70261EBCD
:101220005771039F4FEA816141EA921104EBCC04AC
:101230004FEAD1374FEA826206FB07FC42EA90127E
:101240004FEA80604FEA1C4C0CFB0BF7D21B03FBF0
:101250000CF761EB07010CFB0EF7B0EB074072EBEC
:1012600017420CFB08F734BFA2EB0742B2EB074270
:1012700061EB17414FEA8C554FEA910704EB9C2430
:1012800006FB07FC4FEA1C4C0CFB0BF7B0EBC7400E
:1012900072EB573203FB0CF734BFA2EBC742B2EB41
:1012A000C74261EB57310CFB0EF7B0EBC70072EB96
:1012B00057720CFB08F734BFA2EBC702B2EBC702B0
:1012C00061EB577115EB4C254FEA816141EA9211B0
:1012D0004FEA82624FEAD13742EA901206FB07FCDE
:1012E00044F100044FEA80604FEA1C4C0CFB0BF702
:1012F000D21B03FB0CF761EB07010CFB0EF7B0EB05
:10130000074072EB17420CFB08F734BFA2EB074211
:10131000B2EB074261EB174115EB1C154FEA813127
:1013200041EA92414FEA823242EA90424FEA8030EB
:101330004FEA0C7644F1000448EA03434EEA0B48B6
:101340004FF0000EB2EB080C71EB030724BF6246AE
:1013500039464EEB0E0E4FF0000B0018524149413A
:101360004BEB0B0BB2EB080C71EB03077BF1000BA3
:1013700024BF624639464EEB0E0E4FF0000B0018AC
:10138000524149414BEB0B0BB2EB080C71EB0307DD
:101390007BF1000B24BF624639464EEB0E0E51EA3C
:1013A000020718BF46F0010616EB0E7655F1000253
:1013B00054F1000103D5BDE88901BDE80088BDE80E
:1013C0008901BDE80048B619524141EB0101A3F182
:1013D0000103704780807F7E7D7C7B7A7978777689
:1013E00076757473727171706F6E6E6D6C6C6B6A02
:1013F0006A696868676666656464636362616160A0
:10140000605F5F5E5E5D5D5C5C5B5B5A5A5959581C
:101410005857575656555555545453535252525186
:10142000515050504F4F4F4E4E4D4D4D4C4C4C4BDC
:101430004B4B4A4A4A494949484848474747474623
:10144000464645454544444444434343434242425F
:1014500042414141002B26D4770021D01CB54FEAF0
:10146000370703B44FF010004FF010014FF00000A9
:101470000FBCBDE810400BF1010BBBF1010F08BF21
:101480005FEA170722BF12F1010211F101014FF0CB
:10149000004143F1000300F0004043EA00007047C0
:1014A000F9D35708DAE746EA064613F1400F4FEA48
:1014B00016461FDD13F1200FDFBF16430A46002139
:1014C00020335B42C8D0C3F1200746EA064602FA41
:1014D00007F74FEA164646EA0706C3F1200722FA45
:1014E00003F201FA07F721FA03F14FF0000342EA91
:1014F0000702B1E746EA020646EA06464FEA164602
:1015000046EA0106BCBF46EA0646360C4FF0000329
:101510004FF000024FF000019EE72DE9C0489346CE
:1015200030B491E8380007C831EA400C48BF34EACB
:10153000430C03D5FFF7F2FDFFF78CFFF0BCBDE8CD
:1015400000882DE9C048934630B491E8380007C8B8
:1015500010F0804F08BF13F0804F03D100F005F862
:10156000FFF778FFF0BCBDE8008820F07F4780EAF5
:10157000030023F07F4C07EB0C03A3F57C5300F032
:101580000040A3F1FE0392F0000F00F0B38095F04D
:10159000000F00F077802DE901494FEA11404FEA32
:1015A000144621EA004800FB06FC24EA064708FB33
:1015B00006F607FB08F800FB07F718EB06484CEBAC
:1015C000164C4FEA124B18EB07484FEA15464CEB06
:1015D000174022EA0B4E0BFB06FC25EA06470EFBE2
:1015E00006F607FB0EFE0BFB07F71EEB064E4CEB59
:1015F000164C4FF000061EEB074E4CEB174B18EB4A
:101600000B0840F1000018EB0E0B58EB000840F1FE
:1016100000008F1A4FF000013CBFC943661B14BF86
:10162000B5EB040C00213CBFC943F61B4FEA17443D
:101630004EEA8E0E27EA04454FEA1C4704FB076278
:101640002CEA074C05FB07F70CFB05F604FB0CFC2A
:1016500016EB074642EB174216EB0C4642EB1C42D8
:101660001BEB060658EB0202414146EA9E0601D5F5
:10167000BDE80189B619524141EB0101A3F1010313
:10168000BDE801894FEA14454FEA114724EA0546AF
:1016900021EA074C05FB07F406FB07F70CFB06F1F4
:1016A00005FB0CFC11EB074144EB17444FEA1247D2
:1016B00011EB0C4144EB1C4422EA074C05FB07F2FA
:1016C00006FB07F70CFB06F605FB0CFC16EB0746C2
:1016D00042EB174216EB0C4642EB1C456A1854F1DC
:1016E000000148BF7047B619524141EB0101A3F117
:1016F0000103704795F0000F37D04FEA11424FEACF
:10170000144721EA024624EA074C02FB07F106FBD4
:1017100007F70CFB06F402FB0CFC14EB074441EB4F
:1017200017414FEA154714EB0C4441EB1C4125EAE5
:10173000074C02FB07F506FB07F70CFB06F602FB5E
:101740000CFC16EB074645EB174516EB0C4645EB34
:101750001C42121951F1000148BF7047B61952419D
:1017600041EB0101A3F1010370474FEA14454FEA31
:10177000114724EA054621EA074C05FB07F106FB61
:1017800007F70CFB06F24FF0000605FB0CFC12EB12
:10179000074241EB174112EB0C4251EB1C4148BF91
:1017A0007047921841EB0101A3F10103704700005B
:1017B00070B5234800684FF47A72B0FBF2F1481E0E
:1017C000B0F1807F01D301201BE0481E4FF0E022E2
:1017D000506150170F22002804DB13071C0E194B11
:1017E0001C5406E013071D0E174B00F00F04241FB6
:1017F0001D5500BF00204FF0E022906107201061CE
:10180000002008B100BFFEE701F0F6FC00F0D0FFB9
:1018100001F029FC04F086FF05F0F4F808F0EFF978
:1018200009F0ACFA00F0DCF906F0B8FB0749012238
:10183000086807A106F06CFE03F06AFD70BD0000A9
:101840007C00002000E400E018ED00E0BC01002076
:10185000303A000000BFFEE710B586B001AA0021B3
:10186000154800F037FA002414E00DF10F00005D78
:101870001249134A1288885411480088401C1049A4
:10188000088008460088B0F5C87F01D10020088094
:10189000601CC4B29DF80E00A042E6DC0948007846
:1018A00038B900220121084801F034F80120054927
:1018B000087006B010BD000000640040F001002078
:1018C000A0000020A7000020000402400849094AA7
:1018D0001288885C07490988491C064A118011460C
:1018E0000988B1F5C87F01D100211180704700003F
:1018F000F0010020A2000020044800880449098863
:10190000884201D1002070470120FCE7A0000020A0
:10191000A20000202DE9F04707460C462046E117BB
:1019200004EB5171C1F3C7094FF000080DE0082125
:10193000384600F02BFB054615B12846BDE8F08778
:10194000083708F1010000F0FF08C845EFDBE11798
:1019500004EB5171C910A4EBC10159B12646E0173F
:1019600004EB5070C010A4EBC000C1B2384600F0C8
:101970000DFB05462846E1E710B504460B488442B6
:1019800009D10121480601F007FC00214FF0007049
:1019900001F002FC08E00121880601F0FDFB0021B6
:1019A0004FF0806001F0F8FB10BD000000640040C3
:1019B00010B50021837A012202FA03F13D4A126830
:1019C00042F001023B4B1A603A4A1C3212688A43C9
:1019D000384B1C331A60027BCAB9364A0C32126883
:1019E0008A43344B0C331A604288C38842EA03436B
:1019F000304A4032847A42F834300288838842EA9E
:101A000003432C4A4032847A02EBC4025360027BC7
:101A1000012A19D1274A0C3212680A43254B0C338C
:101A20001A604288038842EA0343224A4032847A99
:101A300042F83430C288838842EA03431D4A403268
:101A4000847A02EBC4025360C27A3AB9194A121D71
:101A500012688A43174B1B1D1A6006E0154A121DB7
:101A600012680A43134B1B1D1A60028932B9114ACE
:101A7000143212688A430F4B14331A600289012A08
:101A800006D10C4A143212680A430A4B14331A6006
:101A9000427B012A06D1074A1C3212680A43054BD1
:101AA0001C331A60034A126822F00102014B1A60CB
:101AB00010BD0000006600401AB143690B4343614A
:101AC00002E043698B434361704730B50246002012
:101AD0000023146824F002041460146844F0010424
:101AE000146000E05B1C546804F001041CB94FF65C
:101AF000FF74A342F6D1546804F001040CB900202D
:101B00006CE08C79012C04D1146844F080041460DA
:101B100003E0146824F080041460CC79012C04D113
:101B2000146844F04004146003E0146824F0400496
:101B300014600C7A012C04D1146844F02004146061
:101B400003E0146824F0200414604C7A012C04D1C2
:101B5000146844F01004146003E0146824F01004C6
:101B600014608C7A012C04D1146844F008041460C9
:101B700003E0146824F008041460CC7A012C04D12A
:101B8000146844F00404146003E0146824F00404AE
:101B900014608C78A407CD7844EA05640D7944EA92
:101BA00005444D7944EA05540D886D1E2C43D461DB
:101BB000146824F001041460002300E05B1C5468E6
:101BC00004F001041CB14FF6FF74A342F6D154682F
:101BD00004F001040CB1002000E0012030BD000041
:101BE00000B58BB00121480601F0C6FA02208DF83D
:101BF000280000208DF82A004FF4C05009900120E1
:101C00008DF82B0002208DF8290009A92F4800F03B
:101C10000DFE09220C212D4800F050FE09220B2157
:101C20002A4800F04BFE2A48FFF7A6FE00208DF858
:101C30001E008DF81F008DF820008DF821008DF812
:101C400022008DF823008DF81A008DF81B00092062
:101C50008DF81C0000208DF81D000720ADF818003D
:101C600006A91B48FFF731FF00208DF81200012064
:101C70008DF813008DF814004FF4A070ADF8080033
:101C80000020ADF80A00ADF80C00ADF80E00ADF87C
:101C9000100001208DF8150002A8FFF789FE14201E
:101CA0008DF8040001208DF8050000208DF8060055
:101CB00001208DF8070001A801F006FA0122022197
:101CC0000348FFF7F9FE00200BB000BD0000024002
:101CD0000064004010B500F5D87303EB01131B68D6
:101CE00003F004031372137A53B900F5D87303EBAE
:101CF00001131B6840F2FF7404EA5353136009E0B8
:101D000000F5D87303EB01131B686FF0604404EA1D
:101D1000D303536000F5D87303EB01131B6803F082
:101D20000203537200F5D87303EB01135B6803F0F1
:101D30000F03937200F5D87303EB01135B681B0A62
:101D4000D37400F5D87303EB01139B68D37200F5CD
:101D5000D87303EB01139B681C0A147300F5D87346
:101D600003EB01139B681C0C547300F5D87303EB51
:101D700001139B681B0E937300F5D87303EB0113DB
:101D8000DB68D37300F5D87303EB0113DB681C0A1F
:101D9000147400F5D87303EB0113DB681C0C547446
:101DA00000F5D87303EB0113DB681B0E937421B9A4
:101DB000C36843F02003C36003E0036943F02003DA
:101DC000036110BD10B502460020936803F08063E4
:101DD000B3F1806F00D110E0936803F00063B3F1BA
:101DE000006F01D1012008E0936803F08053B3F144
:101DF000805F01D1022000E00420042874D002F5A5
:101E0000C07303EB00131B6803F0010402F5C073F9
:101E100003EB00131C600B7A7BB94B7A0C8843EA06
:101E2000445302F5C07404EB00142468234302F504
:101E3000C07404EB0014236010E00B7A4C6843EA92
:101E4000C4034C7A234302F5C07404EB00142468E5
:101E5000234302F5C07404EB001423608B7A03F073
:101E60000F038B7202F5C07303EB00135B6823F062
:101E70000F0402F5C07303EB00135C6002F5C0733E
:101E800003EB00135B688C7A234302F5C07404EB08
:101E9000001463608B7B1C064B7B44EA03440B7B82
:101EA00044EA0323CC7A234302F5C07404EB001404
:101EB000A3608B7C1C064B7C44EA03440B7C44EA05
:101EC0000323CC7B234302F5C07404EB0014E360CE
:101ED00002F5C07303EB00131B6843F0010402F525
:101EE000C07303EB00131C6010BD000010B5024668
:101EF000002321B1012907D002290FD109E0906800
:101F00001D4C00EA04030BE090681C4C00EA04033B
:101F100006E090681A4C00EA040301E0002300BFC9
:101F200000BF184C181BA34216D007DC83B16FF01A
:101F30008060184470B1022818D111E0B0F5007F1C
:101F400010D0114C204448B1B0F5003F0ED10BE049
:101F500002230DE000230BE0002309E0002307E04B
:101F6000012305E0012303E0012301E0002300BF7A
:101F700000BFD8B210BD0000030000040003000839
:101F800000000310000100080001FFF72DE9F041F7
:101F900086B080460F460024A020019000200290C9
:101FA0008DF80C008DF80D008DF80E7000BF06E066
:101FB00018F804100DF10F000155601C84B2BC42EA
:101FC000F6DB00220221254800F0A4FC0120244970
:101FD0000870002401A92348FFF7F4FE064606E036
:101FE000601C84B201A91F48FFF7ECFE0646042ED0
:101FF00003D144F6FF708442F2DB042E03D10120AA
:1020000006B0BDE8F081002431461648FFF76EFFA8
:10201000054606E0601C84B231461248FFF766FFB1
:102020000546012D03D044F6FF708442F2DB44F6EE
:10203000FF7084420FDB022D04D131460AA0FEF767
:102040006FF908E03DB9FFF7CBFD31460FA0FEF771
:1020500067F90120D4E70020D2E700000004024025
:10206000A50000200064004063616E206D626F78FF
:102070005B25645D2043414E5F54785374617475F1
:10208000735F50656E64696E670A000063616E205D
:102090006D626F785B25645D2043414E5F547853D9
:1020A00074617475735F4661696C65640A00000051
:1020B00070B500254FF4803404E0802001F0A8F9C9
:1020C00000B103E0201EA4F10104F6D100BF0CB959
:1020D000032070BD40F2FF5001F070F92846F8E788
:1020E00070B5044605E01648056805F0450000B1E6
:1020F00000E0F8E700BF042001F08AF920B10420D5
:1021000001F05CF9032070BD012001F081F920B1DC
:10211000012001F053F90120F5E70948243800684F
:10212000A04201D01020EEE740F2FF5001F046F946
:1021300003482038006808210840C0B2E3E70000E7
:10214000342C014070B500264FF4803505E011486D
:10215000046804F0450000B103E0281EA5F1010564
:10216000F5D100BF15B104F0040028B10326042006
:1021700001F024F9304670BD012001F049F918B191
:102180000126012001F01AF940F2FF5001F016F982
:102190003046F0E7342C014010B505E00B480468E8
:1021A00004F0450000B100E0F8E700BF042001F0B2
:1021B0002FF920B1042001F001F9032010BD40F2F5
:1021C000FF5001F0FBF80020F8E70000342C01403C
:1021D0002DE9F04105460E464FF0000805E0204885
:1021E000076807F0450000B100E0F8E700BF0420F1
:1021F00001F00EF928B1042001F0E0F80320BDE859
:10220000F081012001F004F920B1012001F0D6F89D
:102210000120F4E7124824380068A84201D01020B9
:10222000EDE740F2FF5001F0C9F80D48203804688E
:1022300004F4604018B9200C30804046DFE704F415
:10224000005008B11320DAE704F4804008B11020F0
:10225000D5E704F4004008B10F20D0E74046CEE7B0
:10226000342C014070B500264FF4803505E00F484E
:10227000046804F0450000B103E0281EA5F1010543
:10228000F5D100BF15B104F0040028B103260420E5
:1022900001F094F8304670BD04F0400018B10026FB
:1022A000402001F08BF83046F5E70000342C014067
:1022B00010B50749074800F025F9012806D104495F
:1022C000044800F021F804480068804710BD000071
:1022D00000800018586002403001002010B5074906
:1022E000074800F00FF9012806D10449044800F01E
:1022F0000BF804480068804710BD000020800020D3
:10230000706002402C0100200246094B9A4201D223
:10231000084801E00648103801F000531BB1064B95
:102320000B40C36002E0044B0B4083607047000029
:1023300010640240006002407D0F7D0F21B10268F1
:1023400042F00102026003E0026822F00102026032
:1023500070470000016821F0010101600021016067
:1023600041608160C1600161212141614A49884227
:1023700004D13D21484A103A91608CE04649183119
:10238000884205D14FF47461434A103A916082E06B
:1023900041493031884205D14FF474113E4A103A18
:1023A000916078E03C494831884205D14FF0746132
:1023B000394A103A91606EE037496031884204D161
:1023C0003649354A103AD16065E033497831884260
:1023D00004D13349304A103AD1605CE02E49903143
:1023E000884204D12F492C4A103AD16053E02A493F
:1023F000A831884205D14FF03D51274A103AD160AB
:1024000049E02949884204D13D21274A083A116010
:1024100041E025491831884205D14FF47461224AC0
:10242000083A116037E020493031884205D14FF435
:1024300074111D4A083A11602DE01B494831884249
:1024400005D14FF07461184A083A116023E016492B
:102450006031884204D11149134A121F11601AE0F9
:1024600011497831884204D10D490F4A121F116079
:1024700011E00D499031884204D10A490A4A121FDD
:10248000116008E00849A831884204D14FF03D515D
:10249000054A121F11607047106002403D00002085
:1024A000400F002000003D201064024021B102686E
:1024B00042F48022026003E0026822F4802202607B
:1024C000704722B1036843F40023036003E003680C
:1024D00023F4002303600161704721B1026842F0D8
:1024E0002002026003E0026822F0200202607047CE
:1024F000014600200A6802F001020AB1012000E052
:102500000020704770B50246002000240025124EBE
:10251000B24201D2114B01E00F4B103B104E0E4066
:1025200036B11E2606EAD124166806EA040502E042
:10253000566906F0800501F000560EB15C6800E0B7
:102540001C68084E344004EA010616B10DB10120A2
:1025500000E0002070BD00001064024000600240F6
:102560003C0F3C0F7D0F7D0F10B501F080034BB188
:1025700022B1436943F08003436103E0436923F0E0
:102580008003436180290BD02AB1036801F01E0447
:102590002343036004E0036801F01E04A3430360C7
:1025A00010BD000010B500220268134B1A40CC6821
:1025B0000B6823434C6923438C692343CC69234331
:1025C0000C6A23434C6A23438C6A23434C6B23439A
:1025D0008C6B23431A430260426922F00702D1E95F
:1025E0000B3423431A4342610B6943604B68836099
:1025F0008B68C36010BD00003F801CF07047000076
:1026000001B50549086800BF03490968411A009AE5
:102610009142F9D308BD0000B40100202DE9FC412E
:1026200007460D4600260024002000900190082057
:102630005B49086010204860402088600020C86026
:102640004FF480600861084600F02EFF1020FFF76D
:1026500047FD044614B12046BDE8FC81514800887E
:1026600000044F49086037204860402088600020FF
:10267000C8604FF480600861084600F015FF3720FD
:10268000FFF72EFD04460CB12046E5E74FF0FF3082
:102690004549086008204860302088600220C860F2
:1026A0000020086101204861084600F097FE0020E4
:1026B0003B49086033204860402088600020C860A3
:1026C0004FF480600861084600F0EEFE3320FFF70B
:1026D00007FD04460CB12046BEE70CE04FF40010A5
:1026E00000F096FE38B1314800684DF82600761C9F
:1026F000022E00D307E02D484C38006840F22A61D2
:1027000008400028EAD000BF082000F081FE20B178
:10271000082000F053FE04209EE7022000F078FE1F
:1027200020B1022000F04AFE022095E7202000F0B0
:102730006FFE20B1202000F041FE06208CE74FF410
:10274000007000F065FE28B14FF4007000F036FE16
:10275000072081E740F2FF5000F030FE00980006AD
:10276000009901F47F4140EA0120009901F47F01C2
:1027700040EA1120009940EA116068600198000663
:10278000019901F47F4140EA0120019901F47F01A0
:1027900040EA1120019940EA1160286020465BE779
:1027A000C8030020AC000020DC030020802C014086
:1027B0001CB50320009001208DF8040003208DF843
:1027C000050000208DF806008DF8070069461548C1
:1027D00000F02CF80F20009000208DF8040001205C
:1027E0008DF807006946104800F020F807220621FE
:1027F0000C4800F063F8072211460A4800F05EF822
:10280000C020009002208DF8040003208DF8050000
:1028100000208DF806008DF807006946014800F099
:1028200005F81CBD0004024000000240F0B50A4655
:1028300000210023002400BF3DE0012505FA01F33B
:10284000156805EA03049C4234D105684F0003264D
:10285000BE40B543056015794E00B5400668354366
:1028600005601579012D02D01579022D16D18568E4
:102870004F000326BE40B543856055794E00B540F4
:10288000866835438560456801268E40B5434560BE
:10289000456896798E40B6B235434560C5684F00AD
:1028A0000326BE40B543C560D5794E00B540C66825
:1028B0003543C560491C1029BFD3F0BDF0B50023D6
:1028C00000244D07ED0E02FA05F3CE1000F12005AD
:1028D00055F826504E07F70E0F26BE40B543CF10D1
:1028E00000F1200646F82750CE1000F1200555F8DB
:1028F000265045EA0304CE1000F1200545F8264095
:10290000F0BD0246002013690B400BB1012000E02E
:10291000002070470AB1018300E04183704700BF87
:10292000FEE700002DE9FF4104460F4615461E460E
:102930000121880300F020FC0121880300F02CFC19
:1029400000214FF4804000F027FCADF80070ADF896
:102950000240ADF804600020ADF8060002200290AD
:10296000ADF80C506946074800F068F901220221D1
:10297000044802F0AFF90121024800F02BF9BDE84C
:10298000FF8100000038004070B505460024002695
:102990000A20B5FBF0F500BF09E004EB84001F49F5
:1029A00031F81000A84200D103E0601CC4B20B2C27
:1029B000F3D300BF002000F09DFC0B2C01D10120BF
:1029C00070BD04EB8402154B03EB4202918804EBCB
:1029D000840203EB4202508800F092FC1048006829
:1029E00040F080600E49086000BF0D48006800F0AC
:1029F00000600028F9D004EB8400084901EB400096
:102A0000C68804EB840001EB4000008946EA0026FA
:102A100046F4007603490E800020D1E7E0B90008B3
:102A2000003802402038004070B590B004460E4691
:102A300015460121480500F08FFB2448FFF78AFC6A
:102A400000BF2248FFF754FD0028FAD120491F4853
:102A5000FFF75AFC002000901E480190029440208D
:102A600003900495002005904FF48060069040008C
:102A70000790800008904011099040020A900020C1
:102A80000B900C900D900E9069461048FFF78AFD50
:102A9000002231460D48FFF714FD01210B48FFF7D6
:102AA00005FD012210210948FFF75EFD0F208DF87A
:102AB0003C0000208DF83D008DF83E0001208DF88F
:102AC0003F000FA800F000FB10B070BD7060024026
:102AD0003DF000A00C3800402DE9FF4104460F46B0
:102AE00015461E4687F48070ADF80000ADF8024030
:102AF000ADF804600020ADF8060002200290ADF8A9
:102B00000C506946064800F071F80122114604484D
:102B100002F0E0F80121024800F05CF8BDE8FF8116
:102B20000034004070B590B004460E4615460121B1
:102B3000480500F011FB2448FFF70CFC00BF2248B9
:102B4000FFF7D6FC0028FAD120491F48FFF7DCFB2D
:102B50004FF0C06000901E48019002940020039046
:102B6000049505904FF48060069040000790800027
:102B700008904011099000020A9000200B900C90E0
:102B80000D900E9069461048FFF70CFD002231466B
:102B90000D48FFF796FC01210B48FFF787FC012247
:102BA00010210948FFF7E0FC0E208DF83C000020C2
:102BB0008DF83D0001208DF83E008DF83F000FA8F4
:102BC00000F082FA10B070BD5860024000F0409FE3
:102BD0000C34004021B1828B42F48062828304E095
:102BE000828B4FF6FF331A408283704730B5002244
:102BF0000023848B4FF240052C40848302240484FC
:102C0000828B0C88B4F5007F01D00C8814B94FF486
:102C1000807308E00C88B4F5407F03D00C88B4F5CD
:102C2000807F00D100238C888D892C434D882C43D4
:102C30001C4344F400642243828330BD2DE9F04FED
:102C40000025022300244FF001090022002600275E
:102C500094469046B0F81CA04FF2400B0AEA0B0ACB
:102C6000A0F81CA04FF0020AA0F820A0858BD1F894
:102C700008A0BAF1020F01D100BF82E0B1F804A0B0
:102C8000BAF1000F02D14FF0010901E04FF0020943
:102C9000DFF834A1DAF800A00AF4000ABAF1000F54
:102CA00009D0DFF824A1DAF800A02AF4000ADFF83E
:102CB00018B1CBF800A0DFF810A10AF17C0ADAF80D
:102CC00000A0CAF3881CDFF800A10AF17C0ADAF838
:102CD00000A0CAF30278DFF8F0A0AAF1040ADAF83B
:102CE00000A00AF03F07DFF8E0A0AAF1040ADAF832
:102CF00000A00AF4800ABAF5800F08D1DFF8CCA052
:102D0000BAFBF7FA0AFB0CFABAFBF8F607E0DFF8B1
:102D1000C0A0BAFBF7FA0AFB0CFABAFBF8F6B1F856
:102D200006A0BAF5007F0ED14FEA162A0AEB8A0AEE
:102D30004FEA4A0AD1F808B0BAFBFBFA0AF1050AD1
:102D40001FFA8AF20FE04FEA491AB6FBFAFA0AEBC9
:102D50008A0A4FEA4A0AD1F808B0BAFBFBFA0AF12C
:102D6000050A1FFA8AF24FF00A0AB2FBFAF202F0E1
:102D70000104A2EB040ACAF34F034FF6FF7A0AEAF2
:102D80000424022B01DBFF2B01DD02230024B1F818
:102D900006A04AEA040A4AEA030AA0F820A0B1F809
:102DA00004A0B1F80CB04AEA0B0AB1F802B04AEA42
:102DB0000B0AB1F800B04AEA0B0A4AF4006A4AEA80
:102DC00005058583BDE8F08F0838024000127A00BF
:102DD0000024F40010B501210148FFF7AFFA10BD3F
:102DE0007060024010B500210148FFF7A7FA10BD3E
:102DF0007060024010B501210148FFF79FFA10BD35
:102E00005860024010B500210148FFF797FA10BD45
:102E1000586002401CB50121022000F09DF94FF4DA
:102E20004070009001208DF8040000208DF806000D
:102E300003208DF8050001208DF80700694605483C
:102E4000FFF7F4FC0120044908600449C1F8A4021A
:102E50001CBD000000040240A082404200804042AD
:102E600070B504461548006820F4402013490860F6
:102E70000846006840F4802008600020104908607F
:102E8000002517E0E0090E49091D08606006040EE0
:102E90000220FFF7B5FB01200A49C1F8A002022079
:102EA000FFF7AEFB0020064908600220FFF7A8FBF1
:102EB000681CC5B2082DE5DB70BD000000040240AF
:102EC000A08240420080404210B50F48006820F4C4
:102ED00040200D4908600846006840F480200860E2
:102EE00001200A4908600A49C1F8A0020420FFF73E
:102EF00087FB0020054908600420FFF781FB0020C4
:102F00000349C1F8A00210BD00040240A48240425F
:102F10000080404210B50F48006820F440200D4961
:102F200008600846006840F48020086000200A49D4
:102F300008600A49C1F8A4020420FFF761FB0120E0
:102F4000054908600549C1F8A4020420FFF758FBB1
:102F500010BD000000040240A082404200804042B8
:102F600010B500241348006820F44020114908607F
:102F700008460068086001200F490860FFF740FB21
:102F800001200E49C1F8A002FFF73AFB07E0601CE0
:102F9000C4B2FA2C03DDFFF7BDFF012010BD0648C7
:102FA000803800680028F2D10349091F086000BF7B
:102FB000F4E7000000040240A48240420080404246
:102FC0001CB50446002001900090224800880004AF
:102FD000214908600D204860402088600020C860BA
:102FE0004FF480600861084600F05EFA1B480068F4
:102FF000009002E0194800680090009800F0450039
:103000000028F7D0012000F003FA20B1012000F0E1
:10301000D5F901201CBD042000F0FAF920B10420EC
:1030200000F0CCF90320F5E70C48243800680D289F
:1030300001D01020EEE740F2FF5000F0BFF9074842
:103040002038006801900198C0F3432020700020D0
:10305000E0E70000AC000020C8030020342C014051
:1030600000BFFEE7704708B54FF4A06000F068F8B5
:1030700036208DF8000000208DF8010001208DF829
:1030800002008DF80300684600F01EF837208DF826
:10309000000000208DF8010002208DF802000120C0
:1030A0008DF80300684600F00FF825208DF8000029
:1030B00001208DF801008DF802008DF803006846AC
:1030C00000F002F808BD000070B5002100230F22B7
:1030D000C4781CB3174C246804F4E064C4F5E064BD
:1030E000C4F30721C1F10404E3B20A4144789C40CF
:1030F000E1B28478144021430C07210E0E4C057870
:103100006155047804F01F050124AC4005786D1169
:10311000AD0005F1E025C5F8004109E0047804F0B0
:103120001F050124AC40054D0678761145F8264070
:1031300070BD00000CED00E000E400E080E100E084
:1031400002490143024A1160704700000000FA057D
:103150000CED00E07047000029B1064A12680243F6
:10316000044B1A6004E0034A12688243014B1A6060
:10317000704700003038024029B1064A1268024305
:10318000044B1A6004E0034A12688243014B1A6040
:10319000704700004038024029B1064A12680243D5
:1031A000044B1A6004E0034A12688243014B1A6020
:1031B000704700002038024029B1064A12680243D5
:1031C000044B1A6004E0034A12688243014B1A6000
:1031D000704700004438024029B1064A1268024391
:1031E000044B1A6004E0034A12688243014B1A60E0
:1031F000704700002438024010B501210F20FFF76E
:10320000ABFF01211020FFF7D7FF10BDF0B5002163
:1032100000220024022500260223324F3F6807F0D7
:103220000C0121B1042905D0082937D105E02E4F22
:10323000076036E02D4F076033E02A4F3F1F3F689D
:10324000C7F38056274F3F1F3F6807F03F036EB11B
:10325000264FB7FBF3F7DFF88CC0ACF1040CDCF8B9
:1032600000C0CCF3881C07FB0CF40CE01E4FB7FB2E
:10327000F3F7DFF870C0ACF1040CDCF800C0CCF35D
:10328000881C07FB0CF4174F3F1F3F68C7F301472B
:103290007F1C7D00B4FBF5F7076002E0124F07606A
:1032A00000BF00BF0F4F3F6807F0F0010909104F42
:1032B0007A5C0768D74047600A4F3F6807F4E051DF
:1032C000890A0B4F7A5C4768D7408760054F3F6893
:1032D00007F46041490B064F7A5C4768D740C760E6
:1032E000F0BD0000083802400024F40000127A000B
:1032F00090000020014988667047000000004742A6
:10330000820142EA0172014B1A6070478438024020
:103310007CB50546002400200090019000260DB1E8
:10332000022600E000262248006800F0007008B184
:103330000E207CBD1F49098888B26946FFF76EF9E7
:1033400004460CB12046F4E7019800F4802060B3F5
:103350001848008800041849086037204860402059
:1033600088600020C8604FF480600861084600F063
:103370009BF83720FEF7B4FE04460CB12046D8E790
:103380000D48066006200C494860402088600020F7
:10339000C8604FF480600861084600F085F8062098
:1033A000FEF79EFE04462046C3E72520C1E7000045
:1033B000142C0140AC000020C80300200149086023
:1033C00070470000382C01400146034A106820F085
:1033D000FF00084310607047042C014000210B4B94
:1033E00002681A601B1D42681A601A1D116821F0DC
:1033F000F701D0E902231A4303691A4343691A43C8
:103400001143024A0832116070470000242C014029
:1034100001460020034A12680A400AB1012000E078
:1034200000207047342C01400248006800F003007F
:1034300070470000002C014010B500F08BFC10BD5F
:1034400000210A4A116847F6FF629143027D8368B2
:103450001A4343681A43C3681A4303681A4303694B
:103460001A431143014A116070470000042C0140C7
:1034700000200B490860091D0860091D0860091D2E
:103480000860074924310860091D0860091D0860AB
:1034900004480349383108600020091D086070475E
:1034A000002C0140FF07C0000021094B02681A6090
:1034B0001A1D11686FF30A01D0E901231A43C3688A
:1034C0001A4303691A431143014A121D11607047E0
:1034D000082C01400149086070470000002C0140A1
:1034E00070B590B004460E46154600BF1A48FEF768
:1034F000FFFF0028FAD11848FEF72CFF4FF00060BC
:1035000001901648029003940495002005900690BF
:103510004FF48060079080000890800009900020A0
:103520000A904FF440300B9004200C9003200D9033
:103530004FF400000E9080100F9001A90648FFF78D
:1035400031F820210448FEF7C8FF01210248FEF7A8
:10355000F5FE10B070BD000058640240802C0140A0
:1035600070B50446002516480078032802D12725A7
:10357000284670BD1248007838B1114800780128FB
:1035800003D00F480078022817D1B4F5805F02D12C
:1035900027252846EDE7E0B2FFF7BAFE054665B9F4
:1035A0000848006820F4C0500649086008460068D2
:1035B000204308600846006808602846D9E70000F4
:1035C000A8000020042C0140F0B501460020002294
:1035D000BE4B1B7881F85630BD4B1B88A1F8543088
:1035E000BC4B1B681A0E93090B70C2F383034B701C
:1035F00002F003038B70B74B1B68C3F30742CA701A
:10360000B44B1B88C3F307220A71B24B1A784A7174
:103610005B681A0E1301CB80AE4B5B68C3F30742A5
:10362000CB8843EA1213CB8002F00F030B72A94B35
:103630009B88C3F30722D3094B72C2F380138B72AA
:10364000C2F34013CB72C2F300130B7300234B730E
:103650009E4B1B783BB19D4B1B78012B03D09B4BA2
:103660001B78032B4FD193071B0D0B61994B1A79D4
:103670000B6943EA82030B61964B9B681A0E0B6938
:1036800043EA92130B61C2F3C2030B7502F0070306
:103690004B75904B9B68C3F3074253098B75C2F37C
:1036A0008203CB7593075B0F0B768A4B1B89C3F3A1
:1036B00007220B7E43EAD2130B760B695B1C0024B6
:1036C000C1E912340B7E9B1C012404FA03F3DC17BE
:1036D000D1E91256A5FB037C06FB03C305FB0433AB
:1036E000C1E912730C7A0123A3400B650024D1E9D0
:1036F00012650B6DA6FB037C05FB03C306FB0433BD
:10370000C1E912732EE0714B1B78022B2AD1714B49
:103710001A7993069B0A0B616E4B9B681A0E0B6914
:1037200043EA02230B616B4B9B68C3F307420B69AF
:1037300013430B61674B1B89C3F307220B695B1CA7
:103740004FF40074A3FB04464FF480630025A4FBF0
:10375000037C06FB03C304FB0533C1E912734FF47A
:1037600000730B65C2F3801301F8193F93065B0EDB
:103770004B70584B1A7A4B7843EAD2134B7002F0D5
:103780007F038B70534BDB681A0ED309CB70C2F3E7
:1037900041130B71C2F382034B7193071B0F8B71A3
:1037A0004C4BDB68C3F307428B7943EA92138B716E
:1037B000C2F34013CB7100230B7202F001034B7272
:1037C000444B9B89C3F30722D3098B72C2F3801346
:1037D000CB72C2F340130B73C2F300134B73C2F3EB
:1037E00081038B7302F00303CB733A4B1A7B5308AC
:1037F0000B7401234B74384B1B681A0ECA741939A9
:10380000354B1B68C3F307421402CC85324B1B882F
:10381000C3F30722CB8D1343CB852F4B1A781406A5
:103820000C635B681A0E0B6B43EA02440C632A4B71
:103830005B68C3F307420B6B43EA02240C63264B1D
:103840009B88C3F307220B6B13430B63224B1A793C
:1038500034235A54204B9B681A0E35235A541E4B5E
:103860009B68C3F3074214068C631B4B1B89C3F38D
:1038700007228B6B43EA02448C63174B1A7A8B6BDB
:1038800043EA02248C63144BDB681A0E8B6B1343E0
:103890008B63114BDB68C3F307423C235B5C43EA59
:1038A00012143C235C5413071C0DCC870A4B9B89D4
:1038B000C3F30722CB8F1343CB87074B1A7B5408E4
:1038C00040235C54012441235C54F0BDA800002037
:1038D000AC000020F4030020040400203EB50024C6
:1038E000002501218805FFF737FC0121C802FFF7F9
:1038F00063FC0121C802FFF76FFC4FF4F850019000
:1039000002208DF8080003208DF8090000208DF8B2
:103910000A0001208DF80B0001A93848FEF786FF48
:103920000420019001A93648FEF780FF0C220221F5
:103930003348FEF7C3FF0C2211463048FEF7BEFFA6
:103940000C2208212D48FEF7B9FF0C2209212B4833
:10395000FEF7B4FF0C220A212848FEF7AFFF0C2225
:103960000B212648FEF7AAFF00214FF40060FFF765
:1039700033FCFFF77DFD31208DF8000000208DF82D
:1039800001008DF8020001208DF803006846FFF762
:103990009BFB00F0EDF8044614B900F037F804463C
:1039A0001CB91848FFF710FE044634B91549B1F8A0
:1039B0005410080400F072FD044624B94FF400606E
:1039C000FFF7CEFD04461CB10F480078032812D142
:1039D0000C4890F8560020B10A4890F8560001288B
:1039E00001D1022500E000252846FFF7EDFC00206C
:1039F00000F06CFD044620463EBD00000008024079
:103A0000000C024018040020A800002038B5002453
:103A100001200090FFF708FD10B92524204638BD8D
:103A20004D480078042824D000204C49086002202A
:103A30004860C02088600020C8604FF48060086142
:103A40000846FFF731FDFEF77DFB04460CB120462A
:103A5000E5E743480068434908604148001D0068A5
:103A600048603F480830006888603D480C30006876
:103A7000C8603948007858B137480078012807D025
:103A800035480078062803D033480078022816D13C
:103A900000203249086003204860402088600020F0
:103AA000C8604FF4806008610846FFF7FDFC694676
:103AB0000320FEF78DFB04460CB12046AFE72648F5
:103AC0000078032816D1BDF80000000423490860DF
:103AD00003204860402088600020C8604FF4806068
:103AE00008610846FFF7E0FCFEF72CFB04460CB12A
:103AF000204694E71848007804282AD0BDF8000032
:103B000019490860BDF80000000414490860092044
:103B10004860C02088600020C8604FF48060086161
:103B20000846FFF7C1FCFEF70DFB04460CB120462A
:103B300075E70B4800680D4908600948001D0068DA
:103B40004860074808300068886005480C30006805
:103B5000C860002063E70000A8000020C803002020
:103B6000142C014004040020AC000020F4030020C9
:103B70002DE9F0470027002400260025A046A14695
:103B800076206E4908750020086048608860C8602B
:103B900008610846FFF754FC0320FFF79BFC6848C8
:103BA000006840F480706649086000BF12E00020A1
:103BB0006449086048608860C8604FF480600861AC
:103BC0000846FFF771FCFEF773FA044604B903E0F8
:103BD000781CC7B24A2FEADB00BF14B12046BDE80B
:103BE000F0874FF4D570574908600820486040209E
:103BF00088600020C8604FF4806008610846FFF7C5
:103C000053FCFEF72FFB044624B901204E490870EF
:103C10004FF0804900204B49086037204860402021
:103C200088600020C8604FF4806008610846FFF794
:103C30003BFC3720FEF754FA0446002C4CD135E00B
:103C400000204049086037204860402088600020FC
:103C5000C8604FF4806008610846FFF725FC3720F4
:103C6000FEF73EFA04460CB12046B8E7374849EA69
:103C70000000344908602920486040208860002006
:103C8000C8604FF4806008610846FFF70DFCFEF73E
:103C900083FA04460CB12046A1E729481030066893
:103CA000012080EAD67080F001086D1CB8F1000F89
:103CB00003D14FF6FF708542C2D34FF6FF708542A5
:103CC00002D31B2420468AE706F08040061E33D02C
:103CD00002201D4908702FE01DE01D4819490860A9
:103CE00001204860402088600020C8604FF4806058
:103CF00008610846FFF7D8FBFEF74EFA04460CB100
:103D000020466CE70E4810300668012080EAD67025
:103D100080F001086D1CB8F1000F03D14FF6FF7061
:103D20008542DAD34FF6FF70854202D31B2420462A
:103D300055E7032004490870204650E7B0030020EF
:103D4000042C0140C8030020A800002000001080BF
:103D50000080FF8010B54FF48070FFF759FB78B3F7
:103D60004C480078012814D100204B4908600C20F1
:103D70004860402088600020C8604FF4806008617F
:103D80000846FFF791FB0C20FEF7AAF9434908709B
:103D900002E00020414908704148006840F480700A
:103DA0003F490860081D00684CF23A3188433C499D
:103DB000091D086001203B4908703848007810BD93
:103DC000FFE70220FFF724FB78B10220FFF7F6FAA5
:103DD0003348001D00684CF23A3188433049091DD0
:103DE000086002202D490870E9E70820FFF710FB62
:103DF00078B10820FFF7E2FA2948001D00684CF26C
:103E00003A3188432649091D086004202349087077
:103E1000D5E72020FFF7FCFA78B12020FFF7CEFA93
:103E20001F48001D00684CF23A3188431C49091DA7
:103E30000860062019490870C1E71020FFF7E8FA6A
:103E400078B11020FFF7BAFA1548001D00684CF24F
:103E50003A3188431249091D086005200F4908704E
:103E6000ADE74FF40070FFF7D3FA80B14FF4007064
:103E7000FFF7A4FA0A48001D00684CF23A31884363
:103E80000749091D086007200449087097E70020CA
:103E900095E70000B1000020C8030020B200002018
:103EA000382C0140B30000202DE9F84F8146174619
:103EB00098460A9C4FF0000AD3464D464FF0FF3615
:103EC000B9F1000F02D12620BDE8F88F0020864905
:103ED000086086480078022805D10402780A40EA82
:103EE000C8574FEA68280020814988604860401E12
:103EF0000860012048610020C86008610846FFF79B
:103F00006DFA79481838006800F0007008B10E208A
:103F1000DAE7002C21DDB4F5006F1EDC601E2040C6
:103F2000D8B9204602F0AEFE00907248046010201E
:103F300070494860402088600020C8604FF480606D
:103F400008610846FFF7B0FA1020FEF7C9F882466C
:103F5000BAF1000F03D05046B6E72620B4E7009828
:103F6000000163498860084644604FF0FF300860F4
:103F7000012048610220C860002008610846FFF760
:103F80002DFA5C48076011205A494860402088603B
:103F90000020C8604FF4806008610846FFF784FA8B
:103FA0001120FEF79DF88246BAF1000F01D050466D
:103FB0008AE75148007800285CD1FCF767F918E0DF
:103FC0004FF40040FFF724FA78B14FF0000B06E001
:103FD00045485430006845F82B000BF1010BBBF14C
:103FE000080FF5D32035454E03E00EB904206BE7EA
:103FF000761E3D480830006840F22A6108400028DB
:10400000DED00820FFF704FA20B10820FFF7D6F928
:10401000042059E70220FFF7FBF920B10220FFF747
:10402000CDF9022050E72020FFF7F2F920B120203F
:10403000FFF7C4F9062047E74FF40070FFF7E8F9EF
:1040400028B14FF40070FFF7B9F907203CE704E00E
:1040500025485430006828602D1D4FF40010FFF7EC
:10406000D7F90028F4D1FCF713F940F2FF50FFF71D
:10407000A5F936E020480078012832D100202049F7
:1040800008702049087020490870174810300068EF
:1040900040F22A3108431449103108601248006880
:1040A00040F0080010490860002221464846FFF70A
:1040B00017FA00E0761E1548006800F0006038B975
:1040C0001148007820B90E48007808B9002EF1D1C7
:1040D0000EB90420F8E60A48007810B1084890F8B4
:1040E00000A05046F0E600002C2C0140A800002063
:1040F000DC030020C8030020B0000020FFFF7F0089
:10410000B2000020B1000020B30000200064024093
:104110002DE9FE4F83460C46914600200290002672
:1041200025462C46700240EAD5566D020BF003007E
:10413000F0B14FF0000A18E04FF4007000904FEA21
:104140004A20471946EBE0733A461648FFF7ACFEA3
:1041500002904FF4007213495846FCF7E4F90BF54E
:10416000007B0AF1010000F0FF0ACA45E4DB16E01B
:10417000B9F1010F09D14FF400702A46334600907F
:104180005846FFF791FE029009E04FF400702A466E
:104190003346CDE90009584600F006F8029002982F
:1041A000BDE8FE8F700400202DE9FF5F174698469A
:1041B000DDE90E464FF00009CA464FF0FF35AC4925
:1041C000009808600020AB490860AB4800780228DE
:1041D00005D10402780A40EAC8574FEA682800204F
:1041E000A64988604860401E0860012048610020A0
:1041F000C86008610846FFF7F1F89E481838006863
:1042000000F0007018B10E2004B0BDE8F09F002C43
:1042100021DDB4F5006F1EDC601E2040D8B92046B9
:1042200002F030FD834696480460102094494860AF
:10423000402088600020C8604FF480600861084614
:10424000FFF732F91020FDF74BFF8146B9F1000F5F
:1042500003D04846D8E72620D6E7012E71D906FBC1
:1042600004F0B0F1007F01D32620CDE74FEA0B1018
:104270008249886006FB04F048604FF0FF30086018
:10428000012048610220C860002008610846FFF74D
:10429000A5F87B4807601220794948604020886073
:1042A0000020C8604FF4806008610846FFF7FCF802
:1042B0001220FDF715FF8146B9F1000F01D04846E5
:1042C000A2E77048007800287ED1FBF7DFFF1EE0F0
:1042D0004FF40040FFF79CF8A8B14FF0000A08E047
:1042E0006448543000686249096841F82A000AF1BC
:1042F000010ABAF1080FF3D35D48006820305C4929
:104300000860614D03E00DB904207DE76D1E59483A
:104310000830006840F22A3108400028D8D0082030
:10432000FFF776F820B10820FFF748F804206BE784
:104330000220FFF76DF828B10220FFF73FF80220B6
:1043400062E792E02020FFF763F820B12020FFF71A
:1043500035F8062058E74FF40070FFF759F828B1F8
:104360004FF40070FFF72AF807204DE70AE04148B4
:10437000543000683E49096808603D480068001DE7
:104380003B4908604FF40010FFF742F80028EED1D7
:104390004FF48070FFF73CF820B33748007838B10D
:1043A00035480078012803D033480078022819D115
:1043B0000020334908600C204860402088600020BD
:1043C000C8604FF4806000E013E008610846FFF722
:1043D0006BF80C20FDF784FE8146B9F1000F01D087
:1043E000484611E7FBF754FF40F2FF50FEF7E6FFA7
:1043F0003BE024480078012837D100202349087089
:104400000120234908700020224908701948103003
:10441000006840F22A3108431649103108601548F7
:10442000006840F008001349086006FB04F1002210
:104430000098FFF755F800E06D1E1748006800F07F
:10444000006008B9002DF7D10DB90420DCE600BFEB
:104450001048007818B90D4800780028F8D00B48AB
:10446000007810B1094890F800904846CCE600006A
:10447000B40000202C2C0140A8000020DC03002008
:10448000C8030020B0000020FFFF7F00B200002022
:10449000B1000020B30000200064024010B50446C3
:1044A00009480460072008494860402088600020CF
:1044B000C8604FF4806008610846FEF7F5FF0720EA
:1044C000FDF70EFE10BD0000C803002001460020CD
:1044D000012900D011B9024B197000E02620704765
:1044E000B00000202DE9FF5F86B017469846149D66
:1044F0000026002005900490002481460390824607
:1045000002900195DDF818B0DDF818B0BBF1000F8E
:1045100003D126200AB0BDE8F09F0020C9490860F9
:10452000C94988604860401E086001204861002039
:10453000C86008610846FEF751FFC2481838006895
:1045400000F0007008B10E20E4E7C04800780228AF
:1045500005D10502780A40EAC8574FEA6828002DBD
:104560001FDDB5F5006F1CDC681E2840C8B9284661
:1045700002F088FB0590B64805601020B4494860F9
:10458000402088600020C8604FF4806008610846C1
:10459000FEF78AFF1020FDF7A3FD06461EB1304648
:1045A000B8E72620B6E7AB4800880004A8490860B1
:1045B0000D204860402088600020C8604FF4806073
:1045C00008610846FEF770FF0D20FDF789FD0646DD
:1045D0000EB130469EE79B481838006803904FF0B4
:1045E000FF341CE0641E9B48008800049849086062
:1045F0000D204860402088600020C8604FF4806033
:1046000008610846FEF750FF0D20FDF769FD0646DC
:104610000EB130467EE78B48183800680390039847
:1046200000F4807008B9002CDCD10CB9292071E7A6
:10463000874807601820864948604020886000202D
:10464000C8604FF4806008610846FEF72DFF18200F
:10465000FDF746FD06460EB130465BE700207E4979
:1046600008700598000178498860084645604FF059
:10467000FF300860012048610020C86008610846DA
:10468000FEF7ACFE4FF0FF347448007800287ED16E
:10469000FBF7FCFD45E04FF48040FEF7B9FED8B3D0
:1046A0000198A0EB0900202822D20198A0EB090074
:1046B00000F0030020B90198A0EB0900800804E095
:1046C0000198A0EB09008008401C02904FF0000AFE
:1046D0000AE05C495431DBF8000008600AF1010A85
:1046E0000BF1040B09F1040902988245F1D310E0A3
:1046F0004FF0000A06E05BF82A0052495431086086
:104700000AF1010ABAF1080FF5D30BF1200B09F1F8
:1047100020096FF0404404E0FFE70CB90420F9E6FB
:10472000641E48480830006840F21A6108400028BA
:10473000B1D00820FEF76CFE20B10820FEF73EFE47
:104740000420E7E60220FEF763FE20B10220FEF718
:1047500035FE0220DEE61020FEF75AFE20B11020C2
:10476000FEF72CFE0520D5E64FF40070FEF750FE54
:1047700030B14FF40070FEF721FE0720CAE606E0D4
:10478000FBF786FD40F2FF50FEF718FE41E033488C
:10479000007801283DD10020314908702E49087069
:1047A0003049087027481030006840F21A31084339
:1047B000244910310860402229460698FEF790FEF1
:1047C0002048006840F008001E49086000E0641EB0
:1047D0002548006800F0006008B9002CF7D11CB92A
:1047E000FFF77CF8042095E64FF0FF3400E0641EEC
:1047F0001C48007820B91A48007808B9002CF6D176
:104800000CB9042086E61648007810B114480078E8
:1048100080E640F2FF50FEF7D1FD04A8FEF7D0FB82
:10482000064603E004A8FEF7CBFB06463EB99DF81A
:1048300010000728F6D09DF810000628F2D0304668
:1048400068E600002C2C0140DC030020A8000020BA
:10485000C8030020AC000020B1000020B000002000
:10486000B2000020B3000020006402402DE9FE4F9A
:1048700081460C46924600200290002625462C4692
:10488000700240EAD5566D0209F00300F0B14FF016
:10489000000B18E04FF4007249461948FBF743FE3D
:1048A0004FF4007000904FEA4B20471946EBE0733D
:1048B0003A461348FFF716FE029009F500790BF10E
:1048C000010000F0FF0BD345E4DB16E0BAF1010F65
:1048D00009D14FF400702A46334600904846FFF74E
:1048E00001FE029009E04FF400702A463346CDE9FC
:1048F000000A484600F006F802900298BDE8FE8FD4
:10490000700400202DE9FF5F84B0DDE91247002626
:10491000002003900290002580468146019007FB0D
:1049200004FBDDF810A0DDF810A0BAF1000F03D1F0
:10493000262008B0BDE8F09F0020DC490860DC4973
:1049400088604860401E0860012048610020C860FF
:1049500008610846FEF742FDD4481838006800F0A8
:10496000007008B10E20E4E7D2480078022808D190
:104970000402DDE90601400A40EAC1504912CDE9CE
:104980000601002C1FDDB4F5006F1CDC601E20400A
:10499000C8B9204602F076F90390C7480460102099
:1049A000C5494860402088600020C8604FF480609E
:1049B00008610846FEF778FD1020FDF791FB0646DA
:1049C0001EB13046B5E72620B3E7012F6FD907FBAC
:1049D00004F0B0F1007F01D32620AAE7B5480078A3
:1049E00038B1B4480078012803D0B24800780228D2
:1049F0002DD1B24800880004AF49086037204860D4
:104A0000402088600020C8604FF48060086108463C
:104A1000FEF74AFD3720FDF763FB06460EB1304630
:104A200087E7A54807601720A349486040208860B1
:104A30000020C8604FF4806008610846FEF734FD2E
:104A40001720FDF74DFB06460EB1304671E79A4937
:104A50000698086019204860402088600020C860DF
:104A60004FF4806008610846FEF71EFD1920FDF72F
:104A700037FB06460EB130465BE7039800018C49D0
:104A8000886007FB04F048604FF0FF3008600120A9
:104A900048610020C86008610846FEF79FFC88480E
:104AA0000078002874D1451EFBF7F0FB42E0E4E0FB
:104AB0004FF48040FEF7ACFCB8B3ABEB0800202805
:104AC0001FD2ABEB080000F0030018B9ABEB0800F5
:104AD000800803E0ABEB08008008401C01904FF019
:104AE00000090AE071495431DAF80000086009F160
:104AF00001090AF1040A08F1040801988145F1D37B
:104B000010E04FF0000906E05AF8290067495431D7
:104B1000086009F10109B9F1080FF5D30AF1200A7B
:104B200008F120086FF0404504E0FFE70DB90420CC
:104B3000FFE66D1E5D480830006840F21A310840FB
:104B40000028B5D00820FEF763FC20B10820FEF74E
:104B500035FC0420EDE60220FEF75AFC20B10220CD
:104B6000FEF72CFC0220E4E61020FEF751FC20B1F9
:104B70001020FEF723FC0520DBE64FF40070FEF763
:104B800047FC30B14FF40070FEF718FC0720D0E668
:104B90002CE04FF48070FEF73BFC00B345480078F2
:104BA00038B144480078012803D0424800780228F0
:104BB00015D10020404908600C20486040208860E2
:104BC0000020C8604FF4806008610846FEF76CFC66
:104BD0000C20FDF785FA06460EB13046A9E6FBF734
:104BE00057FB40F2FF50FEF7E9FB46E034480078FF
:104BF000012842D100203349087001203249087051
:104C000000203249087029481030006840F21A31FB
:104C1000084326491031086007FB04F1402204983C
:104C2000FEF75EFC2148006840F008001F4908605C
:104C30004FF0FF3500E06D1E2548006800F0006071
:104C400008B9002DF7D11DB9FEF748FE042070E623
:104C50004FF0FF3500E06D1E1C48007820B9194860
:104C6000007808B9002DF6D10DB9042061E6154889
:104C7000007810B1134800785BE640F2FF50FEF771
:104C80009DFB02A8FEF79CF9064603E002A8FEF78A
:104C900097F906463EB99DF808000728F6D09DF81A
:104CA00008000628F2D0304643E600002C2C0140D4
:104CB000DC030020A8000020C8030020AC00002076
:104CC000B0000020B2000020B1000020B30000209E
:104CD000006402401AB183880B43838002E083881A
:104CE0008B438380704770470CB500200190009083
:104CF0003448006840F480303249086000BF3148D1
:104D0000006800F4003000900198401C0190009869
:104D100018B90198B0F5A04FF1D12A48006800F405
:104D2000003010B10120009001E0002000900098B8
:104D3000012846D123484030006840F08050214986
:104D4000403108602048006840F440401E49086037
:104D50001C48083000681B49083108600846006894
:104D600040F4004008600846006840F4A050086025
:104D70001648091F0860081F006840F08070091F6E
:104D8000086000BF0F48006800F000700028F9D0EC
:104D900040F205700E4908600A480830006820F0AB
:104DA00003000849083108600846006840F0020026
:104DB000086000BF03480830006800F00C000828B5
:104DC000F8D10CBD00380240007000400854400784
:104DD000003C024010B500F0EDF810BD10B51548CC
:104DE000006840F47000134908601348006840F000
:104DF00001001149086000200F49083108600E4881
:104E000000680E4908400C4908600D48091D0860FB
:104E1000081F006820F48020091F08600020064950
:104E20000C310860FFF760FF4FF0006001498039E6
:104E3000086010BD88ED00E000380240FFFFF6FE7C
:104E40001030002410B504F08BFC10BD10B504F038
:104E500011FD10BDCA430282704721B1028842F0A1
:104E60000102028004E002884FF6FE731A400280BD
:104E7000704730B50246002000230024158A05EA59
:104E80000103958905EA010413B10CB1012000E08A
:104E9000002030BD1AB183890B43838102E08389EE
:104EA0008B4383817047000000220288184B984290
:104EB0000ED0184B98420BD0B0F1804F08D0164B53
:104EC000984205D0154B984202D0154B984204D118
:104ED0004FF68F731A404B881A43124B984207D0F3
:104EE000114B984204D04FF6FF431A400B891A43E6
:104EF00002804B68C3620B880385054B984202D041
:104F0000044B984201D18B7A038601238382704738
:104F1000000001400004014000040040000800407F
:104F2000000C004000100040001400400EB50121AC
:104F30001020FEF721F941F2873001905320ADF89F
:104F400000000020ADF80800ADF8020069460648F0
:104F5000FFF7AAFF012211460348FFF79BFF01213B
:104F60000148FFF77AFF0EBD001000400EB5012189
:104F70002020FEF701F940F2E73001905320ADF810
:104F800000000020ADF80800ADF8020069460848AE
:104F9000FFF78AFF01210648FFF75CFF0122114657
:104FA0000348FFF777FF01210148FFF756FF0EBDC9
:104FB0000014004002480068401E01490860704724
:104FC000B401002010B5024800F0D6FA10BD000070
:104FD0000010014001F40072B2F5007F00D100BF63
:104FE000CA430280704721B1828942F40052828113
:104FF00004E082894DF6FF731A40828170470246B1
:105000000020B1F5007F00D100BF13880B400BB129
:10501000012000E00020704770B502460024002304
:105020000025002040F66A16B14200D100BFC1F34E
:10503000421501F01F03012606FA03F3012D02D1E8
:105040009689334006E0022D02D1168A334001E0F2
:10505000968A33400C12012606FA04F4168834406E
:1050600013B10CB1012000E0002070BDF0B5034683
:10507000002400260025002040F66A17B94200D11E
:1050800000BF1846C1F3421401F01F06012707FABA
:1050900006F5012C01D10C3004E0022C01D11030B6
:1050A00000E014301AB107682F43076002E0076878
:1050B000AF430760F0BD00002DE9FF4705460E46EF
:1050C0000024A14600BFA046B08900B100BF2C8AD1
:1050D00024F44054F08804432C82AC8941F20C60E3
:1050E0008443B08831890843718908430443AC8103
:1050F000AC8A24F44074B0890443AC826846FEF75D
:1051000085F82048854202D01F48854202D1DDF84B
:105110000C9001E0DDF80890A88900F4004040B14F
:1051200009EBC90000EB091031684900B0FBF1F749
:1051300007E009EBC90000EB091031688900B0FBFA
:10514000F1F76420B7FBF0F004012009642101FBB2
:105150001078A88900F4004040B1322000EBC8006C
:10516000B0FBF1F000F00700044308E0322000EB50
:1051700008106421B0FBF1F000F00F0004432C8113
:10518000BDE8FF87001001400014014001468888F7
:10519000C0F308007047C1F308028280704700BF67
:1051A000FEE7000070B500240DE0084B53F8242002
:1051B00004EB8403C3EB8413054D05EB8301E0B2DC
:1051C00000F008F8641C012CEFDB70BD9401002096
:1051D000580A002070B505460C4616460020E070BF
:1051E000A081E08184F8E900C82104F12000FBF7E8
:1051F00001FA0020A061E06104F12000E0610838BC
:105200006061002084F8E800206120716071054928
:1052100051F82500002240F22771FFF727FF0220F6
:10522000207270BD9401002008B5FFF7BBFF022279
:105230000121054805F040FD009002220A210348A3
:1052400005F03AFD009008BD2956000849570008AE
:1052500070B505460E46032000F04AF9044615B124
:1052600044F0030401E024F003042146032000F08D
:1052700059F9022000F03CF9044616B144F0030449
:1052800001E024F003042146022000F04BF970BD38
:1052900070B5044604F007042F2000F029F90546F4
:1052A00025F0070545EA04012F2000F03BF93020E6
:1052B00000F01EF9054625F0070545EA04013020F7
:1052C00000F030F970BD70B504460D4604F03F049F
:1052D00005F03F050CB944F040040DB945F0400518
:1052E0002146342000F01EF945F48071352000F08D
:1052F00019F970BD70B504460D4604F0030405F0BD
:105300000305E00040EA4511042000F00BF970BDF0
:105310001CB501210620FDF71FFF4FF440500090FF
:1053200002208DF8040000208DF8060003208DF87F
:10533000050001208DF8070069463248FDF776FA2E
:105340004C20009002208DF8040000208DF806000B
:1053500003208DF8050001208DF8070069462A48D2
:10536000FDF764FA05220C212648FDF7A7FA05226D
:105370000D212448FDF7A2FA052203212248FDF75A
:105380009DFA052206212048FDF798FA06220221FF
:105390001D48FDF793FAFDF73DFD0021084600F09A
:1053A000C1F804460CB101201CBD1B21012000F0F6
:1053B000B9F84FF4D871022000F0B4F86C21032042
:1053C00000F0B0F80021062000F0ACF810212B20EE
:1053D00000F0A8F84FF480712F2000F0A3F84FF4EC
:1053E0008071302000F09EF80221312000F09AF800
:1053F00008210A2000F096F808210E2000F092F80B
:105400000020D1E700040240000802402DE9F041ED
:1054100005460E461746022000F06AF8044615B10C
:1054200044F00C0401E024F00C042146022000F0BA
:1054300079F82C2000F05CF8044615B144F03304F0
:1054400001E024F0330421462C2000F06BF81EB15B
:10545000052000F00EF802E0002000F00AF81FB16D
:105460000720FFF715FF02E00020FFF711FFBDE85E
:10547000F08170B5044604F007042F2000F038F8DE
:10548000054625F0700545EA04112F2000F04AF882
:10549000302000F02DF8054625F0700545EA04118E
:1054A000302000F03FF870BD10B5044604F03F0412
:1054B00021462D2000F036F844F480712E2000F0B3
:1054C00031F810BD70B506460D4600240EB144F00B
:1054D00001041DB144F0020444F0140421463220BA
:1054E00000F020F82146332000F01CF870BD0000C9
:1054F0000146024830F8110070470000B800002053
:1055000010B5044604F03F040CB944F040042146B1
:10551000362000F007F844F48071372000F002F8DC
:1055200010BD000070B505460C46FDF7CDFC3420DB
:10553000FDF796FCFDF714FD08B1012070BDC4F322
:10554000002141EA4501C8B2FDF78AFCFDF708FDDC
:1055500008B10220F2E7E0B2FDF782FCFDF700FDA2
:1055600008B10320EAE7FDF7D5FC024820F8154012
:105570000020E3E7B800002070B50546284605F096
:10558000B7FE044640F225512846FFF745FD50B1CD
:1055900004EB8400C0EB8410164A02EB80012A461B
:1055A000204600F025F908212846FFF728FD78B1AC
:1055B0002846FFF7EBFD08212846FFF70BFD0120E9
:1055C00004EB8401C1EB84110A4A02EB8101C8702B
:1055D00040F227712846FFF71FFD50B104EB84000D
:1055E000C0EB8410034A02EB80012A46204600F0FB
:1055F0002FF970BD580A002003B4019841000098AB
:1056000050EAC12018BF04204A0D18BF40F0010025
:1056100040F2FF72B2EB515F08BF40F00200012878
:1056200008BF052002B0704710B5002484E004EBE9
:105630008400C0EB8410424901EB80000079E8B39C
:1056400004EB8400C0EB841001EB80000079401E65
:1056500004EB8401C1EB8411394A02EB810108712A
:1056600004EB8400C0EB8410114601EB800000794C
:1056700020BB04EB8400C0EB841001EB800090F8A9
:10568000E900012822D1002004EB8401C1EB841140
:1056900002EB810181F8E9002A4951F82400002237
:1056A00040F22771FFF7E2FC002004EB8401C1EB1C
:1056B0008411234A02EB8101888100E006E004EBBB
:1056C0008401C1EB841102EB8101086104EB8400C9
:1056D000C0EB84101A4901EB8000407958B304EB09
:1056E0008400C0EB841001EB80004079401E04EB85
:1056F0008401C1EB8411124A02EB8101487104EB71
:105700008400C0EB8410114601EB8000407990B911
:1057100004EB8400C0EB841001EB800090F8E800FB
:10572000012808D1022004EB8401C1EB841102EBB3
:10573000810181F8E800641C012CFFF678AF10BDF0
:10574000580A00209401002000204CE000EB80016A
:10575000C1EB8011254A02EB8101C978F1B100212A
:1057600000EB8002C2EB8012204B03EB820282F836
:10577000E81000EB8002C2EB801203EB8202517151
:1057800000EB8002C2EB801203EB8202D18100EBBE
:105790008002C2EB801203EB8202D17000EB800129
:1057A000C1EB8011114A02EB810191F8E810022946
:1057B00018D100EB8001C1EB801102EB8101C98996
:1057C00000EB8002C2EB8012084B03EB82025269AD
:1057D0001180032100EB8002C2EB801203EB8202F6
:1057E00082F8E810401C0128B0DB7047580A0020FE
:1057F00070B505460C46164694F8E80018B194F8C2
:10580000E80001281CD194F8E80020B9012084F8B0
:10581000E8000020E0810D4951F82500FFF7B6FCB3
:1058200061694968E2898854E089C82802D3002068
:10583000E08102E0E089401CE081207A607104E0B0
:10584000024951F82500FFF7A1FC70BD940100202A
:1058500070B505460C4616462069F8B1A089216945
:10586000098888420EDA22695268A389D15C104AFD
:1058700052F82500FFF78FFCA089401CA081207AF8
:10588000207113E00A4951F82500002240F22771E7
:10589000FFF7ECFB002084F8E90007E0044951F829
:1058A0002500002240F22771FFF7E0FB70BD0000E9
:1058B0009401002000BF70472DE9F0412A4C04F10B
:1058C00064050026204605F025FD08B9BDE8F081F5
:1058D000207930B12079022803D02079202800D007
:1058E000F4E7207C022800DDF0E7607B0A2800D086
:1058F000ECE7607C0C2802DA607C002800DCE5E73D
:10590000207C20B1012803D002280FD10DE00EE049
:105910006279607C154951F820706B1D05F1110109
:1059200004F11100B847064601E000E000BF00BFE7
:10593000012E13D12079401C2871207C287429461F
:105940000948C83005F004FE074981F82C010846D3
:1059500090F82C11C830FBF7DDFF06466421204685
:10596000FAF726FE00BFB1E7640B002050BA00082A
:1059700010B514481449C8611448C8603F20087025
:1059800001200872FF20487000204860C969087033
:1059900001200D49C96948700B490876FF20087439
:1059A00000204861C96808700749C968487002202A
:1059B0000549C9688870642002F030FA00F048FC9C
:1059C00010BD0000A00C0020440B0020B0430020BC
:1059D00010B50D480068C0680478022C06D10A4949
:1059E0000968C96801F1280002F004FBFF2006499C
:1059F0000968087400200449096848610249096877
:105A0000C968087010BD00009801002010B500F0B2
:105A100071FB00F033FB10BD10B514480068C0697D
:105A20000478012C01D0022C11D110490968C969F0
:105A300001F1240002F0DEFA0C490968C969881CEA
:105A400003F078F809490968487800F0B9FC0520A6
:105A500006490968C9690870FF2004490968487047
:105A6000002002490968486010BD0000980100202C
:105A700010B50E480068C0690478012C01D0022CD2
:105A800006D10A490968C96901F1240002F0B2FA95
:105A9000052006490968C9690870FF20034909689B
:105AA0004870002001490968486010BD9801002035
:105AB0002DE9F041114C04F1640604F111056F1C4D
:105AC00003202071022020740A2161730520607177
:105AD000012028700A4838602146304605F038FD1C
