:020000040800F2
:1000000038050020D5000008430700080D07000848
:1000100000000000000000000000000000000000E0
:10002000000000000000000000000000810900083E
:100030000000000000000000950700088509000886
:100040000501000805010008050100080501000878
:100050000501000805010008050100080501000868
:100060000501000805010008050100080501000858
:100070000501000805010008050100080501000848
:100080000501000800000000000000000501000854
:100090000000000005010008050100080501000836
:1000A0000000000005010008050100080501000826
:1000B00005010008000000008D050008050100088A
:1000C0000348854600F052F800480047750A0008CA
:1000D000380500200C4880F308880C480168090E98
:1000E0000B4A914205D10B480B4901600B480C4962
:1000F00001600C4880470C480047FEE7FEE7FEE73A
:10010000FEE7FEE7FEE700003805002004000000DF
:100110001F00000018100240010000000000014014
:1001200000000000E1090008C100000830B50B46DE
:10013000014600202022012409E00D46D5409D42C1
:1001400005D31D469540491B254695404019154647
:10015000521E002DF1DC30BD0321001D401E03782E
:1001600012021A43491EF9D510467047064C012564
:10017000064E05E0E36807CC2B430C3C984710344F
:10018000B442F7D3FFF7A0FF0C0B00082C0B0008BC
:1001900010B501214C06204600F016FB0021204638
:1001A00000F012FB10BD000070B50446817A0120FA
:1001B00005462B4E8D40316801433160F069A843FC
:1001C000F061207B002812D1F068A843F060E0883D
:1001D000618800040843A17AC90089190864A088CD
:1001E000218800040843A17AC90089194864207B4A
:1001F000012814D1F0682843F0602046FFF7ACFFD7
:100200001021C841A17AC90089190864201DFFF78F
:10021000A3FF1021C841A17AC90089194864E07A76
:100220000028706805D0284370602089002802D01B
:1002300004E0A843F8E77069A843706120890128A9
:1002400002D1706928437061607B012802D1F06996
:100250002843F061306840084000306070BD000005
:1002600000660040002A426901D00A4300E08A4348
:100270004261704710B5036800220224A343036063
:100280000368012423430360314B00E0521C44689F
:10029000E40701D19A42F9D14268D2073ED08C7965
:1002A0008022012C04683BD094430460CC79402226
:1002B000012C046836D0944304600C7A2022012C6F
:1002C000046831D0944304604C7A1022012C0468F5
:1002D0002CD0944304608C7A0822012C046827D027
:1002E00094430460CC7A0422012C046822D0944305
:1002F00004608A78CC789207240622430C7924047F
:1003000022434C79098824052243491E0A43C261CD
:10031000016849084900016000210EE0002010BD7D
:100320001443C2E71443C7E71443CCE71443D1E7AF
:100330001443D6E71443DBE7491C4268D20701D0D7
:100340009942F9D14068C007E8D1012010BD0000F2
:10035000FFFFFF00F1B501218AB0480400F01CFA4C
:100360000121480600F024FA022669460E74002492
:1003700003208C74C00203900125CD7403204874BF
:100380000927FF0603A9384600F074F904220B215F
:10039000384600F0A7F904220C21384600F0A2F9F3
:1003A000194F3846FFF7F4FE69468C71CC71029400
:1003B0000A988870CC70072008714E710820088058
:1003C0003846FFF757FF08A98C70CD700D71FF20DC
:1003D0004130694608834C838C83CC830C8408A904
:1003E0004D7106A8FFF7E0FE1E20694608754E75A0
:1003F0008D7505A800F0A6F9012202213846FFF705
:1004000031FF00200BB0F0BD006400400B0130B59F
:100410001B18FF3381331C6B04252C4014721C6B9A
:1004200029D0E40854601C6B02252C4054725C6B8C
:100430002407240F94725C6B240AD4749C6BD472CE
:100440009C6B240A14739C6B240C54739C6B240EB9
:100450009473DC6BD473DC6B240A1474DC6B240C93
:100460005474DB6B1B0E93742022002906D00169A3
:100470001143016130BD640D1460D4E7C1681143BC
:10048000C16030BD30B50246936800205B0108D4DE
:100490009068000101D5012003E09068C0002ED5CE
:1004A000022003019A18FF3281321368DB07DB0F49
:1004B00013600B7A002B24D014684D681C434B7AD0
:1004C000ED002B431C4314608B7A1B071B0F8B72B0
:1004D00053681B091B01536053688C7A2343536094
:1004E000CB68CC7A1B02234393600B69C97B1B0248
:1004F0000B43D360116801231943116030BD042000
:1005000030BD13684C7A23430C8864052343136081
:10051000DAE700000022002904D0012905D00229D1
:1005200006D112E08268134801E082681248024056
:100530001249501A8A4218D00ADC002A17D01048F3
:10054000101811D0022810D10DE082680D48EEE796
:10055000FF38FF38801E06D00B49401804D0012117
:100560004904884201D101207047002070470220D1
:1005700070470000030000040003000800010008A9
:10058000FFFFFFFB000003100003FFF7F0B585B08D
:100590006A4600211148FFF739FF00206E461049D6
:1005A000104A0746B57A0CE03318DB7A0C881355ED
:1005B0000B885B1C0B800B88FE2B00D10F80401C2E
:1005C000C0B28542F0D809208021C00600F09AF818
:1005D000054800680549086005B0F0BD00640040AA
:1005E0001C000020340000202000002024000020F7
:1005F000F0B585B00022A02300936C4601922272D0
:100600006272A1726B4604E0845C9D18521CEC720D
:1006100092B28A42F8D3134F19463846FFF732FF99
:1006200006460024104D01E0641CA4B23146384651
:10063000FFF770FF002801D1AC42F5D3AC4205D3DF
:100640000020FFF787FE012005B0F0BD0920402102
:10065000C00600F057F8054800680549086000200A
:10066000F2E7000000640040FF0F000020000020BF
:1006700028000020F0B50022032501230C689340D8
:100680001C409C422AD10C79012C01D0022C12D1A1
:10069000876854002E46A640B74387604E79A6402F
:1006A00084682643866084889C43848084888B7910
:1006B00093401C438480066853002C469C40A6430C
:1006C00006600E7907689E403E430660C668A643F2
:1006D000C660CC799C40C3681C43C460521C102A7D
:1006E000CBD3F0BD4B07DB0E9A40C90810B589008B
:1006F0000818016A0F249C40A1430162016A11435A
:10070000016210BD0185704781617047FEE71CB52D
:100710000121480400F040F8F020009001206A46D2
:10072000107100219171032151710924D071E406E7
:1007300069462046FFF79EFFF0212046FFF7E4FFC1
:100740001CBD704730B5827801240178002A15D08D
:100750008B080E4A9B009A1813688907C90EFF255B
:100760008D40AB434578AD072D0E8D401D43156080
:100770000078C006C00E8440054804E0C806C00EDC
:10078000844003488030046030BD000000E400E095
:1007900000E100E070470000044A0029516901D0DF
:1007A000014300E0814351617047000000100240A6
:1007B000044A0029D16901D0014300E08143D1619D
:1007C0007047000000100240044A0029116901D05E
:1007D000014300E0814311617047000000100240B6
:1007E00070B5002400F034F8012000F08BF80525E6
:1007F0002D0300E0641C012000F058F8002801D10E
:10080000AC42F7D1012000F051F800281CD00F496C
:1008100011200860002000F06BF8002000F080F844
:100820000521C904002000F093F8012000F082F8AF
:10083000192000F03BF80028FAD0022000F096F8CA
:1008400000F04EF80828FBD170BD000000200240E7
:10085000124801680122114301604168104A1140A9
:10086000416001680F4A1140016001680122920451
:100870009143016041683F22120491434160C16A83
:1008800009090901C162016B074A11400163416B0B
:10089000490849004163002181607047001002400F
:1008A0000CB8FF08FFFFF6FEACFEF0FF0346002089
:1008B0000A4A59090CD001290CD002290CD0516BDD
:1008C000DA06D20E012393400B4200D0012070477C
:1008D0001168F5E7116AF3E7516AF1E70010024089
:1008E000024840680C210840704700000010024098
:1008F000034A5168F0239943014351607047000057
:100900000010024005490028086802D00122104367
:1009100001E04008400008607047000000100240FD
:10092000034A516807231B029943014351607047F2
:10093000001002400122054912060028086801D073
:10094000104300E090430860704700000010024030
:1009500010B5054A53687B24E403A34353605368EE
:1009600008430343536010BD00100240034A51681E
:10097000890889000143516070470000001002405F
:100980007047000002480168491E0160704700007E
:100990002000002070B50E487D21C9000D4C006874
:1009A000FFF7C4FB0C4A0723401EA04201D90121D6
:1009B0000BE05061094EF16903250902090AAD07F0
:1009C0002943F1610021916113610029EDD170BDCE
:1009D00008000020FFFFFF0000E000E004ED00E061
:1009E000134801680122114301604168114A114016
:1009F00041600168104A11400160016801229204BF
:100A00009143016041683F22120491434160C16AF1
:100A100009090901C162016BFF225432914301634C
:100A2000416B490849004163002181607047000023
:100A3000001002400CB8FF08FFFFF6FE02E008C8F5
:100A4000121F08C1002AFAD170477047002001E048
:100A500001C1121F002AFBD1704710B5FFF7C0FF7C
:100A6000FFF7BEFEFFF796FFFFF751FE0020FFF7EE
:100A700071FC10BDFFF7F1FF1D4F1E4E1E4D1F4CA8
:100A800038682168401A0A281BD32068386064211E
:100A90002868FFF74BFB002910D120681849C04394
:100AA00088420BD9F079401CC0B2F071FF2801D107
:100AB0000020F07108210F48FFF79AFD2868401CBC
:100AC0002860104800682168401A322804D909209B
:100AD0008021C006FFF718FE0B4800682168401A05
:100AE0003228CDD909204021C006FFF70DFEC7E707
:100AF0002C000020000000203000002020000020FA
:100B0000B80B000024000020280000202C0B000857
:100B100000000020340000003C0A0008600B0008C0
:100B200034000020040500004C0A0008AABBCCDDFC
:100B3000EE0A0000006CDC02000000000000000073
:100B4000010203040607080900000000FFFFFFFF81
:100B5000FFFFFFFFFFFFFFFFFFFFFFFF00000000A1
:04000005080000C12E
:00000001FF
