:020000040800F2
:1000000028140120810200087D3E0008EB2E000824
:10001000793E000835160008D5630008000000008E
:100020000000000000000000000000006F5B0008FE
:1000300071240008000000006D3F00085D5C0008AE
:100040009B0200089B0200089B0200089B0200081C
:100050009B0200089B0200089B0200089B0200080C
:100060009B0200089B0200089B0200089B020008FC
:100070009B0200089B02000825210008512100086E
:100080009B0200089B0200089B0200089B020008DC
:10009000391600089B0200089B0200089B0200081A
:1000A0009B0200089B0200089B0200089B020008BC
:1000B0009B0200089B0200089B0200089B020008AC
:1000C0009B0200089B0200089B0200089B0200089C
:1000D0009B0200084D5E00089B0200089B0200087E
:1000E0009B0200089B0200089B0200089B0200087C
:1000F0009B0200089B0200089B0200089B0200086C
:100100009B020008C14200089B0200089B020008F5
:100110009B0200089B020008CD5C0008D55C00082B
:100120009B0200089B0200089B0200089B0200083B
:100130009B0200089B0200089B0200089B0200082B
:100140009B0200089B0200089B0200089B0200081B
:100150009B0200089B0200089B0200089B0200080B
:100160009B0200089B0200089B0200089B020008FB
:100170009B0200089B0200089B0200089B020008EB
:100180009B0200089B02000800F002F800F064F8EF
:100190000AA090E8000C82448344AAF10107DA45E2
:1001A00001D100F059F8AFF2090EBAE80F0013F0D0
:1001B000010F18BFFB1A43F001031847E4D90300ED
:1001C00004DA03000A444FF0000C10F8013B13F06E
:1001D000070408BF10F8014B1D1108BF10F8015BA0
:1001E000641E05D010F8016B641E01F8016BF9D193
:1001F00013F0080F1EBF10F8014BAD1C0C1B09D1EA
:100200006D1E58BF01F801CBFAD505E014F8016B5B
:1002100001F8016B6D1EF9D59142D6D370470000ED
:100220000023002400250026103A28BF78C1FBD8FF
:10023000520728BF30C148BF0B607047642900F0E7
:10024000F384732900F0C787002070471FB50FF0B3
:100250005BFB1FBD10B510BD01F047F81146FFF75D
:10026000F5FF0BF011FA01F065F803B4FFF7F2FFA8
:1002700003BC06F0B9FC000072B6704762B6704766
:100280000948804709480047FEE7FEE7FEE7FEE72A
:10029000FEE7FEE7FEE7FEE7FEE7FEE70448054966
:1002A000054A064B70470000655C0008890100089C
:1002B000280E0120281401202810012028100120D8
:1002C00081FB0020704770472DE9F04F82B001900C
:1002D0004FF000744FF000784FF000054FF0000928
:1002E00052F804CB52F804EB0868CB6DC0FB0C4508
:1002F000D1F88000CEF1000EC3FB0E45D1F8DC3002
:10030000C0FB0C89C3FB0E8952F804CB52F804EBF6
:1003100048688B6DC0FB0C45D1F88400CEF1000E0F
:10032000C3FB0E45D1F8D830C0FB0C89C3FB0E8946
:1003300052F804CB52F804EB88684B6DC0FB0C45B7
:10034000D1F88800CEF1000EC3FB0E45D1F8D430B1
:10035000C0FB0C89C3FB0E8952F804CB52F804EBA6
:10036000C8680B6DC0FB0C45D1F88C00CEF1000EB7
:10037000C3FB0E45D1F8D030C0FB0C89C3FB0E89FE
:1003800052F804CB52F804EB0869CB6CC0FB0C4567
:10039000D1F89000CEF1000EC3FB0E45D1F8CC3061
:1003A000C0FB0C89C3FB0E8952F804CB52F804EB56
:1003B00048698B6CC0FB0C45D1F89400CEF1000E5F
:1003C000C3FB0E45D1F8C830C0FB0C89C3FB0E89B6
:1003D00052F804CB52F804EB88694B6CC0FB0C4517
:1003E000D1F89800CEF1000EC3FB0E45D1F8C43011
:1003F000C0FB0C89C3FB0E8952F804CB52F804EB06
:10040000C8690B6CC0FB0C45D1F89C00CEF1000E06
:10041000C3FB0E45D1F8C030C0FB0C89C3FB0E896D
:1004200001984FF4FE4E4EF0FF0E4FEA946444EAFA
:1004300085144FEAE47CBCEBE43F18BF8CEA0E0461
:100440004FEA986848EA89184FEAE87CBCEBE83F35
:1004500018BF8CEA0E080480A0F8028002F57072C2
:1004600001F580514FF000744FF000784FF0000517
:100470004FF0000952F804CB0868D1F88030C0FB77
:100480000C45C3FB0C8952F804CB4868D1F8843082
:10049000C0FB0C45C3FB0C8952F804CB8868D1F82B
:1004A0008830C0FB0C45C3FB0C8952F804CBC868EC
:1004B000D1F88C30C0FB0C45C3FB0C8952F804CB3F
:1004C0000869D1F89030C0FB0C45C3FB0C8952F889
:1004D00004CB4869D1F89430C0FB0C45C3FB0C89B0
:1004E00052F804CB8869D1F89830C0FB0C45C3FBA7
:1004F0000C8952F804CBC869D1F89C30C0FB0C457C
:10050000C3FB0C8901984FF4FE4E4EF0FF0E4FEAEC
:10051000946444EA85144FEAE47CBCEBE43F18BFE2
:100520008CEA0E044FEA986848EA89184FEAE87C9A
:10053000BCEBE83F18BF8CEA0E08A0F84040A0F8DA
:100540004280A2F57872A1F570614FF00F0C00F1B6
:100550000400CDF800C001904FF000744FF0007817
:100560004FF000764FF0007A4FF000054FF0000991
:100570004FF000074FF0000B52F804CB52F804EB99
:100580000868CB6DC0FB0C45C0FB0E67CEF1000EBA
:10059000C3FB0C67C3FB0E45D1F8DC30D1F88000FB
:1005A000C3FB0E89C3FB0CABCEF1000EC0FB0C8964
:1005B000C0FB0EAB52F804CB52F804EB48688B6DCD
:1005C000C0FB0C45C0FB0E67CEF1000EC3FB0C67F1
:1005D000C3FB0E45D1F8D830D1F88400C3FB0E8997
:1005E000C3FB0CABCEF1000EC0FB0C89C0FB0EAB05
:1005F00052F804CB52F804EB88684B6DC0FB0C45F5
:10060000C0FB0E67CEF1000EC3FB0C67C3FB0E45AB
:10061000D1F8D430D1F88800C3FB0E89C3FB0CABF2
:10062000CEF1000EC0FB0C89C0FB0EAB52F804CB20
:1006300052F804EBC8680B6DC0FB0C45C0FB0E679D
:10064000CEF1000EC3FB0C67C3FB0E45D1F8D030D2
:10065000D1F88C00C3FB0E89C3FB0CABCEF1000EAE
:10066000C0FB0C89C0FB0EAB52F804CB52F804EB74
:100670000869CB6CC0FB0C45C0FB0E67CEF1000EC9
:10068000C3FB0C67C3FB0E45D1F8CC30D1F890000A
:10069000C3FB0E89C3FB0CABCEF1000EC0FB0C8973
:1006A000C0FB0EAB52F804CB52F804EB48698B6CDC
:1006B000C0FB0C45C0FB0E67CEF1000EC3FB0C6700
:1006C000C3FB0E45D1F8C830D1F89400C3FB0E89A6
:1006D000C3FB0CABCEF1000EC0FB0C89C0FB0EAB14
:1006E00052F804CB52F804EB88694B6CC0FB0C4504
:1006F000C0FB0E67CEF1000EC3FB0C67C3FB0E45BB
:10070000D1F8C430D1F89800C3FB0E89C3FB0CAB01
:10071000CEF1000EC0FB0C89C0FB0EAB52F804CB2F
:1007200052F804EBC8690B6CC0FB0C45C0FB0E67AC
:10073000CEF1000EC3FB0C67C3FB0E45D1F8C030F1
:10074000D1F89C00C3FB0E89C3FB0CABCEF1000EAD
:10075000C0FB0C89C0FB0EAB01F5807101984FF412
:10076000FE4E4EF0FF0E4FEA946444EA85144FEAC1
:10077000E47CBCEBE43F18BF8CEA0E044FEA9868B7
:1007800048EA89184FEAE87CBCEBE83F18BF8CEADE
:100790000E084FEA966646EA87164FEAE67CBCEBFF
:1007A000E63F18BF8CEA0E064FEA9A6A4AEA8B1AAD
:1007B0004FEAEA7CBCEBEA3F18BF8CEA0E0ADDF890
:1007C00000C000EBCC0E2EF8026B2EF802AB20F826
:1007D000024B20F8028BBCF1010C7FF4BAAE02B0E0
:1007E000BDE8F08F2DE9F04F82B001904FF000741A
:1007F0004FF0000552F804CB52F804EB0868CB6DBB
:10080000CEF1000EC0FB0C45C3FB0E4552F804CBE5
:1008100052F804EB48688B6DCEF1000EC0FB0C451E
:10082000C3FB0E4552F804CB52F804EB88684B6DBD
:10083000CEF1000EC0FB0C45C3FB0E4552F804CBB5
:1008400052F804EBC8680B6DCEF1000EC0FB0C45EE
:10085000C3FB0E4552F804CB52F804EB0869CB6C8D
:10086000CEF1000EC0FB0C45C3FB0E4552F804CB85
:1008700052F804EB48698B6CCEF1000EC0FB0C45BE
:10088000C3FB0E4552F804CB52F804EB88694B6C5D
:10089000CEF1000EC0FB0C45C3FB0E4552F804CB55
:1008A00052F804EBC8690B6CCEF1000EC0FB0C458E
:1008B000C3FB0E4501984FF4FE4E4EF0FF0E4FEA7B
:1008C000946444EA85144FEAE47CBCEBE43F18BF2F
:1008D0008CEA0E04048002F5707201F580514FF02D
:1008E00000744FF0000552F804CB0868C0FB0C45BB
:1008F00052F804CB4868C0FB0C4552F804CB88681A
:10090000C0FB0C4552F804CBC868C0FB0C4552F83C
:1009100004CB0869C0FB0C4552F804CB4869C0FB06
:100920000C4552F804CB8869C0FB0C4552F804CB47
:10093000C869C0FB0C4501984FF4FE4E4EF0FF0E07
:100940004FEA946444EA85144FEAE47CBCEBE43F4C
:1009500018BF8CEA0E040484A2F57872A1F57061C8
:100960004FF00F0C00F10200CDF800C001904FF0E5
:1009700000744FF000764FF000054FF0000752F87A
:1009800004CB52F804EB0868CB6DC0FB0C45C0FBF0
:100990000E67CEF1000EC3FB0E45C3FB0C6752F889
:1009A00004CB52F804EB48688B6DC0FB0C45C0FBD0
:1009B0000E67CEF1000EC3FB0E45C3FB0C6752F869
:1009C00004CB52F804EB88684B6DC0FB0C45C0FBB0
:1009D0000E67CEF1000EC3FB0E45C3FB0C6752F849
:1009E00004CB52F804EBC8680B6DC0FB0C45C0FB90
:1009F0000E67CEF1000EC3FB0E45C3FB0C6752F829
:100A000004CB52F804EB0869CB6CC0FB0C45C0FB6F
:100A10000E67CEF1000EC3FB0E45C3FB0C6752F808
:100A200004CB52F804EB48698B6CC0FB0C45C0FB4F
:100A30000E67CEF1000EC3FB0E45C3FB0C6752F8E8
:100A400004CB52F804EB88694B6CC0FB0C45C0FB2F
:100A50000E67CEF1000EC3FB0E45C3FB0C6752F8C8
:100A600004CB52F804EBC8690B6CC0FB0C45C0FB0F
:100A70000E67CEF1000EC3FB0E45C3FB0C6701F5FC
:100A8000807101984FF4FE4E4EF0FF0E4FEA9464D1
:100A900044EA85144FEAE47CBCEBE43F18BF8CEADF
:100AA0000E044FEA966646EA87164FEAE67CBCEBF0
:100AB000E63F18BF8CEA0E06DDF800C000EB8C0E96
:100AC0002EF8026B20F8024BBCF1010C7FF44CAF06
:100AD00002B0BDE8F08F704710B54C1084EA5304A3
:100AE00004D54042C1F1000138BF491E1B4204D564
:100AF0005242C3F1000338BF5B1E00F065FA14F0E8
:100B0000804F04D04042C1F1000138BF491E14F0AB
:100B1000004F04D05242C3F1000338BF5B1E10BD2A
:100B20000FB4044910B503AA029800F059FB10BC99
:100B30005DF814FB400100200FB41CB50C0007AA9F
:100B4000009001D02044401E074B7B446946019031
:100B5000069800F00EFB002C03D06946002000F040
:100B60001BFB1CBC5DF814FB550600002DE9F04191
:100B70000E460446002020622046E168884730B3D4
:100B8000252805D0D4E901219047206A401CF2E7CE
:100B9000E168204600278847050018D0A5F14100EC
:100BA000192802D820354FF40067324629462046DE
:100BB0002760FFF743FB40B1012804D0F61D26F063
:100BC00007060836D8E7361DD6E72846DAE7206A52
:100BD000BDE8F08170B50C460546012A05D028789D
:100BE000800600D5EA69002302E0012305E05B1CD2
:100BF000934202D2E05C0028F9D1A869E618C01A35
:100C0000A861286A184428622846AFF3008004E0EF
:100C1000D5E9012114F8010B9047B442F8D32846D6
:100C2000AFF3008070BD00002DE9F04106460024BE
:100C300010687529314616A510D0AFF30080002842
:100C400002DA404213A507E031688A0701D512A5F0
:100C500002E0490704D511A5012401E0AFF30080AB
:100C600000210A2206F1240709E0B0FBF2FCB0FBE8
:100C7000F2F302FB1C00303078541846491C00285F
:100C8000F3D123462A463046BDE8F04100F013BABE
:100C9000000000002D0000002B00000020000000DC
:100CA00030B505460B462A4613F8014B12F8010BE6
:100CB00008B1A042F8D01CB1002802D06D1CF1E7A9
:100CC000284630BD40EA0103024630B59B0710D1EB
:100CD0004FF0013400E008C208C91D1B9D4315EA0E
:100CE000C41FF8D013F0FF0102F8011B0DD01B0A3E
:100CF000F8E711F8013B002B02F8013B05D011F891
:100D0000013B002B02F8013BF3D130BD10B5431C71
:100D100002E010F8011B71B18107FAD14FF00132E6
:100D200002C88C1A8C4314EAC211F9D0C01A0A0600
:100D300003D0C01E10BDC01A10BD0A0401D0801E11
:100D400010BD0902FCD0401E10BD032A40F23080C5
:100D500010F0030C00F0158011F8013BBCF1020FFC
:100D6000624498BF11F801CB00F8013B38BF11F87D
:100D7000013BA2F1040298BF00F801CB38BF00F894
:100D8000013B11F0030300F03D82083AC0F00880F7
:100D900051F8043B083A51F804CBA0E80810F5E7F5
:100DA000121D5CBF51F8043B40F8043BAFF30080D8
:100DB000D20724BF11F8013B11F801CB48BF11F84D
:100DC000012B24BF00F8013B00F801CB48BF00F81D
:100DD000012B7047431A28BF9A427FF6B6AF032A09
:100DE0001044114440F2268010F0030F1EBF11F88A
:100DF000013D521E00F8013D10F0030F7FF4F6AFE5
:100E000011F0030300F04382083AC0F00B8051F860
:100E1000043D083A51F804CD40F8043D40F804CDB3
:100E2000FFF7F3BF121D5CBF51F8043D40F8043DCD
:100E3000AFF30080D20724BF11F8013D11F801CDB6
:100E400048BF11F8012C24BF00F8013D00F801CD86
:100E500048BF00F8012C70474FF000020429C0F091
:100E6000128010F0030C00F01B80CCF1040CBCF1DC
:100E7000020F18BF00F8012BA8BF20F8022BA1EB2E
:100E80000C0100F00DB85FEAC17C24BF00F8012B13
:100E900000F8012B48BF00F8012B70474FF000020B
:100EA00000B5134694469646203922BFA0E80C5060
:100EB000A0E80C50B1F12001BFF4F7AF090728BF3B
:100EC000A0E80C5048BF0CC05DF804EB890028BFB7
:100ED00040F8042B08BF704748BF20F8022B11F0E0
:100EE000804F18BF00F8012B704710B5044610F072
:100EF000030F08BF11F0030F40F015804FF0013EC3
:100F0000121FC0F20E8051F8043BA3EB0E0C2CEA2A
:100F1000030C1CEACE1C08BF40F8043BF0D0A1F142
:100F2000040102F10402521E08DB11F8013B002B00
:100F300000F8013BF7D11146FFF78EFF204610BDA8
:100F40004FF0013C50F8042B51F8043B9A4221D158
:100F5000A2EB0C03934313EACC1317D150F8042BE4
:100F600051F8043B9A4215D1A2EB0C03934313EAC8
:100F7000CC130BD150F8042B51F8043B9A4209D101
:100F8000A2EB0C03934313EACC13DBD04FF0000029
:100F9000704700BFD01A01BAB1FA81F101F018010F
:100FA00022FA01F0CB40C1F12001DBB2C0B2C01A7D
:100FB0002CFA01F3D11A914311EAC311E6D170471B
:100FC000704770477047704753EA020C00F0698021
:100FD0002DE9F04B4FF00006002B1FBFB3FA83F54D
:100FE00003FA05F424FA05F65E4012BF1643B2FA7E
:100FF00082F502FA05F4C5F120051EBF22FA05FCB0
:1010000044EA0C04203556EA044C4FEA144418BF55
:10101000641C4FF000084FF00009904271EB030C84
:1010200039D3002919BFB1FA81F701FA07F6B0FAEE
:1010300080F700FA07F6C7F120071EBF20FA07FC69
:1010400046EA0C062037B6FBF4FCA7EB0507103F79
:1010500007F01F0BCBF120060CFA0BFB2CFA06F65F
:1010600044BFB3460026202FA4BF5E464FF0000BBE
:101070005BEA060C08BF4FF0010B19EB0B09ABFB49
:10108000027C48EB0608C01B06FB02CC0BFB03CC22
:1010900071EB0C01C1E70B46024641464846BDE8EC
:1010A000F08B13B54FF000004FF00001AFF300805C
:1010B000BDE81C4070472DE9F0470D469946924621
:1010C000044600F124080168880604D5E06921F08F
:1010D0001001216000E00120A84201DD471B00E073
:1010E0000027A1697A1902EB0900081AA06120788B
:1010F000C00602D42046AFF30080002608E0D4E901
:1011000001211AF806009047206A401C761C2062D4
:101110004E45F4DB2078C0060AD52046AFF30080A8
:1011200006E0D4E9012130209047206A401C20626B
:10113000381EA7F10107F4DC07E0D4E9012118F813
:1011400005009047206A401C2062281EA5F1010579
:10115000F3DC2046AFF300802078000602D50220A1
:10116000BDE8F0870120FBE701694A1C02610878AD
:10117000704700B58FB0CDE90131002105910549D7
:101180007944CDE9031011466846FFF7EFFC0FB034
:1011900000BD0000E5FFFFFF0A6802F8010B0A60CE
:1011A0007047D1E900239A4202D2531C0B601070A1
:1011B000704710B5436913B1AFF3008001E0FFF74A
:1011C00009FD012010BD127800F124010A700022EF
:1011D0004A700122EDE711684FF0FF32E9E70000A5
:1011E000074B70B50D467B44FFF7C3FF0446284606
:1011F00000F077F810B14FF0FF3070BD204670BDA1
:10120000979A000010B5203AC0F00B80B1E8185052
:10121000203AA0E81850B1E81850A0E81850BFF4E0
:10122000F5AF5FEA027C24BFB1E81850A0E818507F
:1012300044BF18C918C0BDE810405FEA827C24BFD3
:1012400051F8043B40F8043B08BF7047D20728BF61
:1012500031F8023B48BF11F8012B28BF20F8023BB0
:1012600048BF00F8012B7047431A28BF9A427FF607
:10127000C9AF104410F0030F11441EBF11F8013D17
:10128000521E00F8013D10F0030F7FF4F6AF103A44
:10129000C0F00A8010B531E91850103A20E9185012
:1012A000BFF4F9AFBDE81040530724BF31E908107F
:1012B00020E9081044BF51F8043D40F8043D12F005
:1012C000030F08BF7047D20728BF31F8023D48BF5F
:1012D00011F8012C28BF20F8023D48BF00F8012C6E
:1012E0007047007B00F080007047754600F02CF8D6
:1012F000AE4605006946534620F00700854618B003
:1013000020B5FEF7CBFFBDE820404FF000064FF0C0
:1013100000074FF000084FF0000B21F00701AC462A
:10132000ACE8C009ACE8C009ACE8C009ACE8C00949
:101330008D46704710B50446AFF300802046BDE8E7
:101340001040FEF792BF000000487047C40D012016
:101350002DE9F05F04460E4601E1834DD4F844B018
:10136000D4F84880D5F8009059464846D5F804A0EE
:10137000FEF7A6FF074641465046FEF7A1FF381A82
:101380004000606441464846FEF79AFF07465946CA
:101390005046FEF795FF38444000A064D4F840B0B2
:1013A000D5F80890D4F84C8059464846D5F80CA09A
:1013B000FEF786FF074641465046FEF781FF381A82
:1013C0004000206441464846FEF77AFF07465946EA
:1013D0005046FEF775FF38444000E064D4F83CB056
:1013E000D5F81090D4F8508059464846D5F814A046
:1013F000FEF766FF074641465046FEF761FF381A82
:101400004000E06341464846FEF75AFF074659460A
:101410005046FEF755FF384440002065D4F838B0F8
:10142000D5F81890D4F8548059464846D5F81CA0F1
:10143000FEF746FF074641465046FEF741FF381A81
:101440004000A06341464846FEF73AFF074659462A
:101450005046FEF735FF384440006065D4F834B09C
:10146000D5F82090D4F8588059464846D5F824A09D
:10147000FEF726FF074641465046FEF721FF381A81
:101480004000606341464846FEF71AFF074659464A
:101490005046FEF715FF38444000A065D4F830B040
:1014A000D5F82890D4F85C8059464846D5F82CA049
:1014B000FEF706FF074641465046FEF701FF381A81
:1014C0004000206341464846FEF7FAFE074659466B
:1014D0005046FEF7F5FE38444000E065D4F82CB0E5
:1014E000D5F830A0D4F8608059465046D5F83490ED
:1014F000FEF7E6FE074641464846FEF7E1FE381A8B
:101500004000E06241465046FEF7DAFE0746594683
:101510004846FEF7D5FE384440002066D4F828A09F
:10152000D5F83880D4F86490ED6B51464046FEF70C
:10153000C7FE074649462846FEF7C2FE381A400055
:10154000A06249464046FEF7BBFE07465146284684
:10155000FEF7B6FE3844400060664834761E002E22
:101560003FF7FBAEBDE8F09F5CD6030870B5274897
:1015700000684FF47A72B0FBF2F1481EB0F1807F40
:1015800001D301201BE0481E4FF0E02250615017AC
:101590000F22002804DB13071D0E1D4B1D5406E00F
:1015A00013071E0E1B4B00F00F052D1F5E5500BFCD
:1015B00000204FF0E022906107201061002008B168
:1015C00000BFFEE702F024FD01F0D8FB02F057FC5B
:1015D00006F0FEFB06F06CFD0AF0C4FC0BF092FD79
:1015E00000F0EEF908F08AF90B49012208680BA116
:1015F00008F03EFC044614B9012009490870214650
:1016000008A0FFF78DFA04F09DFF70BD00000020D8
:1016100000E400E018ED00E044010020303A000052
:1016200038010020665F6D6F756E743A2025640A7C
:101630000000000000BFFEE710B586B001AA00213F
:10164000154800F037FA002414E00DF10F00005D9A
:101650001249134A1288885411480088401C1049C6
:10166000088008460088B0F5C87F01D100200880B6
:10167000601CC4B29DF80E00A042E6DC0948007868
:1016800038B900220121084801F02AFC012005494F
:10169000087006B010BD000000640040700100201A
:1016A000240000202B000020000402400849094AC1
:1016B0001288885C07490988491C064A118011462E
:1016C0000988B1F5C87F01D1002111807047000061
:1016D0007001002026000020044800880449098881
:1016E000884201D1002070470120FCE7240000203F
:1016F000260000202DE9F04707460C462046E1175A
:1017000004EB5171C1F3C7094FF000080DE0082147
:10171000384600F041FB054615B12846BDE8F08784
:10172000083708F1010000F0FF08C845EFDBE117BA
:1017300004EB5171C910A4EBC10159B12646E01761
:1017400004EB5070C010A4EBC000C1B2384600F0EA
:1017500023FB05462846E1E710B504460B488442C2
:1017600009D10121480602F023FC00214FF000704E
:1017700002F01EFC08E00121880602F019FC00219D
:101780004FF0806002F014FC10BD000000640040C7
:1017900010B50021837A012202FA03F13D4A126852
:1017A00042F001023B4B1A603A4A1C3212688A43EB
:1017B000384B1C331A60027BCAB9364A0C321268A5
:1017C0008A43344B0C331A604288C38842EA03438D
:1017D000304A4032847A42F834300288838842EAC0
:1017E00003432C4A4032847A02EBC4025360027BEA
:1017F000012A19D1274A0C3212680A43254B0C33AF
:101800001A604288038842EA0343224A4032847ABB
:1018100042F83430C288838842EA03431D4A40328A
:10182000847A02EBC4025360C27A3AB9194A121D93
:1018300012688A43174B1B1D1A6006E0154A121DD9
:1018400012680A43134B1B1D1A60028932B9114AF0
:10185000143212688A430F4B14331A600289012A2A
:1018600006D10C4A143212680A430A4B14331A6028
:10187000427B012A06D1074A1C3212680A43054BF3
:101880001C331A60034A126822F00102014B1A60ED
:1018900010BD0000006600401AB143690B4343616C
:1018A00002E043698B434361704730B50246002034
:1018B0000023146824F002041460146844F0010446
:1018C000146000E05B1C546804F001041CB94FF67E
:1018D000FF74A342F6D1546804F001040CB900204F
:1018E0006CE08C79012C04D1146844F080041460FD
:1018F00003E0146824F080041460CC79012C04D136
:10190000146844F04004146003E0146824F04004B8
:1019100014600C7A012C04D1146844F02004146083
:1019200003E0146824F0200414604C7A012C04D1E4
:10193000146844F01004146003E0146824F01004E8
:1019400014608C7A012C04D1146844F008041460EB
:1019500003E0146824F008041460CC7A012C04D14C
:10196000146844F00404146003E0146824F00404D0
:1019700014608C78A407CD7844EA05640D7944EAB4
:1019800005444D7944EA05540D886D1E2C43D461FD
:10199000146824F001041460002300E05B1C546808
:1019A00004F001041CB14FF6FF74A342F6D1546851
:1019B00004F001040CB1002000E0012030BD000063
:1019C00000B58BB00121480602F0E2FA02208DF842
:1019D000280000208DF82A004FF4C0500990012003
:1019E0008DF82B0002208DF8290009A92F4801F05D
:1019F00003FA09220C212D4801F046FA09220B2195
:101A00002A4801F041FA2A48FFF7A6FE00208DF887
:101A10001E008DF81F008DF820008DF821008DF834
:101A200022008DF823008DF81A008DF81B00092084
:101A30008DF81C0000208DF81D000720ADF818005F
:101A400006A91B48FFF731FF00208DF81200012086
:101A50008DF813008DF814004FF4A070ADF8080055
:101A60000020ADF80A00ADF80C00ADF80E00ADF89E
:101A7000100001208DF8150002A8FFF789FE142040
:101A80008DF8040001208DF8050000208DF8060077
:101A900001208DF8070001A802F022FA012202219C
:101AA0000348FFF7F9FE00200BB000BD0000024024
:101AB0000064004010B500F5D87303EB01131B68F8
:101AC00003F004031372137A53B900F5D87303EBD0
:101AD00001131B6840F2FF7404EA5353136009E0DA
:101AE00000F5D87303EB01131B686FF0604404EA40
:101AF000D303536000F5D87303EB01131B6803F0A5
:101B00000203537200F5D87303EB01135B6803F013
:101B10000F03937200F5D87303EB01135B681B0A84
:101B2000D37400F5D87303EB01139B68D37200F5EF
:101B3000D87303EB01139B681C0A147300F5D87368
:101B400003EB01139B681C0C547300F5D87303EB73
:101B500001139B681B0E937300F5D87303EB0113FD
:101B6000DB68D37300F5D87303EB0113DB681C0A41
:101B7000147400F5D87303EB0113DB681C0C547468
:101B800000F5D87303EB0113DB681B0E937421B9C6
:101B9000C36843F02003C36003E0036943F02003FC
:101BA000036110BD10B502460020936803F0806306
:101BB000B3F1806F00D110E0936803F00063B3F1DC
:101BC000006F01D1012008E0936803F08053B3F166
:101BD000805F01D1022000E00420042874D002F5C7
:101BE000C07303EB00131B6803F0010402F5C0731C
:101BF00003EB00131C600B7A7BB94B7A0C8843EA29
:101C0000445302F5C07404EB00142468234302F526
:101C1000C07404EB0014236010E00B7A4C6843EAB4
:101C2000C4034C7A234302F5C07404EB0014246807
:101C3000234302F5C07404EB001423608B7A03F095
:101C40000F038B7202F5C07303EB00135B6823F084
:101C50000F0402F5C07303EB00135C6002F5C07360
:101C600003EB00135B688C7A234302F5C07404EB2A
:101C7000001463608B7B1C064B7B44EA03440B7BA4
:101C800044EA0323CC7A234302F5C07404EB001426
:101C9000A3608B7C1C064B7C44EA03440B7C44EA27
:101CA0000323CC7B234302F5C07404EB0014E360F0
:101CB00002F5C07303EB00131B6843F0010402F547
:101CC000C07303EB00131C6010BD000010B502468A
:101CD000002321B1012907D002290FD109E0906822
:101CE0001D4C00EA04030BE090681C4C00EA04035E
:101CF00006E090681A4C00EA040301E0002300BFEC
:101D000000BF184C181BA34216D007DC83B16FF03C
:101D10008060184470B1022818D111E0B0F5007F3E
:101D200010D0114C204448B1B0F5003F0ED10BE06B
:101D300002230DE000230BE0002309E0002307E06D
:101D4000012305E0012303E0012301E0002300BF9C
:101D500000BFD8B210BD000003000004000300085B
:101D600000000310000100080001FFF708B1002186
:101D700003E0202070474000491C0028FBDA084699
:101D8000704708B1002103E0202070474000491C43
:101D90000028FBDA084670472DE9F04186B08046FE
:101DA0000F460024A0200190002002908DF80C0026
:101DB0008DF80D008DF80E7000BF06E018F80410C5
:101DC0000DF10F000155601C84B2BC42F6DB00220D
:101DD0000221254801F084F80120244908700024DC
:101DE00001A92348FFF7DEFE064606E0601C84B228
:101DF00001A91F48FFF7D6FE0646042E03D144F67C
:101E0000FF708442F2DB042E03D1012006B0BDE84E
:101E1000F081002431461648FFF758FF054606E0DA
:101E2000601C84B231461248FFF750FF0546012D71
:101E300003D044F6FF708442F2DB44F6FF70844224
:101E40000FDB022D04D131460AA0FEF769FE08E03F
:101E50003DB9FFF7B5FD31460FA0FEF761FE012049
:101E6000D4E70020D2E7000000040240290000204F
:101E70000064004063616E206D626F785B25645D75
:101E80002043414E5F54785374617475735F50659D
:101E90006E64696E670A000063616E206D626F7820
:101EA0005B25645D2043414E5F54785374617475C3
:101EB000735F4661696C65640A0000000022134686
:101EC00001E08354521C8A42FBDB704770B5002549
:101ED0004FF4803404E0802002F0DEF900B103E02A
:101EE000201EA4F10104F6D100BF0CB9032070BD7F
:101EF00040F2FF5002F0A6F92846F8E770B5044614
:101F000005E01648056805F0450000B100E0F8E777
:101F100000BF042002F0C0F920B1042002F092F9C1
:101F2000032070BD012002F0B7F920B1012002F0BA
:101F300089F90120F5E7094824380068A04201D05A
:101F40001020EEE740F2FF5002F07CF90348203801
:101F5000006808210840C0B2E3E70000342C0140CB
:101F600070B500264FF4803505E01148046804F090
:101F7000450000B103E0281EA5F10105F5D100BF21
:101F800015B104F0040028B10326042002F05AF928
:101F9000304670BD012002F07FF918B10126012002
:101FA00002F050F940F2FF5002F04CF93046F0E7F1
:101FB000342C014010B505E00B48046804F04500DE
:101FC00000B100E0F8E700BF042002F065F920B19D
:101FD000042002F037F9032010BD40F2FF5002F058
:101FE00031F90020F8E70000342C01402DE9F041E0
:101FF00005460E464FF0000805E02048076807F048
:10200000450000B100E0F8E700BF042002F044F909
:1020100028B1042002F016F90320BDE8F081012068
:1020200002F03AF920B1012002F00CF90120F4E7A6
:10203000124824380068A84201D01020EDE740F291
:10204000FF5002F0FFF80D482038046804F46040A7
:1020500018B9200C30804046DFE704F4005008B186
:102060001320DAE704F4804008B11020D5E704F427
:10207000004008B10F20D0E74046CEE7342C0140A5
:1020800070B500264FF4803505E00F48046804F071
:10209000450000B103E0281EA5F10105F5D100BF00
:1020A00015B104F0040028B10326042002F0CAF898
:1020B000304670BD04F0400018B10026402002F008
:1020C000C1F83046F5E70000342C014040F27F4172
:1020D00000EB810330F8112020F8212030F8112086
:1020E0005A80491EF4D5704770B500225FF01F0476
:1020F00004EB821101F120030CE000BF30F8115015
:1021000020F8135030F8115000EB4306491E26F812
:10211000025C9B1EB1EB821FF0DA521C242AE7DB23
:1021200070BD000010B50749074800F025F90128E7
:1021300006D10449044800F021F8044800688047AB
:1021400010BD00000080001858600240B40000205C
:1021500010B50749074800F00FF9012806D10449D6
:10216000044800F00BF804480068804710BD0000E8
:102170002080002070600240B00000200246094B21
:102180009A4201D2084801E00648103801F0005395
:102190001BB1064B0B40C36002E0044B0B40836055
:1021A0007047000010640240006002407D0F7D0F08
:1021B00021B1026842F00102026003E0026822F0ED
:1021C0000102026070470000016821F00101016016
:1021D0000021016041608160C16001612121416194
:1021E0004A49884204D13D21484A103A91608CE026
:1021F00046491831884205D14FF47461434A103A78
:10220000916082E041493031884205D14FF4741128
:102210003E4A103A916078E03C494831884205D105
:102220004FF07461394A103A91606EE0374960317D
:10223000884204D13649354A103AD16065E03349C5
:102240007831884204D13349304A103AD1605CE099
:102250002E499031884204D12F492C4A103AD1603E
:1022600053E02A49A831884205D14FF03D51274A11
:10227000103AD16049E02949884204D13D21274ADA
:10228000083A116041E025491831884205D14FF4E0
:102290007461224A083A116037E02049303188429F
:1022A00005D14FF474111D4A083A11602DE01B4905
:1022B0004831884205D14FF07461184A083A1160DC
:1022C00023E016496031884204D11149134A121F94
:1022D00011601AE011497831884204D10D490F4A42
:1022E000121F116011E00D499031884204D10A4952
:1022F0000A4A121F116008E00849A831884204D137
:102300004FF03D51054A121F1160704710600240A6
:102310003D000020400F002000003D2010640240DE
:1023200021B1026842F48022026003E0026822F4D4
:1023300080220260704722B1036843F400230360E7
:1023400003E0036823F4002303600161704721B1B7
:10235000026842F02002026003E0026822F02002DC
:1023600002607047014600200A6802F001020AB1CB
:10237000012000E00020704770B5024600200024D4
:102380000025124EB24201D2114B01E00F4B103B1F
:10239000104E0E4036B11E2606EAD124166806EA13
:1023A000040502E0566906F0800501F000560EB102
:1023B0005C6800E01C68084E344004EA010616B16F
:1023C0000DB1012000E0002070BD0000106402404B
:1023D000006002403C0F3C0F7D0F7D0F10B501F0F7
:1023E00080034BB122B1436943F08003436103E0B2
:1023F000436923F08003436180290BD02AB103682D
:1024000001F01E042343036004E0036801F01E048E
:10241000A343036010BD000010B500220268134BF7
:102420001A40CC680B6823434C6923438C692343CF
:10243000CC6923430C6A23434C6A23438C6A2343AD
:102440004C6B23438C6B23431A430260426922F096
:102450000702D1E90B3423431A4342610B694360FD
:102460004B6883608B68C36010BD00003F801CF028
:10247000704700002DE9FE4F0029DDE90C572FDDE4
:102480004FF0FF3A002B1FDBBF4C029354F8226041
:10249000BE4C04EB460BBE4C54F8326004EBC20257
:1024A0000096167900227C4214F0070404D015F837
:1024B000012BC4F12007BA401B1B36B1012E12D0EC
:1024C000032E72D0022E70D05BE10022134605E08D
:1024D00040F8223000EB8204921C63608A42F7DBF2
:1024E0000020BDE8FE8F9BF800600BF1020906F0AA
:1024F0000F0E4FF0000C102B0EDB15F8016BC4F122
:102500001807BE40164315F8012BC4F11007BA4056
:102510003243103B10343FE0E618002ED4DD002B90
:1025200006DD15F8017BC4F1180C07FA0CF73A43E5
:10253000082B05DD15F8013BC4F11004A3401A4334
:102540003446771E4FF000463E41002332404FF0A4
:102550000B0C0B3420E000BFCEF1200622FA06F768
:1025600039F817703E0BA41BB240C7F303162EB107
:1025700002F00048520048EA0606641EC7F303272B
:102580002FB102F00048520048EA0707641E644574
:1025900076DBE0E80267891E002903DD0B2CAADB4D
:1025A000DAE702E0A4EB0C00E7E04FF0000C5F4636
:1025B000CDF804C0102B12DB15F801CBC4F11808BC
:1025C0000CFA08FC4CEA020C15F8012BC4F11008B7
:1025D00002FA08F2103B42EA0C021034C4E004EBA9
:1025E0000309B9F1000F4BDD002B0FDD15F801CB0E
:1025F000C4F118080CFA08FC4CEA0202082B05DDAD
:1026000015F8013BC4F11004A3401A43A9F10108D5
:102610004FF0004C4CFA08FC0CEA02024FF00B0C95
:10262000002309F10B04CDF804C09DE097F800C029
:102630000CF00F09C9F1200C22FA0CFC07EB4C0C32
:10264000BCF802805FEA183C0BD002FA0CF2C8F327
:10265000031EA4EB0C04C8F30329BEF10F0F07D02F
:102660003AE0A4EB090402FA09F207EB48077BE021
:10267000032E34D1B9F1000F03D04FF0010C02E06A
:1026800078E04FF0000C009F674404EB030C7F1CC4
:10269000BC4576DB0AE000BF15F801CBC4F1180891
:1026A0000CFA08FC083B4CEA02020834BC42F3DB9B
:1026B000002B08DA1C44A4F1010C4FF00047002362
:1026C00047FA0CF73A40009FC7F1200722FA07F7B4
:1026D000BE44009FE41BBA40BEF1000F05D002F0DB
:1026E0000047520047EA0E0E641EB9F10F0F29D1C0
:1026F000032E2AD1009F04EB030C7F1CBC4540DB5A
:102700000AE000BF15F801CBC4F118080CFA08FC68
:10271000083B4CEA02020834BC42F3DB002B08DA27
:102720001C44A4F1010C4FF00047002347FA0CF7BA
:102730003A40009FC7F1200722FA07F7B944009FEB
:10274000E41BBA40B9F1000F05D002F00047520077
:1027500047EA0909641E019FBC4212DB40F804EB02
:102760005F4640F8049B891E002904DD0B2CFFF610
:1027700021AF5BE705E00198201A02991844081A76
:10278000AFE65046ADE6000028CB030804AA0308D4
:10279000A8CB03082DE9F84F8146DDE90A54002B48
:1027A00002DC0020BDE8F88F4848494E50F822006E
:1027B00000EB060E474850F82200009000226042CD
:1027C00010F0070404D015F8012BC4F1200082405A
:1027D0000020A3EB040A8346C91E74E0BAF1100F6F
:1027E0000FDB15F8013BC4F11806B340134315F88D
:1027F000012BC4F11006B2401A43AAF1100A10349A
:102800005DE004EB0A03002BCCDDBAF1000F05DD1F
:1028100015F8016BC4F11807BE403243BAF1080F36
:1028200005DD15F8016BC4F11004A64032431C46C7
:102830005E1E4FF0004333411A404FF0000A4FF044
:102840000A0B0A343BE0009BC3F1200322FA03F396
:102850001EF803603309E41A9A40C6F3C00323B19B
:1028600002F000473B435200641EC6F3800CBCF1EB
:10287000000F05D002F00047520047EA0C0C641E1E
:10288000C6F340072FB102F00048520048EA07079C
:10289000641E16F0010605D002F00048520048EA16
:1028A0000606641E5C45FFF67DAFC9F8003009F1ED
:1028B0000403001D43F804CBE3E8027699468842FE
:1028C00001DA0A2CBFDA884288DB6BE7F8CC030810
:1028D000A8CC030800CD030801B50549086800BF6E
:1028E00003490968411A009A9142F9D308BD0000D2
:1028F0003C0100202DE9F04F0D4606465B4903F0F0
:10290000030001EB801910398DB051F820000490BC
:102910001F2092464FF00008B0EBA30F1DDD9C1066
:10292000E01C1F281ADA002800DC00200021089192
:10293000D9F8041001410991D9F8081001410A9110
:10294000D9F80C1001410B9180CE27F000400428EB
:1029500006DA08A951F8200077E01F241F20E5E7D8
:10296000102807DA59F82000002C01DA614269E0EA
:1029700020416AE0402809DA3D4901EB80000499D2
:1029800050F8400CFDF79CFCE11E50E04FEA404B34
:1029900000200290BBF1006F03DA04204FEA0B1B0A
:1029A0000290BBF1005F04DA02984FEA8B0B801CA7
:1029B0000290BBF1804F04DA02984FEA4B0B401CA7
:1029C00002902C498B4502DA2948C03001E02848A2
:1029D000D430069000685946FDF772FC014606980F
:1029E000406808445946FDF76BFC0146069880682C
:1029F00008445946FDF764FC01460698C06808443F
:102A00005946FDF75DFC014606981B4A00690844DB
:102A1000029952F82110FDF753FCC0000499FDF70C
:102A20004FFC154A0299203A52F82110611A0029E8
:102A30000ADA49426FF0004222FA01F3834201DAD6
:102A4000104602E0884000E0084148EA000188465C
:102A5000002F00DA404201C5AAF101005FEA000A36
:102A60007FF472AF0DB00846BDE8F08FDCA7030815
:102A7000DCA803089A79825AE4A903082DE9FC41ED
:102A800007460D46002600240020009001900820F3
:102A90005B49086010204860402088600020C860C2
:102AA0004FF480600861084601F042FC1020FFF7F7
:102AB00025FA044614B12046BDE8FC81514800883F
:102AC00000044F490860372048604020886000209B
:102AD000C8604FF480600861084601F029FC372087
:102AE000FFF70CFA04460CB12046E5E74FF0FF3043
:102AF0004549086008204860302088600220C8608E
:102B00000020086101204861084601F0ABFB00206D
:102B10003B49086033204860402088600020C8603E
:102B20004FF480600861084601F002FC3320FFF793
:102B3000E5F904460CB12046BEE70CE04FF4001066
:102B400001F0AAFB38B1314800684DF82600761C28
:102B5000022E00D307E02D484C38006840F22A616D
:102B600008400028EAD000BF082001F095FB20B102
:102B7000082001F067FB04209EE7022001F08CFB97
:102B800020B1022001F05EFB022095E7202001F039
:102B900083FB20B1202001F055FB06208CE74FF489
:102BA000007001F079FB28B14FF4007001F04AFB8E
:102BB000072081E740F2FF5001F044FB0098000637
:102BC000009901F47F4140EA0120009901F47F015E
:102BD00040EA1120009940EA1160686001980006FF
:102BE000019901F47F4140EA0120019901F47F013C
:102BF00040EA1120019940EA1160286020465BE715
:102C000048030020300000205C030020802C01409D
:102C10002DE9F0471E000D4604463BD0D107C6F112
:102C20001F074FF001004FF0000800FA07F0A0F175
:102C30000109C24672D02068C11740FA07F28A42E1
:102C400001D089EA0100B0402060FDF73CFB40EA7A
:102C5000080854F8800F4042C11740FA07F28A4230
:102C600001D089EA0100B0402060FDF72CFB40EA6A
:102C700008082868C11740FA07F280348A4201D058
:102C800089EA0100B04001C50AF1020ABAF1120F47
:102C9000D1DB70E0D0073DD04FF42070D4F880C174
:102CA00007594FF46070D4F8808006594FF4906053
:102CB000CCF1000C05594FF4B060C8F1000803597D
:102CC0004FF4D0607F4202594FF4F06076420159D0
:102CD0004FF408606D4250F804904FF42070C4F82F
:102CE00080C1C4F8808007514FF460705B42065188
:102CF0004FF49060524205514FF4B0604942035185
:102D00004FF4D06002514FF4F0600151C9F100005E
:102D1000C4F880080020BDE8F087FFE72068C117ED
:102D200040FA07F28A4201D089EA0100B0402060EF
:102D3000FDF7C9FA40EA080854F8800FC11740FAB5
:102D400007F28A4201D089EA0100B0402060FDF715
:102D5000BAFA40EA08082868C11740FA07F2803436
:102D60008A4201D089EA0100B04001C50AF1020A95
:102D7000BAF1120FD2DB4046CDE700001CB50320AC
:102D8000009001208DF8040003208DF8050000203C
:102D90008DF806008DF807006946154800F02CF8FC
:102DA000F020009000208DF8040001208DF807002D
:102DB0006946104800F020F8072206210C4800F070
:102DC00063F8072211460A4800F05EF8C020009020
:102DD00002208DF8040003208DF8050000208DF8F6
:102DE00006008DF807006946014800F005F81CBD93
:102DF0000004024000000240F0B50A460021002312
:102E0000002400BF3DE0012505FA01F3156805EA3D
:102E100003049C4234D105684F000326BE40B543ED
:102E2000056015794E00B540066835430560157993
:102E3000012D02D01579022D16D185684F00032689
:102E4000BE40B543856055794E00B5408668354330
:102E50008560456801268E40B54345604568967992
:102E60008E40B6B235434560C5684F000326BE406C
:102E7000B543C560D5794E00B540C6683543C560D9
:102E8000491C1029BFD3F0BDF0B5002300244D0725
:102E9000ED0E02FA05F3CE1000F1200555F826508C
:102EA0004E07F70E0F26BE40B543CF1000F12006A7
:102EB00046F82750CE1000F1200555F8265045EA77
:102EC0000304CE1000F1200545F82640F0BD02466F
:102ED000002013690B400BB1012000E00020704777
:102EE0000AB1018300E04183704700BFFEE70000A4
:102EF0002DE9F04F97B0002598469346894607463E
:102F00002C46209E1BE000BFD8E9053018B170693F
:102F1000A04200DD0023D6E90301A14200DD00202C
:102F2000B1690090CDE901410BEB84024946384676
:102F300000F0AEFC0543641C09F1240948373068F1
:102F4000A042E1DC13E000BFD6E90330A04200DD7F
:102F50000023B0690BEB8402CDE9004049463846B6
:102F600000F0BAFB0543641C09F124094837706876
:102F7000A042E9DC009441E0D6E90320A04200DD54
:102F8000002203A9484603F011FCE00715904FF01A
:102F9000000A04F001005746029003A80BEB07213A
:102FA00050F83700019180004AEA000A41F82400F5
:102FB000FDF789F940EA050803A800EBC700159959
:102FC0004068800080EAE1710298084401994AEA69
:102FD000000A01EB8401C1F88000FDF774F940EAB2
:102FE0000805002049F827007F1C092FD5DB09F1CF
:102FF0002409BAF1000F00D00094641CB068A0420C
:10300000BADC0021202C0ADA5FF000000BEBC012C2
:10301000401C42F824101228F8DB641CF2E70DB1C2
:10302000002003E0202003E06D00401C002DFBDAAF
:10303000401EF061009817B0BDE8F08F2DE9FF4108
:1030400004460F4615461E460121880300F0A0FFE6
:103050000121880300F0ACFF00214FF4804000F014
:10306000A7FFADF80070ADF80240ADF80460002095
:10307000ADF8060002200290ADF80C5069460748F2
:1030800000F068F901220221044802F067FD0121E5
:10309000024800F02BF9BDE8FF8100000038004035
:1030A00070B50546002400260A20B5FBF0F500BFE8
:1030B00009E004EB84001F4931F81000A84200D158
:1030C00003E0601CC4B20C2CF3D300BF002001F05D
:1030D0001DF80C2C01D1012070BD04EB8402154BAE
:1030E00003EB4202918804EB840203EB4202508816
:1030F00001F012F81048006840F080600E49086046
:1031000000BF0D48006800F000600028F9D004EB13
:103110008400084901EB4000C68804EB840001EB01
:103120004000008946EA002646F4007603490E80F6
:103130000020D1E712F90008003802402038004092
:1031400070B590B004460E4615460121480500F0C2
:103150000FFF2448FFF738F800BF2248FFF702F9B5
:103160000028FAD120491F48FFF708F800200090F6
:103170001E48019002944020039004950020059081
:103180004FF4806006904000079080000890401146
:10319000099040020A9000200B900C900D900E9028
:1031A00069461048FFF738F9002231460D48FFF70D
:1031B000C2F801210B48FFF7B3F80122102109489A
:1031C000FFF70CF90F208DF83C0000208DF83D0032
:1031D0008DF83E0001208DF83F000FA800F080FE22
:1031E00010B070BD706002403DF000A00C3800408F
:1031F0002DE9FF4104460F4615461E4687F48070B0
:10320000ADF80000ADF80240ADF804600020ADF864
:10321000060002200290ADF80C506946064800F006
:1032200071F801221146044802F098FC012102487D
:1032300000F05CF8BDE8FF810034004070B590B04C
:1032400004460E4615460121480500F091FE24482B
:10325000FEF7BAFF00BF2248FFF784F80028FAD132
:1032600020491F48FEF78AFF4FF0C06000901E48BB
:103270000190029400200390049505904FF4806023
:1032800006904000079080000890401109900002CD
:103290000A9000200B900C900D900E9069461048FB
:1032A000FFF7BAF8002231460D48FFF744F8012134
:1032B0000B48FFF735F8012210210948FFF78EF877
:1032C0000E208DF83C0000208DF83D0001208DF887
:1032D0003E008DF83F000FA800F002FE10B070BD58
:1032E0005860024000F0409F0C34004021B1828BB6
:1032F00042F48062828304E0828B4FF6FF331A40EF
:103300008283704730B500220023848B4FF2400542
:103310002C40848302240484828B0C88B4F5007FC3
:1033200001D00C8814B94FF4807308E00C88B4F510
:10333000407F03D00C88B4F5807F00D100238C88B7
:103340008D892C434D882C431C4344F40064224354
:10335000828330BD2DE9F04F0025022300244FF079
:10336000010900220026002794469046B0F81CA0D0
:103370004FF2400B0AEA0B0AA0F81CA04FF0020A19
:10338000A0F820A0858BD1F808A0BAF1020F01D1D6
:1033900000BF82E0B1F804A0BAF1000F02D14FF0F3
:1033A000010901E04FF00209DFF834A1DAF800A0CA
:1033B0000AF4000ABAF1000F09D0DFF824A1DAF804
:1033C00000A02AF4000ADFF818B1CBF800A0DFF85B
:1033D00010A10AF17C0ADAF800A0CAF3881CDFF811
:1033E00000A10AF17C0ADAF800A0CAF30278DFF83B
:1033F000F0A0AAF1040ADAF800A00AF03F07DFF80B
:10340000E0A0AAF1040ADAF800A00AF4800ABAF5EA
:10341000800F08D1DFF8CCA0BAFBF7FA0AFB0CFA50
:10342000BAFBF8F607E0DFF8C0A0BAFBF7FA0AFB30
:103430000CFABAFBF8F6B1F806A0BAF5007F0ED187
:103440004FEA162A0AEB8A0A4FEA4A0AD1F808B06C
:10345000BAFBFBFA0AF1050A1FFA8AF20FE04FEAFB
:10346000491AB6FBFAFA0AEB8A0A4FEA4A0AD1F875
:1034700008B0BAFBFBFA0AF1050A1FFA8AF24FF00C
:103480000A0AB2FBFAF202F00104A2EB040ACAF340
:103490004F034FF6FF7A0AEA0424022B01DBFF2BCD
:1034A00001DD02230024B1F806A04AEA040A4AEA30
:1034B000030AA0F820A0B1F804A0B1F80CB04AEAC1
:1034C0000B0AB1F802B04AEA0B0AB1F800B04AEAB6
:1034D0000B0A4AF4006A4AEA05058583BDE8F08FC5
:1034E0000838024000127A000024F40010B50121CF
:1034F0000148FEF75DFE10BD7060024010B500216E
:103500000148FEF755FE10BD7060024010B5012164
:103510000148FEF74DFE10BD5860024010B5002175
:103520000148FEF745FE10BD586002401CB5012160
:10353000022000F01DFD4FF44070009001208DF836
:10354000040000208DF8060003208DF805000120FE
:103550008DF8070069460548FFF74EFC0120044935
:1035600008600449C1F8A4021CBD00000004024028
:10357000A08240420080404270B504461548006871
:1035800020F44020134908600846006840F4802079
:103590000860002010490860002517E0E0090E4986
:1035A000091D08606006040E0220FFF795F901204E
:1035B0000A49C1F8A0020220FFF78EF9002006494F
:1035C00008600220FFF788F9681CC5B2082DE5DB0A
:1035D00070BD000000040240A082404200804042D2
:1035E00010B50F48006820F440200D4908600846D7
:1035F000006840F48020086001200A4908600A49F8
:10360000C1F8A0020420FFF767F90020054908600F
:103610000420FFF761F900200349C1F8A00210BDA2
:1036200000040240A48240420080404210B50F488E
:10363000006820F440200D4908600846006840F406
:103640008020086000200A4908600A49C1F8A402E5
:103650000420FFF741F90120054908600549C1F838
:10366000A4020420FFF738F910BD00000004024056
:10367000A08240420080404210B5002413480068F8
:1036800020F44020114908600846006808600120C5
:103690000F490860FFF720F901200E49C1F8A00288
:1036A000FFF71AF907E0601CC4B2FA2C03DDFFF73C
:1036B000BDFF012010BD0648803800680028F2D107
:1036C0000349091F086000BFF4E70000000402403E
:1036D000A4824042008040422DE9FF4FA7B005463A
:1036E00035981E460C464FF0000B072816DAC0F13D
:1036F000070B002055F8201041FA0BF145F8201077
:1037000005EB80014A6842FA0BF24A60216841FAEF
:103710000BF102C4801C1228ECDB243C69462846CD
:1037200007F012FE281D06A907F00EFE05F108009D
:103730000CA907F009FE324612A9204603F036F81C
:10374000524800273D4624900DF1480A5AF82500BA
:103750004FEA80084046FCF7B6FD40EA0709299881
:103760000AEB850A00EBC516C6F80080DAF80C00F3
:1037700080008046FCF7A7FD40EA0907684600EB99
:103780008500C6F880812590C168249850F82500EE
:10379000FCF796FD0146DAF8180001EB800081463F
:1037A000FCF791FD40EA0708C6F800932498C5F19C
:1037B000050100EB85095DF82110D9F80C00FCF734
:1037C0007FFD0146DAF8240001EB80000746FCF794
:1037D0007AFDC5F10201C6F8807440EA08085DF878
:1037E0002110D9F81800FCF76BFD07462598416AAF
:1037F000249850F82500FCF763FD3918DAF83000FA
:1038000001EB80073846FCF75EFD40EA0801259190
:10381000C6F800765DF82510D9F82400FCF750FDB5
:10382000C5F10B0107465DF82110D9F80C00FCF733
:1038300047FD3918DAF83C0001EB80008046FCF7C0
:1038400042FD25996D1C40EA0107C6F88087032DCB
:10385000FFF67AAF0621684650F82120491C9210E5
:1038600004C40929F8DB0C2150F82120491C9210CE
:1038700004C41229F8DBA4F124015B46349A299888
:10388000FFF7C6F92BB03843BDE8F08FF4D3030837
:103890002DE9F04F0C46AFB00146924600203A9A0F
:1038A0009B464431034605AD072A1BDAC2F10709DE
:1038B00008220E6846FA09F6F31A0E1F181A36681F
:1038C00046FA09F6F31A05EB8206706245F82230D3
:1038D00054F8226046FA09F644F822600839521E6C
:1038E000E7D510E04FF0000908220E68F31A0E1F0A
:1038F000181A36680839F31A05EB8206706245F823
:103900002230521EF1D50E9840100E9005984010AE
:103910000590284607F074FC0EA807F071FC389853
:10392000504F0DAE4FF0000850EA0B0056D018A9CA
:103930002046389A02F03AFF4B490BEBCB0001EBE3
:1039400000100025CDF80400716A57F8040956F8F4
:1039500004B9FCF7B5FC4FEAAB010A1A084404921B
:1039600001C4019850F825100498FCF7A9FC18A987
:10397000C5F1110B51F825100844800001992D90D4
:10398000049851F82B10FCF79BFC18AA014652F83A
:103990002B000844810000910AEBC5112D980860A6
:1039A0000AEBCB10009901602D98FCF78CFC40EAE3
:1039B00008080098FCF787FC6D1C40EA0808092DF0
:1039C000C2DB00BFA4F124014B465046399AFFF7F1
:1039D0001FF92FB040EA0800BDE8F08FDFF884B08F
:1039E0005FF000050BF1040B726A57F8040956F8F2
:1039F000041903911146FCF763FC236803995A42AA
:103A000089102E92421A0844049201C49818404228
:103A100000905BF8041BFCF753FC049A02EB800057
:103A20002D905BF8041B0098FCF74AFC2E9A0AEBD9
:103A3000C51102EB800000902D980860C5F11102BD
:103A40000AEBC211009808602D98FCF73CFC40EA94
:103A500008080098FCF737FC6D1C40EA0808092D9F
:103A6000C2DBAFE728CD0308D4D203081CB5044657
:103A7000002001900090224800880004214908603D
:103A80000D204860402088600020C8604FF48060AE
:103A90000861084600F04CFC1B480068009002E0FA
:103AA000194800680090009800F045000028F7D001
:103AB000012000F0F1FB20B1012000F0C3FB012048
:103AC0001CBD042000F0E8FB20B1042000F0BAFB8C
:103AD0000320F5E70C48243800680D2801D0102099
:103AE000EEE740F2FF5000F0ADFB074820380068D9
:103AF00001900198C0F3432020700020E0E700000F
:103B00003000002048030020342C01402DE9FF4FF5
:103B100083B017460E46040013D031680BF004F84A
:103B20005FEA00087CD4306800EB08012046316071
:103B30000BF06EF9002807DA6FF0060007B0BDE859
:103B4000F08F6FF00400F9E7316808EB000B0144D7
:103B500031603A68A2EB0B013960D4F8B81719B19B
:103B6000D4F8B007D0BB5CE0D4F8B017B1BB0121EA
:103B7000C4F8B0173568D7F800A0A5EB0801A9462E
:103B8000A1EB00085146284600F01DF90544002825
:103B900002DA4FF0FF301AE02A7898F800108A42D3
:103BA0001DD16A7898F801108A4218D1A97801F0DD
:103BB000FC0298F8021001F0FC018A420FD198F83B
:103BC00002004008C00700D06D1EA5EB0900C4F834
:103BD000B407002809DA6FF00200AFE714E0AAEB9F
:103BE0000000A0F1030AED1CCCE700EB0B01D4F8B8
:103BF000C427D4F8C8074243D4F8C0074843C000DC
:103C000090FBF2F0C4F8B807204609F0C2FDD4F8E2
:103C1000B4174018C4F8CC0703D56FF00C008DE73B
:103C200009E01098A8B13868C4F8CC07D4F8D817C0
:103C300009B9002802DC6FF005007FE7C4F8DC0753
:103C40003568284430603868D4F8CC17401A38609A
:103C50002CE0D4F8CC373868834202DD4FF0FF30D7
:103C60006CE7D4F8D827D4F8DC07904226DB204450
:103C7000811A04F11C0005461C31FDF7ABF8D4F89D
:103C8000D807D4F8CC273168284404F2CC74FDF767
:103C90005CF8E168206801442161316808443060C3
:103CA00038682168A4F2CC74401A38600020029071
:103CB000D4F8DC0700264FEAC0097EE004F11C02BC
:103CC00010441A463168FDF740F8D4F8DC17D4F8F0
:103CD000CC070144C4F8DC17316808443060386808
:103CE000D4F8CC17401A38606FF0010026E700279F
:103CF00033E04B4602AA29462046DDF80880CDE98C
:103D000000670BF009F804EBC603029A03EB870384
:103D1000C8EBC0011144D3F8E03705445B1AA9EBA6
:103D20000108002801DB984502DA6FF0070005E77B
:103D3000914602AA29462046CDE9006709F034FDE4
:103D4000002802DA6FF00800F8E605440299C9EB92
:103D5000C0000144A8EB01097F1CD4F8BC07B8429D
:103D6000C7DC3146204609F0EDFE002802DA6FF08C
:103D70000900E3E600270AE03A46314620460AF009
:103D800053FB002802DA6FF00A00D7E67F1CD4F854
:103D9000BC07B842F0DCD4F8BC17D4F8C8074843D5
:103DA0000699704301EB400120460AF03FFE0028CF
:103DB00002DA6FF00B00C1E6761CD4F8C407B042FB
:103DC00095DC0020BAE6024610B500200723491E04
:103DD0000AE0145CE44314F0FF0F04D11418647873
:103DE000B3EB541F04D0401C8842F2DB4FF0FF308D
:103DF00010BD002801D00AF0F4BA704718B1D0F80D
:103E0000D027032A08D00020086048608860C86076
:103E10000861486188617047D0F8B8270A60D0F817
:103E2000BC274A60D0F8C0278A601022CA6090F888
:103E3000D4270F4B02EB420203EB4202D0F8D037FB
:103E400002EB4302D0F8BC3732F9022C5A430A6124
:103E5000D0F8D0274A6190F8D42700F5F7608A613E
:103E6000D0E9032340685A434243CA6170470000C7
:103E7000A6CE030809F03ABC00BFFEE7704708B5BC
:103E80004FF4A06000F068F836208DF800000020A4
:103E90008DF8010001208DF802008DF803006846BE
:103EA00000F01EF837208DF8000000208DF801008A
:103EB00002208DF8020001208DF80300684600F012
:103EC0000FF825208DF8000001208DF801008DF8F5
:103ED00002008DF80300684600F002F808BD0000FB
:103EE00070B5002100230F22C4781CB3174C24683E
:103EF00004F4E064C4F5E064C4F30721C1F10404F0
:103F0000E3B20A4144789C40E1B2847814402143F2
:103F10000C07210E0E4C05786155047804F01F053E
:103F20000124AC4005786D11AD0005F1E025C5F820
:103F3000004109E0047804F01F050124AC40054D60
:103F40000678761145F8264070BD00000CED00E0C3
:103F500000E400E080E100E002490143024A116010
:103F6000704700000000FA050CED00E0704700000B
:103F700029B1064A12680243044B1A6004E0034A5E
:103F800012688243014B1A607047000030380240CB
:103F900029B1064A12680243044B1A6004E0034A3E
:103FA00012688243014B1A6070470000403802409B
:103FB00029B1064A12680243044B1A6004E0034A1E
:103FC00012688243014B1A6070470000203802409B
:103FD00029B1064A12680243044B1A6004E0034AFE
:103FE00012688243014B1A60704700004438024057
:103FF00029B1064A12680243044B1A6004E0034ADE
:1040000012688243014B1A60704700002438024056
:1040100010B501210F20FFF7ABFF01211020FFF7A2
:10402000D7FF10BDF0B50021002200240225002694
:104030000223324F3F6807F00C0121B1042905D05B
:10404000082937D105E02E4F076036E02D4F076075
:1040500033E02A4F3F1F3F68C7F38056274F3F1F6B
:104060003F6807F03F036EB1264FB7FBF3F7DFF869
:104070008CC0ACF1040CDCF800C0CCF3881C07FB4E
:104080000CF40CE01E4FB7FBF3F7DFF870C0ACF197
:10409000040CDCF800C0CCF3881C07FB0CF4174FB1
:1040A0003F1F3F68C7F301477F1C7D00B4FBF5F756
:1040B000076002E0124F076000BF00BF0F4F3F686C
:1040C00007F0F0010909104F7A5C0768D740476094
:1040D0000A4F3F6807F4E051890A0B4F7A5C476842
:1040E000D7408760054F3F6807F46041490B064F92
:1040F0007A5C4768D740C760F0BD000008380240CE
:104100000024F40000127A0014000020014988669F
:104110007047000000004742820142EA0172014BF1
:104120001A6070478438024030B5C1680B460429D4
:104130001BDB01684A1C02600978541C0906C0E9AF
:104140000041127841EA0242611CC0E90012247861
:1041500042EA04224C1CC0E9004209781143416044
:1041600020211B1FC0E9021330BD0024446007E07A
:104170000268551C0560127845682A4312024260A5
:10418000491EF5D2C3F103024168D200914041605B
:10419000D900C0E9021430BD7CB5054600240020DA
:1041A0000090019000260DB1022600E00026224872
:1041B000006800F0007008B10E207CBD1F4909881E
:1041C00088B26946FEF75AFC04460CB12046F4E773
:1041D000019800F4802060B3184800880004184952
:1041E000086037204860402088600020C8604FF495
:1041F00080600861084600F09BF83720FDF77EFEDE
:1042000004460CB12046D8E70D48066006200C494C
:104210004860402088600020C8604FF480600861DA
:10422000084600F085F80620FDF768FE04462046A3
:10423000C3E72520C1E70000142C01403000002016
:10424000480300200149086070470000382C0140F5
:104250000146034A106820F0FF00084310607047D1
:10426000042C014000210B4B02681A601B1D4268A0
:104270001A601A1D116821F0F701D0E902231A43D0
:1042800003691A4343691A431143024A0832116011
:1042900070470000242C014001460020034A1268A8
:1042A0000A400AB1012000E000207047342C014090
:1042B0000248006800F0030070470000002C014035
:1042C00010B500F08BFC10BD00210A4A116847F6BA
:1042D000FF629143027D83681A4343681A43C368AF
:1042E0001A4303681A4303691A431143014A1160D0
:1042F00070470000042C014000200B490860091D94
:104300000860091D0860091D08600749243108601C
:10431000091D0860091D0860044803493831086018
:104320000020091D08607047002C0140FF07C000F5
:104330000021094B02681A601A1D11686FF30A0107
:10434000D0E901231A43C3681A4303691A4311438E
:10435000014A121D11607047082C01400149086094
:1043600070470000002C014070B590B004460E4626
:10437000154600BF1A48FDF7F5FF0028FAD1184886
:10438000FDF722FF4FF00060019016480290039461
:1043900004950020059006904FF4806007908000FF
:1043A00008908000099000200A904FF440300B9054
:1043B00004200C9003200D904FF400000E9080100C
:1043C0000F9001A90648FEF727F820210448FDF7C1
:1043D000BEFF01210248FDF7EBFE10B070BD0000EA
:1043E00058640240802C014070B5044600251648F0
:1043F0000078032802D12725284670BD124800788E
:1044000038B111480078012803D00F4800780228FD
:1044100017D1B4F5805F02D127252846EDE7E0B239
:10442000FFF7BAFE054665B90848006820F4C05099
:10443000064908600846006820430860084600688E
:1044400008602846D9E700002C000020042C014019
:10445000F0B5014600200022BE4B1B7881F8563093
:10446000BD4B1B88A1F85430BC4B1B681A0E930936
:104470000B70C2F383034B7002F003038B70B74BD6
:104480001B68C3F30742CA70B44B1B88C3F30722EF
:104490000A71B24B1A784A715B681A0E1301CB800D
:1044A000AE4B5B68C3F30742CB8843EA1213CB8061
:1044B00002F00F030B72A94B9B88C3F30722D309A9
:1044C0004B72C2F380138B72C2F34013CB72C2F3F0
:1044D00000130B7300234B739E4B1B783BB19D4B1A
:1044E0001B78012B03D09B4B1B78032B4FD19307D9
:1044F0001B0D0B61994B1A790B6943EA82030B611F
:10450000964B9B681A0E0B6943EA92130B61C2F338
:10451000C2030B7502F007034B75904B9B68C3F306
:10452000074253098B75C2F38203CB7593075B0F68
:104530000B768A4B1B89C3F307220B7E43EAD21307
:104540000B760B695B1C0024C1E912340B7E9B1CAB
:10455000012404FA03F3DC17D1E91256A5FB037C0E
:1045600006FB03C305FB0433C1E912730C7A012374
:10457000A3400B650024D1E912650B6DA6FB037CFB
:1045800005FB03C306FB0433C1E912732EE0714B34
:104590001B78022B2AD1714B1A7993069B0A0B6167
:1045A0006E4B9B681A0E0B6943EA02230B616B4B3F
:1045B0009B68C3F307420B6913430B61674B1B896D
:1045C000C3F307220B695B1C4FF40074A3FB044682
:1045D0004FF480630025A4FB037C06FB03C304FBAC
:1045E0000533C1E912734FF400730B65C2F38013F6
:1045F00001F8193F93065B0E4B70584B1A7A4B78B3
:1046000043EAD2134B7002F07F038B70534BDB688D
:104610001A0ED309CB70C2F341130B71C2F382039C
:104620004B7193071B0F8B714C4BDB68C3F3074235
:104630008B7943EA92138B71C2F34013CB71002341
:104640000B7202F001034B72444B9B89C3F30722A8
:10465000D3098B72C2F38013CB72C2F340130B7376
:10466000C2F300134B73C2F381038B7302F0030395
:10467000CB733A4B1A7B53080B7401234B74384BA2
:104680001B681A0ECA741939354B1B68C3F30742ED
:104690001402CC85324B1B88C3F30722CB8D134306
:1046A000CB852F4B1A7814060C635B681A0E0B6BC4
:1046B00043EA02440C632A4B5B68C3F307420B6B6B
:1046C00043EA02240C63264B9B88C3F307220B6B3F
:1046D00013430B63224B1A7934235A54204B9B68A3
:1046E0001A0E35235A541E4B9B68C3F30742140617
:1046F0008C631B4B1B89C3F307228B6B43EA024479
:104700008C63174B1A7A8B6B43EA02248C63144B2D
:10471000DB681A0E8B6B13438B63114BDB68C3F39F
:1047200007423C235B5C43EA12143C235C541307AE
:104730001C0DCC870A4B9B89C3F30722CB8F1343F5
:10474000CB87074B1A7B540840235C540124412338
:104750005C54F0BD2C0000203000002074030020C9
:10476000840300203EB50024002501218805FFF7C1
:10477000FFFB0121C802FFF72BFC0121C802FFF754
:1047800037FC4FF4F850019002208DF80800032008
:104790008DF8090000208DF80A0001208DF80B002B
:1047A00001A93848FEF728FB0420019001A93648EA
:1047B000FEF722FB0C2202213348FEF765FB0C2298
:1047C00011463048FEF760FB0C2208212D48FEF709
:1047D0005BFB0C2209212B48FEF756FB0C220A2119
:1047E0002848FEF751FB0C220B212648FEF74CFB14
:1047F00000214FF40060FFF7FBFBFFF77DFD312048
:104800008DF8000000208DF801008DF802000120D5
:104810008DF803006846FFF763FB00F0EDF80446EF
:1048200014B900F037F804461CB91848FFF710FE19
:10483000044634B91549B1F85410080400F072FD6B
:10484000044624B94FF40060FFF7CEFD04461CB1C6
:104850000F480078032812D10C4890F8560020B178
:104860000A4890F85600012801D1022500E00025F1
:104870002846FFF7EDFC002000F06CFD04462046C2
:104880003EBD000000080240000C024098030020DA
:104890002C00002038B5002401200090FFF708FD0F
:1048A00010B92524204638BD4D480078042824D06E
:1048B00000204C49086002204860C0208860002029
:1048C000C8604FF4806008610846FFF731FDFDF7CE
:1048D00047FB04460CB12046E5E7434800684349DE
:1048E00008604148001D006848603F480830006883
:1048F00088603D480C300068C8603948007858B17D
:1049000037480078012807D035480078062803D0BA
:1049100033480078022816D100203249086003206D
:104920004860402088600020C8604FF480600861C3
:104930000846FFF7FDFC69460320FDF757FB0446D8
:104940000CB12046AFE726480078032816D1BDF801
:10495000000000042349086003204860402088606C
:104960000020C8604FF4806008610846FFF7E0FC53
:10497000FDF7F6FA04460CB1204694E71848007893
:1049800004282AD0BDF8000019490860BDF80000CD
:1049900000041449086009204860C0208860002095
:1049A000C8604FF4806008610846FFF7C1FCFDF75E
:1049B000D7FA04460CB1204675E70B4800680D494C
:1049C00008600948001D0068486007480830006812
:1049D000886005480C300068C860002063E700006C
:1049E0002C00002048030020142C014084030020E8
:1049F00030000020740300202DE9F0470027002438
:104A000000260025A046A14676206E4908750020A4
:104A1000086048608860C86008610846FFF754FC79
:104A20000320FFF79BFC6848006840F480706649EB
:104A3000086000BF12E00020644908604860886098
:104A4000C8604FF4806008610846FFF771FCFDF70D
:104A50003DFA044604B903E0781CC7B24A2FEADBEA
:104A600000BF14B12046BDE8F0874FF4D570574918
:104A7000086008204860402088600020C8604FF42B
:104A8000806008610846FFF753FCFDF7F9FA044619
:104A900024B901204E4908704FF0804900204B494D
:104AA000086037204860402088600020C8604FF4CC
:104AB000806008610846FFF73BFC3720FDF71EFACF
:104AC0000446002C4CD135E00020404908603720D6
:104AD0004860402088600020C8604FF48060086112
:104AE0000846FFF725FC3720FDF708FA04460CB10D
:104AF0002046B8E7374849EA0000344908602920D1
:104B00004860402088600020C8604FF480600861E1
:104B10000846FFF70DFCFDF74DFA04460CB12046A0
:104B2000A1E7294810300668012080EAD67080F09D
:104B300001086D1CB8F1000F03D14FF6FF708542DC
:104B4000C2D34FF6FF70854202D31B2420468AE76A
:104B500006F08040061E33D002201D4908702FE069
:104B60001DE01D4819490860012048604020886008
:104B70000020C8604FF4806008610846FFF7D8FB4A
:104B8000FDF718FA04460CB120466CE70E481030C9
:104B90000668012080EAD67080F001086D1CB8F12B
:104BA000000F03D14FF6FF708542DAD34FF6FF7046
:104BB000854202D31B24204655E703200449087090
:104BC000204650E730030020042C01404803002019
:104BD0002C000020000010800080FF8010B54FF4F2
:104BE0008070FFF759FB78B34C480078012814D146
:104BF00000204B4908600C2048604020886000205D
:104C0000C8604FF4806008610846FFF791FB0C20F4
:104C1000FDF774F94349087002E00020414908702B
:104C20004148006840F480703F490860081D0068F2
:104C30004CF23A3188433C49091D086001203B4948
:104C400008703848007810BDFFE70220FFF724FB0A
:104C500078B10220FFF7F6FA3348001D00684CF2E5
:104C60003A3188433049091D086002202D490870F7
:104C7000E9E70820FFF710FB78B10820FFF7E2FA18
:104C80002948001D00684CF23A3188432649091D25
:104C90000860042023490870D5E72020FFF7FCFABC
:104CA00078B12020FFF7CEFA1F48001D00684CF2B3
:104CB0003A3188431C49091D0860062019490870CB
:104CC000C1E71020FFF7E8FA78B11020FFF7BAFA31
:104CD0001548001D00684CF23A3188431249091DFD
:104CE000086005200F490870ADE74FF40070FFF72A
:104CF000D3FA80B14FF40070FFF7A4FA0A48001D00
:104D000000684CF23A3188430749091D08600720C2
:104D10000449087097E7002095E70000350000205F
:104D20004803002036000020382C014037000020C6
:104D30002DE9F84F8146174698460A9C4FF0000A25
:104D4000D3464D464FF0FF36B9F1000F02D1262071
:104D5000BDE8F88F00208649086086480078022860
:104D600005D10402780A40EAC8574FEA68280020B3
:104D7000814988604860401E086001204861002029
:104D8000C86008610846FFF76DFA7948183800686E
:104D900000F0007008B10E20DAE7002C21DDB4F538
:104DA000006F1EDC601E2040D8B9204603F066FB71
:104DB000009072480460102070494860402088606C
:104DC0000020C8604FF4806008610846FFF7B0FA21
:104DD0001020FDF793F88246BAF1000F03D0504639
:104DE000B6E72620B4E700980001634988600846CA
:104DF00044604FF0FF300860012048610220C86025
:104E0000002008610846FFF72DFA5C480760112072
:104E10005A494860402088600020C8604FF4806094
:104E200008610846FFF784FA1120FDF767F882460B
:104E3000BAF1000F01D050468AE7514800780028A7
:104E40005CD1FBF719FA18E04FF40040FFF724FAA1
:104E500078B14FF0000B06E045485430006845F843
:104E60002B000BF1010BBBF1080FF5D32035454E9C
:104E700003E00EB904206BE7761E3D480830006859
:104E800040F22A6108400028DED00820FFF704FA2B
:104E900020B10820FFF7D6F9042059E70220FFF7D8
:104EA000FBF920B10220FFF7CDF9022050E72020C6
:104EB000FFF7F2F920B12020FFF7C4F9062047E7F9
:104EC0004FF40070FFF7E8F928B14FF40070FFF7D6
:104ED000B9F907203CE704E0254854300068286011
:104EE0002D1D4FF40010FFF7D7F90028F4D1FBF780
:104EF000C5F940F2FF50FFF7A5F936E020480078E9
:104F0000012832D10020204908702049087020492A
:104F1000087017481030006840F22A3108431449DD
:104F2000103108601248006840F00800104908601D
:104F3000002221464846FFF717FA00E0761E154882
:104F4000006800F0006038B91148007820B90E48B8
:104F5000007808B9002EF1D10EB90420F8E60A480D
:104F6000007810B1084890F800A05046F0E6000024
:104F70002C2C01402C0000205C0300204803002062
:104F800034000020FFFF7F003600002035000020A5
:104F900037000020006402402DE9FE4F83460C4696
:104FA000914600200290002625462C46700240EAD9
:104FB000D5566D020BF00300F0B14FF0000A18E077
:104FC0004FF4007000904FEA4A20471946EBE07317
:104FD0003A461648FFF7ACFE02904FF400721349B0
:104FE0005846FBF7B2FE0BF5007B0AF1010000F01A
:104FF000FF0ACA45E4DB16E0B9F1010F09D14FF40D
:1050000000702A46334600905846FFF791FE029002
:1050100009E04FF400702A463346CDE900095846AE
:1050200000F006F802900298BDE8FE8FF003002021
:105030002DE9FF5F17469846DDE90E464FF000095F
:10504000CA464FF0FF35AC49009808600020AB49D4
:105050000860AB480078022805D10402780A40EACB
:10506000C8574FEA68280020A64988604860401E5B
:105070000860012048610020C86008610846FFF709
:10508000F1F89E481838006800F0007018B10E2042
:1050900004B0BDE8F09F002C21DDB4F5006F1EDCEC
:1050A000601E2040D8B9204603F0E8F983469648B0
:1050B0000460102094494860402088600020C86047
:1050C0004FF4806008610846FFF732F91020FCF7C2
:1050D00015FF8146B9F1000F03D04846D8E72620D6
:1050E000D6E7012E71D906FB04F0B0F1007F01D3A1
:1050F0002620CDE74FEA0B108249886006FB04F0BA
:1051000048604FF0FF300860012048610220C8600D
:10511000002008610846FFF7A5F87B4807601220C9
:1051200079494860402088600020C8604FF4806062
:1051300008610846FFF7FCF81220FCF7DFFE814605
:10514000B9F1000F01D04846A2E770480078002866
:105150007ED1FBF791F81EE04FF40040FFF79CF87A
:10516000A8B14FF0000A08E0644854300068624972
:10517000096841F82A000AF1010ABAF1080FF3D3CD
:105180005D48006820305C490860614D03E00DB95E
:1051900004207DE76D1E59480830006840F22A312E
:1051A00008400028D8D00820FFF776F820B1082062
:1051B000FFF748F804206BE70220FFF76DF828B1ED
:1051C0000220FFF73FF8022062E792E02020FFF77D
:1051D00063F820B12020FFF735F8062058E74FF498
:1051E0000070FFF759F828B14FF40070FFF72AF864
:1051F00007204DE70AE04148543000683E490968FD
:1052000008603D480068001D3B4908604FF40010ED
:10521000FFF742F80028EED14FF48070FFF73CF81A
:1052200020B33748007838B135480078012803D0DA
:1052300033480078022819D10020334908600C2037
:105240004860402088600020C8604FF4806000E023
:1052500013E008610846FFF76BF80C20FCF74EFEE0
:105260008146B9F1000F01D0484611E7FBF706F877
:1052700040F2FF50FEF7E6FF3BE0244800780128AB
:1052800037D10020234908700120234908700020ED
:105290002249087019481030006840F22A3108434A
:1052A0001649103108601548006840F0080013499D
:1052B000086006FB04F100220098FFF755F800E0B3
:1052C0006D1E1748006800F0006008B9002DF7D186
:1052D0000DB90420DCE600BF1048007818B90D486D
:1052E00000780028F8D00B48007810B1094890F8F1
:1052F00000904846CCE60000380000202C2C0140ED
:105300002C0000205C030020480300203400002013
:10531000FFFF7F003600002035000020370000200E
:105320000064024010B5044609480460072008499B
:105330004860402088600020C8604FF480600861A9
:105340000846FEF7F5FF0720FCF7D8FD10BD00006A
:105350004803002001460020012900D011B9024B6A
:10536000197000E026207047340000202DE9FF5F0F
:1053700086B017469846149D00260020059004909C
:10538000002481460390824602900195DDF818B012
:10539000DDF818B0BBF1000F03D126200AB0BDE83C
:1053A000F09F0020C9490860C94988604860401ED4
:1053B0000860012048610020C86008610846FEF7C7
:1053C00051FFC2481838006800F0007008B10E2084
:1053D000E4E7C0480078022805D10502780A40EACF
:1053E000C8574FEA6828002D1FDDB5F5006F1CDC9B
:1053F000681E2840C8B9284603F040F80590B64812
:1054000005601020B4494860402088600020C860D2
:105410004FF4806008610846FEF78AFF1020FCF711
:105420006DFD06461EB13046B8E72620B6E7AB480C
:1054300000880004A84908600D204860402088606A
:105440000020C8604FF4806008610846FEF770FFD6
:105450000D20FCF753FD06460EB130469EE79B48F3
:105460001838006803904FF0FF341CE0641E9B481E
:1054700000880004984908600D204860402088603A
:105480000020C8604FF4806008610846FEF750FFB6
:105490000D20FCF733FD06460EB130467EE78B4803
:1054A000183800680390039800F4807008B9002C45
:1054B000DCD10CB9292071E787480760182086499C
:1054C0004860402088600020C8604FF48060086118
:1054D0000846FEF72DFF1820FCF710FD06460EB11A
:1054E00030465BE700207E49087005980001784946
:1054F0008860084645604FF0FF3008600120486131
:105500000020C86008610846FEF7ACFE4FF0FF348B
:105510007448007800287ED1FAF7AEFE45E04FF4DB
:105520008040FEF7B9FED8B30198A0EB090020280F
:1055300022D20198A0EB090000F0030020B90198E5
:10554000A0EB0900800804E00198A0EB09008008A6
:10555000401C02904FF0000A0AE05C495431DBF82D
:10556000000008600AF1010A0BF1040B09F10409BB
:1055700002988245F1D310E04FF0000A06E05BF894
:105580002A005249543108600AF1010ABAF1080FA1
:10559000F5D30BF1200B09F120096FF0404404E032
:1055A000FFE70CB90420F9E6641E4848083000689B
:1055B00040F21A6108400028B1D00820FEF76CFEC6
:1055C00020B10820FEF73EFE0420E7E60220FEF7A9
:1055D00063FE20B10220FEF735FE0220DEE6102039
:1055E000FEF75AFE20B11020FEF72CFE0520D5E66E
:1055F0004FF40070FEF750FE30B14FF40070FEF72C
:1056000021FE0720CAE606E0FAF738FE40F2FF5016
:10561000FEF718FE41E03348007801283DD1002014
:10562000314908702E4908703049087027481030F9
:10563000006840F21A3108432449103108604022C2
:1056400029460698FEF790FE2048006840F00800C2
:105650001E49086000E0641E2548006800F00060F4
:1056600008B9002CF7D11CB9FFF77CF8042095E6A7
:105670004FF0FF3400E0641E1C48007820B91A483F
:10568000007808B9002CF6D10CB9042086E616483B
:10569000007810B11448007880E640F2FF50FEF721
:1056A000D1FD04A8FEF7E2F9064603E004A8FEF7E0
:1056B000DDF906463EB99DF810000728F6D09DF8A2
:1056C00010000628F2D0304668E600002C2C01407D
:1056D0005C0300202C000020480300203000002044
:1056E0003500002034000020360000203700002064
:1056F000006402402DE9FE4F81460C469246002090
:105700000290002625462C46700240EAD5566D02CE
:1057100009F00300F0B14FF0000B18E04FF40072F5
:1057200049461948FBF711FB4FF4007000904FEA0F
:105730004B20471946EBE0733A461348FFF716FE35
:10574000029009F500790BF1010000F0FF0BD34541
:10575000E4DB16E0BAF1010F09D14FF400702A46DC
:10576000334600904846FFF701FE029009E04FF4EF
:1057700000702A463346CDE9000A484600F006F894
:1057800002900298BDE8FE8FF00300202DE9FF5F34
:1057900084B0DDE912470026002003900290002526
:1057A00080468146019007FB04FBDDF810A0DDF880
:1057B00010A0BAF1000F03D1262008B0BDE8F09F79
:1057C0000020DC490860DC4988604860401E0860B1
:1057D000012048610020C86008610846FEF742FDCC
:1057E000D4481838006800F0007008B10E20E4E7D3
:1057F000D2480078022808D10402DDE90601400AF7
:1058000040EAC1504912CDE90601002C1FDDB4F574
:10581000006F1CDC601E2040C8B9204602F02EFE3E
:105820000390C74804601020C54948604020886044
:105830000020C8604FF4806008610846FEF778FDDC
:105840001020FCF75BFB06461EB13046B5E726206C
:10585000B3E7012F6FD907FB04F0B0F1007F01D34C
:105860002620AAE7B548007838B1B4480078012866
:1058700003D0B248007802282DD1B2480088000435
:10588000AF49086037204860402088600020C86029
:105890004FF4806008610846FEF74AFD3720FCF7A8
:1058A0002DFB06460EB1304687E7A5480760172056
:1058B000A3494860402088600020C8604FF48060A1
:1058C00008610846FEF734FD1720FCF717FB064673
:1058D0000EB1304671E79A49069808601920486071
:1058E000402088600020C8604FF48060086108464E
:1058F000FEF71EFD1920FCF701FB06460EB13046EF
:105900005BE7039800018C49886007FB04F048605E
:105910004FF0FF300860012048610020C860086136
:105920000846FEF79FFC88480078002874D1451E81
:10593000FAF7A2FC42E0E4E04FF48040FEF7ACFC52
:10594000B8B3ABEB080020281FD2ABEB080000F087
:10595000030018B9ABEB0800800803E0ABEB0800CC
:105960008008401C01904FF000090AE07149543151
:10597000DAF80000086009F101090AF1040A08F1E7
:10598000040801988145F1D310E04FF0000906E0CA
:105990005AF8290067495431086009F10109B9F141
:1059A000080FF5D30AF1200A08F120086FF04045EE
:1059B00004E0FFE70DB90420FFE66D1E5D480830E6
:1059C000006840F21A3108400028B5D00820FEF7E0
:1059D00063FC20B10820FEF735FC0420EDE6022030
:1059E000FEF75AFC20B10220FEF72CFC0220E4E670
:1059F0001020FEF751FC20B11020FEF723FC0520FB
:105A0000DBE64FF40070FEF747FC30B14FF4007056
:105A1000FEF718FC0720D0E62CE04FF48070FEF76C
:105A20003BFC00B34548007838B144480078012871
:105A300003D042480078022815D100204049086070
:105A40000C204860402088600020C8604FF48060CF
:105A500008610846FEF76CFC0C20FCF74FFA06467E
:105A60000EB13046A9E6FAF709FC40F2FF50FEF706
:105A7000E9FB46E034480078012842D10020334950
:105A80000870012032490870002032490870294806
:105A90001030006840F21A3108432649103108607E
:105AA00007FB04F140220498FEF75EFC21480068E1
:105AB00040F008001F4908604FF0FF3500E06D1E00
:105AC0002548006800F0006008B9002DF7D11DB925
:105AD000FEF748FE042070E64FF0FF3500E06D1E33
